{
  "_format": "hh-sol-artifact-1",
  "contractName": "Address",
  "sourceName": "contracts/Openzeppelin/Address.sol",
  "abi": [
    {
      "constant": true,
      "inputs": [
        {
          "internalType": "bytes32",
          "name": "c__0xfd43e276",
          "type": "bytes32"
        }
      ],
      "name": "c_0xfd43e276",
      "outputs": [],
      "payable": false,
      "stateMutability": "pure",
      "type": "function"
    }
  ],
  "bytecode": "0x609b610024600b82828239805160001a607314601757fe5b30600052607381538281f3fe730000000000000000000000000000000000000000301460806040526004361060335760003560e01c80639e7bfcfe146038575b600080fd5b606160048036036020811015604c57600080fd5b81019080803590602001909291905050506063565b005b5056fea265627a7a72315820f4e82dc9108eb66f5414c22e23950d7f61f154528904f77d0fad1661e2c5182f64736f6c63430005110032",
  "linkReferences": {},
  "deployedLinkReferences": {}
}