{
  "_format": "hh-sol-artifact-1",
  "contractName": "ERC20",
  "sourceName": "contracts/Openzeppelin/ERC20.sol",
  "abi": [
    {
      "anonymous": false,
      "inputs": [
        {
          "indexed": true,
          "internalType": "address",
          "name": "owner",
          "type": "address"
        },
        {
          "indexed": true,
          "internalType": "address",
          "name": "spender",
          "type": "address"
        },
        {
          "indexed": false,
          "internalType": "uint256",
          "name": "value",
          "type": "uint256"
        }
      ],
      "name": "Approval",
      "type": "event"
    },
    {
      "anonymous": false,
      "inputs": [
        {
          "indexed": true,
          "internalType": "address",
          "name": "from",
          "type": "address"
        },
        {
          "indexed": true,
          "internalType": "address",
          "name": "to",
          "type": "address"
        },
        {
          "indexed": false,
          "internalType": "uint256",
          "name": "value",
          "type": "uint256"
        }
      ],
      "name": "Transfer",
      "type": "event"
    },
    {
      "constant": true,
      "inputs": [
        {
          "internalType": "address",
          "name": "owner",
          "type": "address"
        },
        {
          "internalType": "address",
          "name": "spender",
          "type": "address"
        }
      ],
      "name": "allowance",
      "outputs": [
        {
          "internalType": "uint256",
          "name": "",
          "type": "uint256"
        }
      ],
      "payable": false,
      "stateMutability": "view",
      "type": "function"
    },
    {
      "constant": false,
      "inputs": [
        {
          "internalType": "address",
          "name": "spender",
          "type": "address"
        },
        {
          "internalType": "uint256",
          "name": "amount",
          "type": "uint256"
        }
      ],
      "name": "approve",
      "outputs": [
        {
          "internalType": "bool",
          "name": "",
          "type": "bool"
        }
      ],
      "payable": false,
      "stateMutability": "nonpayable",
      "type": "function"
    },
    {
      "constant": true,
      "inputs": [
        {
          "internalType": "address",
          "name": "account",
          "type": "address"
        }
      ],
      "name": "balanceOf",
      "outputs": [
        {
          "internalType": "uint256",
          "name": "",
          "type": "uint256"
        }
      ],
      "payable": false,
      "stateMutability": "view",
      "type": "function"
    },
    {
      "constant": true,
      "inputs": [
        {
          "internalType": "bytes32",
          "name": "c__0x42d820d8",
          "type": "bytes32"
        }
      ],
      "name": "c_0x42d820d8",
      "outputs": [],
      "payable": false,
      "stateMutability": "pure",
      "type": "function"
    },
    {
      "constant": true,
      "inputs": [
        {
          "internalType": "bytes32",
          "name": "c__0xdb7cf3fd",
          "type": "bytes32"
        }
      ],
      "name": "c_0xdb7cf3fd",
      "outputs": [],
      "payable": false,
      "stateMutability": "pure",
      "type": "function"
    },
    {
      "constant": false,
      "inputs": [
        {
          "internalType": "address",
          "name": "spender",
          "type": "address"
        },
        {
          "internalType": "uint256",
          "name": "subtractedValue",
          "type": "uint256"
        }
      ],
      "name": "decreaseAllowance",
      "outputs": [
        {
          "internalType": "bool",
          "name": "",
          "type": "bool"
        }
      ],
      "payable": false,
      "stateMutability": "nonpayable",
      "type": "function"
    },
    {
      "constant": false,
      "inputs": [
        {
          "internalType": "address",
          "name": "spender",
          "type": "address"
        },
        {
          "internalType": "uint256",
          "name": "addedValue",
          "type": "uint256"
        }
      ],
      "name": "increaseAllowance",
      "outputs": [
        {
          "internalType": "bool",
          "name": "",
          "type": "bool"
        }
      ],
      "payable": false,
      "stateMutability": "nonpayable",
      "type": "function"
    },
    {
      "constant": true,
      "inputs": [],
      "name": "totalSupply",
      "outputs": [
        {
          "internalType": "uint256",
          "name": "",
          "type": "uint256"
        }
      ],
      "payable": false,
      "stateMutability": "view",
      "type": "function"
    },
    {
      "constant": false,
      "inputs": [
        {
          "internalType": "address",
          "name": "recipient",
          "type": "address"
        },
        {
          "internalType": "uint256",
          "name": "amount",
          "type": "uint256"
        }
      ],
      "name": "transfer",
      "outputs": [
        {
          "internalType": "bool",
          "name": "",
          "type": "bool"
        }
      ],
      "payable": false,
      "stateMutability": "nonpayable",
      "type": "function"
    },
    {
      "constant": false,
      "inputs": [
        {
          "internalType": "address",
          "name": "sender",
          "type": "address"
        },
        {
          "internalType": "address",
          "name": "recipient",
          "type": "address"
        },
        {
          "internalType": "uint256",
          "name": "amount",
          "type": "uint256"
        }
      ],
      "name": "transferFrom",
      "outputs": [
        {
          "internalType": "bool",
          "name": "",
          "type": "bool"
        }
      ],
      "payable": false,
      "stateMutability": "nonpayable",
      "type": "function"
    }
  ],
  "bytecode": "0x60806040526100367f1648ed9a3a549f0d89d1da17e5d55a7f910027e202bf03f77ecab104844d19fb60001b61003b60201b60201c565b61003e565b50565b611d518061004d6000396000f3fe608060405234801561001057600080fd5b506004361061009e5760003560e01c80639a2d69fe116100665780639a2d69fe1461026b578063a457c2d714610299578063a9059cbb146102ff578063dd62ed3e14610365578063de786db2146103dd5761009e565b8063095ea7b3146100a357806318160ddd1461010957806323b872dd1461012757806339509351146101ad57806370a0823114610213575b600080fd5b6100ef600480360360408110156100b957600080fd5b81019080803573ffffffffffffffffffffffffffffffffffffffff1690602001909291908035906020019092919050505061040b565b604051808215151515815260200191505060405180910390f35b610111610505565b6040518082815260200191505060405180910390f35b6101936004803603606081101561013d57600080fd5b81019080803573ffffffffffffffffffffffffffffffffffffffff169060200190929190803573ffffffffffffffffffffffffffffffffffffffff16906020019092919080359060200190929190505050610593565b604051808215151515815260200191505060405180910390f35b6101f9600480360360408110156101c357600080fd5b81019080803573ffffffffffffffffffffffffffffffffffffffff169060200190929190803590602001909291905050506107a0565b604051808215151515815260200191505060405180910390f35b6102556004803603602081101561022957600080fd5b81019080803573ffffffffffffffffffffffffffffffffffffffff16906020019092919050505061092f565b6040518082815260200191505060405180910390f35b6102976004803603602081101561028157600080fd5b81019080803590602001909291905050506109fb565b005b6102e5600480360360408110156102af57600080fd5b81019080803573ffffffffffffffffffffffffffffffffffffffff169060200190929190803590602001909291905050506109fe565b604051808215151515815260200191505060405180910390f35b61034b6004803603604081101561031557600080fd5b81019080803573ffffffffffffffffffffffffffffffffffffffff16906020019092919080359060200190929190505050610ba7565b604051808215151515815260200191505060405180910390f35b6103c76004803603604081101561037b57600080fd5b81019080803573ffffffffffffffffffffffffffffffffffffffff169060200190929190803573ffffffffffffffffffffffffffffffffffffffff169060200190929190505050610ca1565b6040518082815260200191505060405180910390f35b610409600480360360208110156103f357600080fd5b8101908080359060200190929190505050610dac565b005b60006104397f0d42ccaca515977830f39e5becdbabcee85221bd96d2dbe4f5c4fd1c85faa4f260001b6109fb565b6104657f754bf2ca5c77b407378982e552328835db434ca83ce9a717a1653fe5711d1fae60001b6109fb565b6104917f29963cee0945aee92c2445dde7b8b4f3a6cdcfaf73de48985b894b146fc0e32b60001b6109fb565b6104a361049c610daf565b8484610e3b565b6104cf7fd3d5e5509e5cf6e120dccb4bdb71e3ac08a9e249b3c368b228f693ebe00d3a0c60001b6109fb565b6104fb7f3c8e72bb3eb97920d5ce54b49094b721dd40891cd173090f708ac710354a271f60001b6109fb565b6001905092915050565b60006105337f5ab4b2827b7adc7d1615b3fff4b96378a946b2c2d915dc989b69a1cfcfba8cc660001b6109fb565b61055f7fb8c09fff4908341d91dd69c3e87ca7844a6698b0819fb96dc538c250ed62eca460001b6109fb565b61058b7f9d0a15e22e847c149e2b58fc2aedb22922b840474f89eb4d312b3c5b78cd5b2c60001b6109fb565b600254905090565b60006105c17ffaf709f346fe3db8ae0124b295421b4e2b2c9b1cd0cadcc780c22f8a4384d59760001b6109fb565b6105ed7f7ad44ef5d3f1e0e833b1e92fd1e3f2c7e5a53bd5e7a5d3dce9beff11464374ef60001b6109fb565b6106197fd6c24c3dfc7552619edd906094e7f17001e775b65b5ccebefca8043e02757a4360001b6109fb565b61062484848461126e565b6106507f5b96f9469c516dbe56cd327c0f8f634d794798325c948710798a5a94c2789d2d60001b6109fb565b61067c7fd2eb81ff83f28d13475a9de327d36049bc434c4548fcd2a76c3780941f5e48cf60001b6109fb565b61073d84610688610daf565b61073885604051806060016040528060288152602001611c8760289139600160008b73ffffffffffffffffffffffffffffffffffffffff1673ffffffffffffffffffffffffffffffffffffffff16815260200190815260200160002060006106ee610daf565b73ffffffffffffffffffffffffffffffffffffffff1673ffffffffffffffffffffffffffffffffffffffff168152602001908152602001600020546117b79092919063ffffffff16565b610e3b565b6107697f57a15dd9623caa237d7a7077577ded38892410b0a25de72d4b5adfe6113396ac60001b6109fb565b6107957f8e9ad68ec491eabdf1812f7053db0a03a049f6d15f2f69fa88fc20490192df2a60001b6109fb565b600190509392505050565b60006107ce7f608255447736a1e05dd20beee2382814ccf870fa753087ba4a4b1a310552ff6460001b6109fb565b6107fa7f492dc0c5b05a7ffc5af47ee5ef898af0284d44aee2414161ab3e4261c102d68660001b6109fb565b6108267f2e5597593e4b1d6a198285b1b266864576ee1af09905ea75857aca096ce2701f60001b6109fb565b6108cd610831610daf565b846108c88560016000610842610daf565b73ffffffffffffffffffffffffffffffffffffffff1673ffffffffffffffffffffffffffffffffffffffff16815260200190815260200160002060008973ffffffffffffffffffffffffffffffffffffffff1673ffffffffffffffffffffffffffffffffffffffff16815260200190815260200160002054611a0390919063ffffffff16565b610e3b565b6108f97f39abdd95fe79d7662434a95e5d54b0c5e184cb933c1d0897b06a0562bc18393560001b6109fb565b6109257fc91754ec9db384f5fea245dc2da3a47b5f0264482ea0037319b98e8c0eab928560001b6109fb565b6001905092915050565b600061095d7fbf11abd02ab3bb802d2e5f99795b3e2f0029c94a76dd17c98892daea64bc72d060001b6109fb565b6109897ffef5ad299e7a3e9ab91375c4e51e155903c0d60b3c990446a6d5ada35300700360001b6109fb565b6109b57f968ebb724aec6bce5faeca202a01f8fd8e5da1bfac5b100527b14d2da30e8fd560001b6109fb565b6000808373ffffffffffffffffffffffffffffffffffffffff1673ffffffffffffffffffffffffffffffffffffffff168152602001908152602001600020549050919050565b50565b6000610a2c7f5f443dd38a143da0f9225497f53288bf2c714176cdbfb41d31674d74dd4ccba660001b6109fb565b610a587f1e28cf5cf881aaf56d724265c30c1e508a3efc1746b5abd59aa73f92949aa54160001b6109fb565b610a847f5d481fd5d46258a2f5daaa0cc18e1ec9f00090010bc8914548e7db894864093e60001b6109fb565b610b45610a8f610daf565b84610b4085604051806060016040528060258152602001611cf86025913960016000610ab9610daf565b73ffffffffffffffffffffffffffffffffffffffff1673ffffffffffffffffffffffffffffffffffffffff16815260200190815260200160002060008a73ffffffffffffffffffffffffffffffffffffffff1673ffffffffffffffffffffffffffffffffffffffff168152602001908152602001600020546117b79092919063ffffffff16565b610e3b565b610b717f76d6074abc30f881ff6d416b956be4b2a4d50495113e3ca703a2344d7a87e3f760001b6109fb565b610b9d7faef4d09f98e81fa40d6d23e067fb3d1945292b6116de91c5123cc4d87829085760001b6109fb565b6001905092915050565b6000610bd57fd1f99140089561020c26495e4bff4faf43bf4723034291712a0fe085c62ca0e360001b6109fb565b610c017ff026da482222cc112cbda53a49693b193e42fc7e6df13d27c671ea172127d27a60001b6109fb565b610c2d7fa39db9fb95f48df90321e4f29a2e109b146bcd3b09c341f7996f1a0d4d4693f460001b6109fb565b610c3f610c38610daf565b848461126e565b610c6b7f61cbed024b9eb9b0e7f025bcdc6d8a53b1b9afaacd0490efcf41be17bbc2cd5060001b6109fb565b610c977fa6cc3c9fa193e9f2deca62efcdddb5b1be98dd9414c484d713df4a3f8f84ebe760001b6109fb565b6001905092915050565b6000610ccf7f5fbe00c778dfdb68f544193be7026e7d9e1f3d155e039c4441c5ce99487ab58760001b6109fb565b610cfb7f0b66eb1b4ba67f8a2debbfa264bcc88a0c5a5585942322e8da2048b536ca688760001b6109fb565b610d277fc1dc7f6e3323267ffbfbc407dff8089abe4733ce9c57ed5a38364df62e27a54a60001b6109fb565b600160008473ffffffffffffffffffffffffffffffffffffffff1673ffffffffffffffffffffffffffffffffffffffff16815260200190815260200160002060008373ffffffffffffffffffffffffffffffffffffffff1673ffffffffffffffffffffffffffffffffffffffff16815260200190815260200160002054905092915050565b50565b6000610ddd7ff34b2a8b2e9e739c67260af773ba5665e40bdf8d965ecab3b00bcae74560b64260001b610dac565b610e097f2ba39a87f17acfb11161f566e253783aebea98ccbb9bbfbb6309a7334892b2da60001b610dac565b610e357fc9dcf20a261df4fd57144851da3a3c427cb24d07d5a6f61638c5df6df65791d660001b610dac565b33905090565b610e677fc4d20d5bea6a9f16ba818d7e36ebcc778b72081a85c2980911b37f77473fcfe560001b6109fb565b610e937f53a971d56012e06d193c95146c05704674d6e63fc426486c8fc2adbde49f84fd60001b6109fb565b610ebf7f2d4547104a0d1e6b7a26118aab4f1ac602ed4719bf6108961548c4ee7a73459d60001b6109fb565b610eeb7f6686b2cbcfa8e7d83a64eeaefc2795ddf534e4ce251cc44ba22e831f2437bf1160001b6109fb565b600073ffffffffffffffffffffffffffffffffffffffff168373ffffffffffffffffffffffffffffffffffffffff161415610f71576040517f08c379a0000000000000000000000000000000000000000000000000000000008152600401808060200182810382526024815260200180611cd46024913960400191505060405180910390fd5b610f9d7f0621319e4b9b2a4be42926b4f3681e8c61351af22cc728be4fb560dcf026149460001b6109fb565b610fc97facce556ea82a7bc65b74b437598ffa3c91a2151624ad0fdafcb5c57a1dbdc83260001b6109fb565b610ff57f030def8372bf273c3d4812a3ccd9d503df582007a5422ab807966de1b113eb7260001b6109fb565b6110217f503fb5eac9225f9e9280e8eba5d49bfb7bf68adec8dd52e1565488204947c14360001b6109fb565b600073ffffffffffffffffffffffffffffffffffffffff168273ffffffffffffffffffffffffffffffffffffffff1614156110a7576040517f08c379a0000000000000000000000000000000000000000000000000000000008152600401808060200182810382526022815260200180611c3f6022913960400191505060405180910390fd5b6110d37f9ed4ed8864b8acef5391f32c30a28b0d033373f6188e5cc79ef27beac4148c6a60001b6109fb565b6110ff7f46fa9573d78386238685625e980e0f7f0a52dca1988af56fff3bdb10409d086e60001b6109fb565b61112b7f43b10bb899642d0a27f99a76700962d8963f86d8639183df04123c90c177a30d60001b6109fb565b80600160008573ffffffffffffffffffffffffffffffffffffffff1673ffffffffffffffffffffffffffffffffffffffff16815260200190815260200160002060008473ffffffffffffffffffffffffffffffffffffffff1673ffffffffffffffffffffffffffffffffffffffff168152602001908152602001600020819055506111d87f10d4eadbc4bbaab320133533ceba51208f926314315c162ec2c6dd7acead3fb360001b6109fb565b6112047f7194093eb53c4d1b4220bea3da2922947134cf794a518c973b6a580217ed3c5b60001b6109fb565b8173ffffffffffffffffffffffffffffffffffffffff168373ffffffffffffffffffffffffffffffffffffffff167f8c5be1e5ebec7d5bd14f71427d1e84f3dd0314c0f7b2291e5b200ac8c7c3b925836040518082815260200191505060405180910390a3505050565b61129a7ffde53eb1b51a405de289b72e6ae4f964bc2970a7117d1c47c687807402d255b660001b6109fb565b6112c57efbda40eef188545a791f6a7136ca520097a9320e8f312112f68b8bad2c16b860001b6109fb565b6112f17f6d4de5512cca78b838932b1f8d3cb7c612645bb722a0d6bfcf532069b72224bb60001b6109fb565b61131d7f5d44d165dd8d78b755d21a81cb1a4d992ad809c5e757138c6fed7ff50fc6d36860001b6109fb565b600073ffffffffffffffffffffffffffffffffffffffff168373ffffffffffffffffffffffffffffffffffffffff1614156113a3576040517f08c379a0000000000000000000000000000000000000000000000000000000008152600401808060200182810382526025815260200180611caf6025913960400191505060405180910390fd5b6113cf7f59fbff3d39bb2f794bbfd9b9596a8bf931739db75955ab8eba2240faabdefbd660001b6109fb565b6113fb7f6a7fac40ea7c0f2b86fd31cf5d040ec026b12e03e3012a4207463f5cb0b6401760001b6109fb565b6114277f404bae8f46c77c858095a0384310c85d4e3c2c4af808377e00b6ea36dfd2455c60001b6109fb565b6114537f4d0a9f54abc8d4274701fba20e505fab043d19e4155bd38b00dcf61ca94b656260001b6109fb565b600073ffffffffffffffffffffffffffffffffffffffff168273ffffffffffffffffffffffffffffffffffffffff1614156114d9576040517f08c379a0000000000000000000000000000000000000000000000000000000008152600401808060200182810382526023815260200180611c1c6023913960400191505060405180910390fd5b6115057f3b15337a07af433b0102767f6d3f9f3f02078cce7caf7b0c8348218f676f4fc260001b6109fb565b6115317f5ee77e5f423175b79dbc44db8005605cb46b5c106510cab1dcc8f63cf0a23af560001b6109fb565b61155d7ff0304b05d1bc1dcbaa53187232eb51ca84f6e8b18d1e9b6bacf309e0a65bc66660001b6109fb565b6115c881604051806060016040528060268152602001611c61602691396000808773ffffffffffffffffffffffffffffffffffffffff1673ffffffffffffffffffffffffffffffffffffffff168152602001908152602001600020546117b79092919063ffffffff16565b6000808573ffffffffffffffffffffffffffffffffffffffff1673ffffffffffffffffffffffffffffffffffffffff168152602001908152602001600020819055506116367f31f6a3ec25469db3ba150cd99148071cf2ef11e59f546101d0eda2ba11ab7c9e60001b6109fb565b6116627fac00036bf582646016737d71ca4d2fcae576e4c6c2623398c132780429fc2d2660001b6109fb565b6116b3816000808573ffffffffffffffffffffffffffffffffffffffff1673ffffffffffffffffffffffffffffffffffffffff16815260200190815260200160002054611a0390919063ffffffff16565b6000808473ffffffffffffffffffffffffffffffffffffffff1673ffffffffffffffffffffffffffffffffffffffff168152602001908152602001600020819055506117217f403b0476122d0361189c31d4006929f7a7fbe9b62788d2a27ec1c0da0907738060001b6109fb565b61174d7f55cec332cefddbc58eb87639930830627e390ed0ba7604e23446e43a57b355a160001b6109fb565b8173ffffffffffffffffffffffffffffffffffffffff168373ffffffffffffffffffffffffffffffffffffffff167fddf252ad1be2c89b69c2b068fc378daa952ba7f163c4a11628f55a4df523b3ef836040518082815260200191505060405180910390a3505050565b60006117e57f97bc992a4f710454ab746d4db616a64ea018383de54a85d139640731ed8b5fc560001b611c18565b6118117f67e24e464bd90888e5a6d6d7c05830895e792029cec27ec532870f3734c4e9ea60001b611c18565b61183d7f4039b6d8f47f4ca568e409887bf0e53b596c141aaf42f7df7fbed083576f3bfa60001b611c18565b6118697fd3eabfc731565b9df642e5c91d1b10abe52f04d31e4ba5ae2cc5610aba56017960001b611c18565b838311158290611914576040517f08c379a00000000000000000000000000000000000000000000000000000000081526004018080602001828103825283818151815260200191508051906020019080838360005b838110156118d95780820151818401526020810190506118be565b50505050905090810190601f1680156119065780820380516001836020036101000a031916815260200191505b509250505060405180910390fd5b506119417f1be1097c7e714e366e7336e422166ce73c2ec11ee3b5c610e0201606faa1e3c360001b611c18565b61196d7f62288fe6f0a7956d13aa94e419476e92affec09faeb973818c5a82c870581e6660001b611c18565b6119997f2eccc13b0d77f3b98461d150ed7c0bf1e17fbc9b8605d30fcc0d7af3d9c4977e60001b611c18565b600083850390506119cc7f090094c41ccfe2cce7f6f6a4a1a9aecd44506a466b0045ca8d92810149fede6960001b611c18565b6119f87f93915212060404093bbcece6fae9c03e5916d81ccc52020014493ab5283dd97560001b611c18565b809150509392505050565b6000611a317fbaf9c024e95ded51de10de581f7e9a5f9278d7d44c88913bedce3e2dd10f64ba60001b611c18565b611a5d7fc54665a8398e9a7e108333c05bd60b786b5c6620add6f03718489066cdf4fa8f60001b611c18565b611a897fbf6db928e163d9f59e0f205ed6023acfccceb125f3a96bdeeea0a0b33746dbd760001b611c18565b60008284019050611abc7fda1f611a7ae523006cfa4e37c35a2ad88d939645e316417be5c71c6d1012fee060001b611c18565b611ae87fba19c50fb18fc1ea6c6cf800b5518af3902a832de775b543b58d5495a00bf67360001b611c18565b611b147fffc23a720492c3b2a8e1cffab47c814debe3e6b6e15d8bdab0719a42758eea0760001b611c18565b83811015611b8a576040517f08c379a000000000000000000000000000000000000000000000000000000000815260040180806020018281038252601b8152602001807f536166654d6174683a206164646974696f6e206f766572666c6f77000000000081525060200191505060405180910390fd5b611bb67f832790f69709d076ed0dfcd48e5589a4d45bfc4f71042ad4dde2bc7eb90e539560001b611c18565b611be27f8840e735ebdf3bcd2d42eb9c3081a59867a5d7290d1ac576e7491bc1920b28c660001b611c18565b611c0e7fed0d950aaaaa99bb131a51c630fe967814c6a8eca5750c5f5d395ed7e6fc4df560001b611c18565b8091505092915050565b5056fe45524332303a207472616e7366657220746f20746865207a65726f206164647265737345524332303a20617070726f766520746f20746865207a65726f206164647265737345524332303a207472616e7366657220616d6f756e7420657863656564732062616c616e636545524332303a207472616e7366657220616d6f756e74206578636565647320616c6c6f77616e636545524332303a207472616e736665722066726f6d20746865207a65726f206164647265737345524332303a20617070726f76652066726f6d20746865207a65726f206164647265737345524332303a2064656372656173656420616c6c6f77616e63652062656c6f77207a65726fa265627a7a7231582098e1fd6168f47b4e8ee3726611e0bbdd70d6bbe9449cc68668bfb1591f1ba3df64736f6c63430005110032",
  "linkReferences": {},
  "deployedLinkReferences": {}
}