{
  "_format": "hh-sol-artifact-1",
  "contractName": "OriginsBase",
  "sourceName": "contracts/OriginsBase.sol",
  "abi": [
    {
      "inputs": [
        {
          "internalType": "address[]",
          "name": "_owners",
          "type": "address[]"
        },
        {
          "internalType": "address payable",
          "name": "_depositAddress",
          "type": "address"
        }
      ],
      "payable": false,
      "stateMutability": "nonpayable",
      "type": "constructor"
    },
    {
      "anonymous": false,
      "inputs": [
        {
          "indexed": true,
          "internalType": "address",
          "name": "_initiator",
          "type": "address"
        },
        {
          "indexed": true,
          "internalType": "address",
          "name": "_verifiedAddress",
          "type": "address"
        },
        {
          "indexed": false,
          "internalType": "uint256",
          "name": "_tierID",
          "type": "uint256"
        }
      ],
      "name": "AddressVerified",
      "type": "event"
    },
    {
      "anonymous": false,
      "inputs": [
        {
          "indexed": true,
          "internalType": "address",
          "name": "_initiator",
          "type": "address"
        },
        {
          "indexed": true,
          "internalType": "address",
          "name": "_oldDepositAddr",
          "type": "address"
        },
        {
          "indexed": true,
          "internalType": "address",
          "name": "_newDepositAddr",
          "type": "address"
        }
      ],
      "name": "DepositAddressUpdated",
      "type": "event"
    },
    {
      "anonymous": false,
      "inputs": [
        {
          "indexed": true,
          "internalType": "address",
          "name": "_initiator",
          "type": "address"
        },
        {
          "indexed": true,
          "internalType": "address",
          "name": "_oldLockedFund",
          "type": "address"
        },
        {
          "indexed": true,
          "internalType": "address",
          "name": "_newLockedFund",
          "type": "address"
        }
      ],
      "name": "LockedFundUpdated",
      "type": "event"
    },
    {
      "anonymous": false,
      "inputs": [
        {
          "indexed": true,
          "internalType": "address",
          "name": "_initiator",
          "type": "address"
        },
        {
          "indexed": false,
          "internalType": "uint256",
          "name": "_tierID",
          "type": "uint256"
        }
      ],
      "name": "NewTierCreated",
      "type": "event"
    },
    {
      "anonymous": false,
      "inputs": [
        {
          "indexed": true,
          "internalType": "address",
          "name": "_initiator",
          "type": "address"
        },
        {
          "indexed": false,
          "internalType": "address",
          "name": "_newOwner",
          "type": "address"
        }
      ],
      "name": "OwnerAdded",
      "type": "event"
    },
    {
      "anonymous": false,
      "inputs": [
        {
          "indexed": true,
          "internalType": "address",
          "name": "_initiator",
          "type": "address"
        },
        {
          "indexed": false,
          "internalType": "address",
          "name": "_removedOwner",
          "type": "address"
        }
      ],
      "name": "OwnerRemoved",
      "type": "event"
    },
    {
      "anonymous": false,
      "inputs": [
        {
          "indexed": true,
          "internalType": "address",
          "name": "_initiator",
          "type": "address"
        },
        {
          "indexed": true,
          "internalType": "address",
          "name": "_receiver",
          "type": "address"
        },
        {
          "indexed": false,
          "internalType": "uint256",
          "name": "_tierID",
          "type": "uint256"
        },
        {
          "indexed": false,
          "internalType": "enum OriginsStorage.DepositType",
          "name": "_depositType",
          "type": "uint8"
        },
        {
          "indexed": false,
          "internalType": "uint256",
          "name": "_amount",
          "type": "uint256"
        }
      ],
      "name": "ProceedingWithdrawn",
      "type": "event"
    },
    {
      "anonymous": false,
      "inputs": [
        {
          "indexed": true,
          "internalType": "address",
          "name": "_initiator",
          "type": "address"
        },
        {
          "indexed": false,
          "internalType": "uint256",
          "name": "_tierID",
          "type": "uint256"
        },
        {
          "indexed": false,
          "internalType": "uint256",
          "name": "_depositRate",
          "type": "uint256"
        },
        {
          "indexed": false,
          "internalType": "address",
          "name": "_depositToken",
          "type": "address"
        },
        {
          "indexed": true,
          "internalType": "enum OriginsStorage.DepositType",
          "name": "_depositType",
          "type": "uint8"
        }
      ],
      "name": "TierDepositUpdated",
      "type": "event"
    },
    {
      "anonymous": false,
      "inputs": [
        {
          "indexed": true,
          "internalType": "address",
          "name": "_initiator",
          "type": "address"
        },
        {
          "indexed": false,
          "internalType": "uint256",
          "name": "_tierID",
          "type": "uint256"
        }
      ],
      "name": "TierSaleEnded",
      "type": "event"
    },
    {
      "anonymous": false,
      "inputs": [
        {
          "indexed": true,
          "internalType": "address",
          "name": "_initiator",
          "type": "address"
        },
        {
          "indexed": false,
          "internalType": "uint256",
          "name": "_tierID",
          "type": "uint256"
        },
        {
          "indexed": false,
          "internalType": "uint256",
          "name": "_updatedMaxAmount",
          "type": "uint256"
        }
      ],
      "name": "TierSaleUpdatedMaximum",
      "type": "event"
    },
    {
      "anonymous": false,
      "inputs": [
        {
          "indexed": true,
          "internalType": "address",
          "name": "_initiator",
          "type": "address"
        },
        {
          "indexed": false,
          "internalType": "uint256",
          "name": "_tierID",
          "type": "uint256"
        }
      ],
      "name": "TierSaleUpdatedMinimum",
      "type": "event"
    },
    {
      "anonymous": false,
      "inputs": [
        {
          "indexed": true,
          "internalType": "address",
          "name": "_initiator",
          "type": "address"
        },
        {
          "indexed": false,
          "internalType": "uint256",
          "name": "_tierID",
          "type": "uint256"
        },
        {
          "indexed": false,
          "internalType": "uint256",
          "name": "_saleStartTS",
          "type": "uint256"
        },
        {
          "indexed": false,
          "internalType": "uint256",
          "name": "_saleEnd",
          "type": "uint256"
        },
        {
          "indexed": true,
          "internalType": "enum OriginsStorage.SaleEndDurationOrTS",
          "name": "_saleEndDurationOrTS",
          "type": "uint8"
        }
      ],
      "name": "TierTimeUpdated",
      "type": "event"
    },
    {
      "anonymous": false,
      "inputs": [
        {
          "indexed": true,
          "internalType": "address",
          "name": "_initiator",
          "type": "address"
        },
        {
          "indexed": false,
          "internalType": "uint256",
          "name": "_tierID",
          "type": "uint256"
        },
        {
          "indexed": false,
          "internalType": "uint256",
          "name": "_remainingTokens",
          "type": "uint256"
        }
      ],
      "name": "TierTokenAmountUpdated",
      "type": "event"
    },
    {
      "anonymous": false,
      "inputs": [
        {
          "indexed": true,
          "internalType": "address",
          "name": "_initiator",
          "type": "address"
        },
        {
          "indexed": false,
          "internalType": "uint256",
          "name": "_tierID",
          "type": "uint256"
        },
        {
          "indexed": false,
          "internalType": "uint256",
          "name": "_minAmount",
          "type": "uint256"
        },
        {
          "indexed": false,
          "internalType": "uint256",
          "name": "_maxAmount",
          "type": "uint256"
        }
      ],
      "name": "TierTokenLimitUpdated",
      "type": "event"
    },
    {
      "anonymous": false,
      "inputs": [
        {
          "indexed": true,
          "internalType": "address",
          "name": "_initiator",
          "type": "address"
        },
        {
          "indexed": false,
          "internalType": "uint256",
          "name": "_tierID",
          "type": "uint256"
        },
        {
          "indexed": false,
          "internalType": "enum OriginsStorage.VerificationType",
          "name": "_verificationType",
          "type": "uint8"
        }
      ],
      "name": "TierVerificationUpdated",
      "type": "event"
    },
    {
      "anonymous": false,
      "inputs": [
        {
          "indexed": true,
          "internalType": "address",
          "name": "_initiator",
          "type": "address"
        },
        {
          "indexed": false,
          "internalType": "uint256",
          "name": "_tierID",
          "type": "uint256"
        },
        {
          "indexed": false,
          "internalType": "uint256",
          "name": "_vestOrLockCliff",
          "type": "uint256"
        },
        {
          "indexed": false,
          "internalType": "uint256",
          "name": "_vestOrLockDuration",
          "type": "uint256"
        },
        {
          "indexed": false,
          "internalType": "uint256",
          "name": "_unlockedTokenWithdrawTS",
          "type": "uint256"
        },
        {
          "indexed": false,
          "internalType": "uint256",
          "name": "_unlockedBP",
          "type": "uint256"
        },
        {
          "indexed": true,
          "internalType": "enum OriginsStorage.TransferType",
          "name": "_transferType",
          "type": "uint8"
        }
      ],
      "name": "TierVestOrLockUpdated",
      "type": "event"
    },
    {
      "anonymous": false,
      "inputs": [
        {
          "indexed": true,
          "internalType": "address",
          "name": "_initiator",
          "type": "address"
        },
        {
          "indexed": false,
          "internalType": "uint256",
          "name": "_tierID",
          "type": "uint256"
        },
        {
          "indexed": false,
          "internalType": "uint256",
          "name": "_tokensBought",
          "type": "uint256"
        }
      ],
      "name": "TokenBuy",
      "type": "event"
    },
    {
      "anonymous": false,
      "inputs": [
        {
          "indexed": true,
          "internalType": "address",
          "name": "_initiator",
          "type": "address"
        },
        {
          "indexed": false,
          "internalType": "address",
          "name": "_newVerifier",
          "type": "address"
        }
      ],
      "name": "VerifierAdded",
      "type": "event"
    },
    {
      "anonymous": false,
      "inputs": [
        {
          "indexed": true,
          "internalType": "address",
          "name": "_initiator",
          "type": "address"
        },
        {
          "indexed": false,
          "internalType": "address",
          "name": "_removedVerifier",
          "type": "address"
        }
      ],
      "name": "VerifierRemoved",
      "type": "event"
    },
    {
      "constant": false,
      "inputs": [
        {
          "internalType": "address",
          "name": "_newOwner",
          "type": "address"
        }
      ],
      "name": "addOwner",
      "outputs": [],
      "payable": false,
      "stateMutability": "nonpayable",
      "type": "function"
    },
    {
      "constant": false,
      "inputs": [
        {
          "internalType": "address",
          "name": "_newVerifier",
          "type": "address"
        }
      ],
      "name": "addVerifier",
      "outputs": [],
      "payable": false,
      "stateMutability": "nonpayable",
      "type": "function"
    },
    {
      "constant": false,
      "inputs": [
        {
          "internalType": "address",
          "name": "_addressToBeVerified",
          "type": "address"
        },
        {
          "internalType": "uint256",
          "name": "_tierID",
          "type": "uint256"
        }
      ],
      "name": "addressVerification",
      "outputs": [],
      "payable": false,
      "stateMutability": "nonpayable",
      "type": "function"
    },
    {
      "constant": false,
      "inputs": [
        {
          "internalType": "uint256",
          "name": "_tierID",
          "type": "uint256"
        },
        {
          "internalType": "uint256",
          "name": "_amount",
          "type": "uint256"
        }
      ],
      "name": "buy",
      "outputs": [],
      "payable": true,
      "stateMutability": "payable",
      "type": "function"
    },
    {
      "constant": true,
      "inputs": [
        {
          "internalType": "bytes32",
          "name": "c__0x2b1a913c",
          "type": "bytes32"
        }
      ],
      "name": "c_0x2b1a913c",
      "outputs": [],
      "payable": false,
      "stateMutability": "pure",
      "type": "function"
    },
    {
      "constant": true,
      "inputs": [
        {
          "internalType": "bytes32",
          "name": "c__0x4ad0f1fc",
          "type": "bytes32"
        }
      ],
      "name": "c_0x4ad0f1fc",
      "outputs": [],
      "payable": false,
      "stateMutability": "pure",
      "type": "function"
    },
    {
      "constant": true,
      "inputs": [
        {
          "internalType": "bytes32",
          "name": "c__0x55aecb26",
          "type": "bytes32"
        }
      ],
      "name": "c_0x55aecb26",
      "outputs": [],
      "payable": false,
      "stateMutability": "pure",
      "type": "function"
    },
    {
      "constant": true,
      "inputs": [
        {
          "internalType": "bytes32",
          "name": "c__0x7d365384",
          "type": "bytes32"
        }
      ],
      "name": "c_0x7d365384",
      "outputs": [],
      "payable": false,
      "stateMutability": "pure",
      "type": "function"
    },
    {
      "constant": true,
      "inputs": [
        {
          "internalType": "bytes32",
          "name": "c__0x8209a966",
          "type": "bytes32"
        }
      ],
      "name": "c_0x8209a966",
      "outputs": [],
      "payable": false,
      "stateMutability": "pure",
      "type": "function"
    },
    {
      "constant": true,
      "inputs": [
        {
          "internalType": "address",
          "name": "_addr",
          "type": "address"
        }
      ],
      "name": "checkOwner",
      "outputs": [
        {
          "internalType": "bool",
          "name": "",
          "type": "bool"
        }
      ],
      "payable": false,
      "stateMutability": "view",
      "type": "function"
    },
    {
      "constant": true,
      "inputs": [
        {
          "internalType": "uint256",
          "name": "_tierID",
          "type": "uint256"
        }
      ],
      "name": "checkSaleEnded",
      "outputs": [
        {
          "internalType": "bool",
          "name": "_status",
          "type": "bool"
        }
      ],
      "payable": false,
      "stateMutability": "view",
      "type": "function"
    },
    {
      "constant": true,
      "inputs": [
        {
          "internalType": "address",
          "name": "_addr",
          "type": "address"
        }
      ],
      "name": "checkVerifier",
      "outputs": [
        {
          "internalType": "bool",
          "name": "",
          "type": "bool"
        }
      ],
      "payable": false,
      "stateMutability": "view",
      "type": "function"
    },
    {
      "constant": false,
      "inputs": [
        {
          "internalType": "uint256",
          "name": "_remainingTokens",
          "type": "uint256"
        },
        {
          "internalType": "uint256",
          "name": "_saleStartTS",
          "type": "uint256"
        },
        {
          "internalType": "uint256",
          "name": "_saleEnd",
          "type": "uint256"
        },
        {
          "internalType": "uint256",
          "name": "_unlockedTokenWithdrawTS",
          "type": "uint256"
        },
        {
          "internalType": "uint256",
          "name": "_unlockedBP",
          "type": "uint256"
        },
        {
          "internalType": "uint256",
          "name": "_vestOrLockCliff",
          "type": "uint256"
        },
        {
          "internalType": "uint256",
          "name": "_vestOrLockDuration",
          "type": "uint256"
        },
        {
          "internalType": "uint256",
          "name": "_depositRate",
          "type": "uint256"
        },
        {
          "internalType": "address",
          "name": "_depositToken",
          "type": "address"
        },
        {
          "internalType": "enum OriginsStorage.DepositType",
          "name": "_depositType",
          "type": "uint8"
        },
        {
          "internalType": "enum OriginsStorage.VerificationType",
          "name": "_verificationType",
          "type": "uint8"
        },
        {
          "internalType": "enum OriginsStorage.SaleEndDurationOrTS",
          "name": "_saleEndDurationOrTS",
          "type": "uint8"
        },
        {
          "internalType": "enum OriginsStorage.TransferType",
          "name": "_transferType",
          "type": "uint8"
        }
      ],
      "name": "createTier",
      "outputs": [
        {
          "internalType": "uint256",
          "name": "_tierID",
          "type": "uint256"
        }
      ],
      "payable": false,
      "stateMutability": "nonpayable",
      "type": "function"
    },
    {
      "constant": true,
      "inputs": [],
      "name": "getDepositAddress",
      "outputs": [
        {
          "internalType": "address",
          "name": "",
          "type": "address"
        }
      ],
      "payable": false,
      "stateMutability": "view",
      "type": "function"
    },
    {
      "constant": true,
      "inputs": [],
      "name": "getLockDetails",
      "outputs": [
        {
          "internalType": "address",
          "name": "",
          "type": "address"
        }
      ],
      "payable": false,
      "stateMutability": "view",
      "type": "function"
    },
    {
      "constant": true,
      "inputs": [],
      "name": "getOwners",
      "outputs": [
        {
          "internalType": "address[]",
          "name": "",
          "type": "address[]"
        }
      ],
      "payable": false,
      "stateMutability": "view",
      "type": "function"
    },
    {
      "constant": true,
      "inputs": [
        {
          "internalType": "uint256",
          "name": "_tierID",
          "type": "uint256"
        }
      ],
      "name": "getParticipatingWalletCountPerTier",
      "outputs": [
        {
          "internalType": "uint256",
          "name": "",
          "type": "uint256"
        }
      ],
      "payable": false,
      "stateMutability": "view",
      "type": "function"
    },
    {
      "constant": true,
      "inputs": [],
      "name": "getTierCount",
      "outputs": [
        {
          "internalType": "uint256",
          "name": "",
          "type": "uint256"
        }
      ],
      "payable": false,
      "stateMutability": "view",
      "type": "function"
    },
    {
      "constant": true,
      "inputs": [],
      "name": "getToken",
      "outputs": [
        {
          "internalType": "address",
          "name": "",
          "type": "address"
        }
      ],
      "payable": false,
      "stateMutability": "view",
      "type": "function"
    },
    {
      "constant": true,
      "inputs": [
        {
          "internalType": "address",
          "name": "_addr",
          "type": "address"
        },
        {
          "internalType": "uint256",
          "name": "_tierID",
          "type": "uint256"
        }
      ],
      "name": "getTokensBoughtByAddressOnTier",
      "outputs": [
        {
          "internalType": "uint256",
          "name": "",
          "type": "uint256"
        }
      ],
      "payable": false,
      "stateMutability": "view",
      "type": "function"
    },
    {
      "constant": true,
      "inputs": [
        {
          "internalType": "uint256",
          "name": "_tierID",
          "type": "uint256"
        }
      ],
      "name": "getTokensSoldPerTier",
      "outputs": [
        {
          "internalType": "uint256",
          "name": "",
          "type": "uint256"
        }
      ],
      "payable": false,
      "stateMutability": "view",
      "type": "function"
    },
    {
      "constant": true,
      "inputs": [],
      "name": "getVerifiers",
      "outputs": [
        {
          "internalType": "address[]",
          "name": "",
          "type": "address[]"
        }
      ],
      "payable": false,
      "stateMutability": "view",
      "type": "function"
    },
    {
      "constant": true,
      "inputs": [
        {
          "internalType": "address",
          "name": "_addr",
          "type": "address"
        },
        {
          "internalType": "uint256",
          "name": "_tierID",
          "type": "uint256"
        }
      ],
      "name": "isAddressApproved",
      "outputs": [
        {
          "internalType": "bool",
          "name": "",
          "type": "bool"
        }
      ],
      "payable": false,
      "stateMutability": "view",
      "type": "function"
    },
    {
      "constant": false,
      "inputs": [
        {
          "internalType": "address[]",
          "name": "_addressToBeVerified",
          "type": "address[]"
        },
        {
          "internalType": "uint256[]",
          "name": "_tierID",
          "type": "uint256[]"
        }
      ],
      "name": "multipleAddressAndTierVerification",
      "outputs": [],
      "payable": false,
      "stateMutability": "nonpayable",
      "type": "function"
    },
    {
      "constant": false,
      "inputs": [
        {
          "internalType": "address[]",
          "name": "_addressToBeVerified",
          "type": "address[]"
        },
        {
          "internalType": "uint256",
          "name": "_tierID",
          "type": "uint256"
        }
      ],
      "name": "multipleAddressSingleTierVerification",
      "outputs": [],
      "payable": false,
      "stateMutability": "nonpayable",
      "type": "function"
    },
    {
      "constant": true,
      "inputs": [
        {
          "internalType": "uint256",
          "name": "_tierID",
          "type": "uint256"
        }
      ],
      "name": "readTierPartA",
      "outputs": [
        {
          "internalType": "uint256",
          "name": "_minAmount",
          "type": "uint256"
        },
        {
          "internalType": "uint256",
          "name": "_maxAmount",
          "type": "uint256"
        },
        {
          "internalType": "uint256",
          "name": "_remainingTokens",
          "type": "uint256"
        },
        {
          "internalType": "uint256",
          "name": "_saleStartTS",
          "type": "uint256"
        },
        {
          "internalType": "uint256",
          "name": "_saleEnd",
          "type": "uint256"
        },
        {
          "internalType": "uint256",
          "name": "_unlockedTokenWithdrawTS",
          "type": "uint256"
        },
        {
          "internalType": "uint256",
          "name": "_unlockedBP",
          "type": "uint256"
        },
        {
          "internalType": "uint256",
          "name": "_vestOrLockCliff",
          "type": "uint256"
        },
        {
          "internalType": "uint256",
          "name": "_vestOrLockDuration",
          "type": "uint256"
        },
        {
          "internalType": "uint256",
          "name": "_depositRate",
          "type": "uint256"
        }
      ],
      "payable": false,
      "stateMutability": "view",
      "type": "function"
    },
    {
      "constant": true,
      "inputs": [
        {
          "internalType": "uint256",
          "name": "_tierID",
          "type": "uint256"
        }
      ],
      "name": "readTierPartB",
      "outputs": [
        {
          "internalType": "address",
          "name": "_depositToken",
          "type": "address"
        },
        {
          "internalType": "enum OriginsStorage.DepositType",
          "name": "_depositType",
          "type": "uint8"
        },
        {
          "internalType": "enum OriginsStorage.VerificationType",
          "name": "_verificationType",
          "type": "uint8"
        },
        {
          "internalType": "enum OriginsStorage.SaleEndDurationOrTS",
          "name": "_saleEndDurationOrTS",
          "type": "uint8"
        },
        {
          "internalType": "enum OriginsStorage.TransferType",
          "name": "_transferType",
          "type": "uint8"
        }
      ],
      "payable": false,
      "stateMutability": "view",
      "type": "function"
    },
    {
      "constant": false,
      "inputs": [
        {
          "internalType": "address",
          "name": "_ownerToRemove",
          "type": "address"
        }
      ],
      "name": "removeOwner",
      "outputs": [],
      "payable": false,
      "stateMutability": "nonpayable",
      "type": "function"
    },
    {
      "constant": false,
      "inputs": [
        {
          "internalType": "address",
          "name": "_verifierToRemove",
          "type": "address"
        }
      ],
      "name": "removeVerifier",
      "outputs": [],
      "payable": false,
      "stateMutability": "nonpayable",
      "type": "function"
    },
    {
      "constant": false,
      "inputs": [
        {
          "internalType": "address payable",
          "name": "_depositAddress",
          "type": "address"
        }
      ],
      "name": "setDepositAddress",
      "outputs": [],
      "payable": false,
      "stateMutability": "nonpayable",
      "type": "function"
    },
    {
      "constant": false,
      "inputs": [
        {
          "internalType": "address",
          "name": "_lockedFund",
          "type": "address"
        }
      ],
      "name": "setLockedFund",
      "outputs": [],
      "payable": false,
      "stateMutability": "nonpayable",
      "type": "function"
    },
    {
      "constant": false,
      "inputs": [
        {
          "internalType": "uint256",
          "name": "_tierID",
          "type": "uint256"
        },
        {
          "internalType": "uint256",
          "name": "_depositRate",
          "type": "uint256"
        },
        {
          "internalType": "address",
          "name": "_depositToken",
          "type": "address"
        },
        {
          "internalType": "enum OriginsStorage.DepositType",
          "name": "_depositType",
          "type": "uint8"
        }
      ],
      "name": "setTierDeposit",
      "outputs": [],
      "payable": false,
      "stateMutability": "nonpayable",
      "type": "function"
    },
    {
      "constant": false,
      "inputs": [
        {
          "internalType": "uint256",
          "name": "_tierID",
          "type": "uint256"
        },
        {
          "internalType": "uint256",
          "name": "_saleStartTS",
          "type": "uint256"
        },
        {
          "internalType": "uint256",
          "name": "_saleEnd",
          "type": "uint256"
        },
        {
          "internalType": "enum OriginsStorage.SaleEndDurationOrTS",
          "name": "_saleEndDurationOrTS",
          "type": "uint8"
        }
      ],
      "name": "setTierTime",
      "outputs": [],
      "payable": false,
      "stateMutability": "nonpayable",
      "type": "function"
    },
    {
      "constant": false,
      "inputs": [
        {
          "internalType": "uint256",
          "name": "_tierID",
          "type": "uint256"
        },
        {
          "internalType": "uint256",
          "name": "_remainingTokens",
          "type": "uint256"
        }
      ],
      "name": "setTierTokenAmount",
      "outputs": [],
      "payable": false,
      "stateMutability": "nonpayable",
      "type": "function"
    },
    {
      "constant": false,
      "inputs": [
        {
          "internalType": "uint256",
          "name": "_tierID",
          "type": "uint256"
        },
        {
          "internalType": "uint256",
          "name": "_minAmount",
          "type": "uint256"
        },
        {
          "internalType": "uint256",
          "name": "_maxAmount",
          "type": "uint256"
        }
      ],
      "name": "setTierTokenLimit",
      "outputs": [],
      "payable": false,
      "stateMutability": "nonpayable",
      "type": "function"
    },
    {
      "constant": false,
      "inputs": [
        {
          "internalType": "uint256",
          "name": "_tierID",
          "type": "uint256"
        },
        {
          "internalType": "enum OriginsStorage.VerificationType",
          "name": "_verificationType",
          "type": "uint8"
        }
      ],
      "name": "setTierVerification",
      "outputs": [],
      "payable": false,
      "stateMutability": "nonpayable",
      "type": "function"
    },
    {
      "constant": false,
      "inputs": [
        {
          "internalType": "uint256",
          "name": "_tierID",
          "type": "uint256"
        },
        {
          "internalType": "uint256",
          "name": "_vestOrLockCliff",
          "type": "uint256"
        },
        {
          "internalType": "uint256",
          "name": "_vestOrLockDuration",
          "type": "uint256"
        },
        {
          "internalType": "uint256",
          "name": "_unlockedTokenWithdrawTS",
          "type": "uint256"
        },
        {
          "internalType": "uint256",
          "name": "_unlockedBP",
          "type": "uint256"
        },
        {
          "internalType": "enum OriginsStorage.TransferType",
          "name": "_transferType",
          "type": "uint8"
        }
      ],
      "name": "setTierVestOrLock",
      "outputs": [],
      "payable": false,
      "stateMutability": "nonpayable",
      "type": "function"
    },
    {
      "constant": false,
      "inputs": [
        {
          "internalType": "address",
          "name": "_addressToBeVerified",
          "type": "address"
        },
        {
          "internalType": "uint256[]",
          "name": "_tierID",
          "type": "uint256[]"
        }
      ],
      "name": "singleAddressMultipleTierVerification",
      "outputs": [],
      "payable": false,
      "stateMutability": "nonpayable",
      "type": "function"
    },
    {
      "constant": false,
      "inputs": [],
      "name": "withdrawSaleDeposit",
      "outputs": [],
      "payable": false,
      "stateMutability": "nonpayable",
      "type": "function"
    }
  ],
  "bytecode": "0x60806040523480156200001157600080fd5b506040516200efdf3803806200efdf833981810160405260408110156200003757600080fd5b81019080805160405193929190846401000000008211156200005857600080fd5b838201915060208201858111156200006f57600080fd5b82518660208202830111640100000000821117156200008d57600080fd5b8083526020830192505050908051906020019060200280838360005b83811015620000c6578082015181840152602081019050620000a9565b505050509050016040526020018051906020019092919050505081620001157f6606e9315b5cd322e9e75d0bf66cecde08990782c06ea2b8381c7e80cf52dcbd60001b620008f760201b60201c565b620001497f4d0fe5155d4ddd75c573bf7655c384fa4cc874df6ad11778e96ac71bfe337e6e60001b620008f760201b60201c565b6200017d7f8611bc546acb8292ec57a1e4304b2973826be5e3afc714ae1b44ab062b4bb7e660001b620008f760201b60201c565b600081519050620001b77fddb410b0ccdbea8a2918cb919132015345ccc5d2f515a947c235a5ddd1c01c9360001b620008f760201b60201c565b620001eb7fdd0d46d161926a6c5bd5e1553156c92f44bf76c8b65370f320e301ebd482286b60001b620008f760201b60201c565b60008090505b8181101562000629576200022e7f364139ab54e6661d78b8c726d6103e9d9f3f44056aa0fc51408678e6187f4a7360001b620008f760201b60201c565b620002627f76bc192982e7e255c90ad98bdfb39125f05cc2930e1b4ce525f70d4754c08ede60001b620008f760201b60201c565b620002967f1d71322f4af999fc9d23f397b4979d138f9a8dfc1694197ad817514a3ac0885660001b620008f760201b60201c565b60026000848381518110620002a757fe5b602002602001015173ffffffffffffffffffffffffffffffffffffffff1673ffffffffffffffffffffffffffffffffffffffff16815260200190815260200160002060009054906101000a900460ff16156200034f576040517f08c379a00000000000000000000000000000000000000000000000000000000081526004018080602001828103825260308152602001806200efaf6030913960400191505060405180910390fd5b620003837fe28209ea2edc51b80092bbe3ca5c30f941b2c912c2b8234043ee901ad0355ceb60001b620008f760201b60201c565b620003b77f6d489369ea5090099ca5b857f55429b828c1d919a61895a1705f7bcf23eab97460001b620008f760201b60201c565b620003eb7f436049d09d81151a7f85bb1760cc9b5e905dc10d08ec83ec023022d7eb93721f60001b620008f760201b60201c565b600160026000858481518110620003fe57fe5b602002602001015173ffffffffffffffffffffffffffffffffffffffff1673ffffffffffffffffffffffffffffffffffffffff16815260200190815260200160002060006101000a81548160ff0219169083151502179055506200048b7fb44440019d8b4869c1418dab281e3d340d42465a30e9f77c20d40b3fe436feb860001b620008f760201b60201c565b620004bf7ff20bbb7fcf0915c88e7db8586316903bdcd995db9788a11669c8050e9398a5e060001b620008f760201b60201c565b6000838281518110620004ce57fe5b602002602001015190806001815401808255809150509060018203906000526020600020016000909192909190916101000a81548173ffffffffffffffffffffffffffffffffffffffff021916908373ffffffffffffffffffffffffffffffffffffffff160217905550506200056d7f5096bf0eae835f3e3db50123c33fc6f8ba650bbae2aad89c37815cf8e24afb1760001b620008f760201b60201c565b620005a17fd2cf87d0fb4a1f07db9387a495f8f681dd5016859db5ce8343951ed2c95c4bef60001b620008f760201b60201c565b3373ffffffffffffffffffffffffffffffffffffffff167fc82bdbbf677a2462f2a7e22e4ba9abd209496b69cd7b868b3b1d28f76e09a40a33604051808273ffffffffffffffffffffffffffffffffffffffff1673ffffffffffffffffffffffffffffffffffffffff16815260200191505060405180910390a28080600101915050620001f1565b505050620006607f64375e5cd7423843b1137d84dc5ee15643b0752aa7d7eddd705d266ba393102360001b620008fa60201b60201c565b620006947faf689f34ac246f17fcd59063b1cf929be9f060280f1b820c6890f0bb02e7fbba60001b620008fa60201b60201c565b620006c87fcb3f889ee7ee76e77de6db2fd3cba68ca6cc567c9cefe90fda5afb8f011f978f60001b620008fa60201b60201c565b600073ffffffffffffffffffffffffffffffffffffffff168173ffffffffffffffffffffffffffffffffffffffff1614620008ba57620007317f0415a31c30f22b314fe48917d409dc240521176a492ca71ceeee7b5bb077a3e960001b620008fa60201b60201c565b620007657fc47efb7ab218fc981d3fa74d6410d5841948d001cdfd341fc5954ba8e2adecc560001b620008fa60201b60201c565b620007997fce85838b6e544feb4b5a48f19715a918f24a67344b5f8e76a20355d706ee120660001b620008fa60201b60201c565b80600560006101000a81548173ffffffffffffffffffffffffffffffffffffffff021916908373ffffffffffffffffffffffffffffffffffffffff1602179055506200080e7f0781ea1b0e35ee57bb8cc3dca471f35d519a1dd9d25a70094af0030e0c2e5b5460001b620008fa60201b60201c565b620008427f6fdadf503239be04a657b22e41c6f94475044d8d60e8d354756af84ff12597bb60001b620008fa60201b60201c565b8073ffffffffffffffffffffffffffffffffffffffff16600073ffffffffffffffffffffffffffffffffffffffff163373ffffffffffffffffffffffffffffffffffffffff167faaa05da162537d6c0a2c5e57caf1cb6bea97efc44ce3cda5d269dd2f3b03bc5060405160405180910390a4620008ef565b620008ee7f316a48b4f36146a60f85ebbb639e0241b27d5284462cc6de8634938f9ce1331c60001b620008fa60201b60201c565b5b5050620008fd565b50565b50565b61e6a2806200090d6000396000f3fe6080604052600436106102305760003560e01c80638acb0e6b1161012e578063d1a494f4116100ab578063e0e3671c1161006f578063e0e3671c14610f61578063e87471a514610fca578063ea4ba2fa1461101b578063ee5679751461108b578063fdc704d7146110a257610230565b8063d1a494f414610da9578063d6febde814610de4578063d8c8469514610e1c578063d96e9de314610e57578063dca21bfc14610f2657610230565b8063a935e766116100f2578063a935e76614610b9a578063ab18af2714610c06578063af7cea7d14610c57578063b3ce74c714610ce5578063ca2dfd0a14610d5857610230565b80638acb0e6b1461096c5780638e1ba96214610a125780639000b3d614610aa25780639fa1832514610af3578063a0e67e2b14610b2e57610230565b80632d46d9d9116101bc5780637065cb48116101805780637065cb48146107d957806376d73a761461082a5780637baec6ae146108795780638259ab11146108d4578063836e386d1461091957610230565b80632d46d9d91461066257806343a40e3f1461069d57806365e168d3146106e557806367184e28146107575780636e1b400b1461078257610230565b806315cccf8e1161020357806315cccf8e146104c057806316a628891461051c578063173825d91461056b578063194e1362146105bc57806321df0da71461060b57610230565b80630487e0b21461023557806309d5ff14146102a45780631291e84f1461038e57806312b0d40014610469575b600080fd5b34801561024157600080fd5b5061028e6004803603604081101561025857600080fd5b81019080803573ffffffffffffffffffffffffffffffffffffffff1690602001909291908035906020019092919050505061110b565b6040518082815260200191505060405180910390f35b3480156102b057600080fd5b5061037860048036036101a08110156102c857600080fd5b810190808035906020019092919080359060200190929190803590602001909291908035906020019092919080359060200190929190803590602001909291908035906020019092919080359060200190929190803573ffffffffffffffffffffffffffffffffffffffff169060200190929190803560ff169060200190929190803560ff169060200190929190803560ff169060200190929190803560ff1690602001909291905050506111ea565b6040518082815260200191505060405180910390f35b34801561039a57600080fd5b50610467600480360360408110156103b157600080fd5b81019080803590602001906401000000008111156103ce57600080fd5b8201836020820111156103e057600080fd5b8035906020019184602083028401116401000000008311171561040257600080fd5b90919293919293908035906020019064010000000081111561042357600080fd5b82018360208201111561043557600080fd5b8035906020019184602083028401116401000000008311171561045757600080fd5b9091929391929390505050611705565b005b34801561047557600080fd5b5061047e611b02565b604051808273ffffffffffffffffffffffffffffffffffffffff1673ffffffffffffffffffffffffffffffffffffffff16815260200191505060405180910390f35b3480156104cc57600080fd5b5061051a600480360360808110156104e357600080fd5b81019080803590602001909291908035906020019092919080359060200190929190803560ff169060200190929190505050611bb0565b005b34801561052857600080fd5b506105556004803603602081101561053f57600080fd5b8101908080359060200190929190505050611df0565b6040518082815260200191505060405180910390f35b34801561057757600080fd5b506105ba6004803603602081101561058e57600080fd5b81019080803573ffffffffffffffffffffffffffffffffffffffff169060200190929190505050611e90565b005b3480156105c857600080fd5b506105f5600480360360208110156105df57600080fd5b81019080803590602001909291905050506120ca565b6040518082815260200191505060405180910390f35b34801561061757600080fd5b5061062061216b565b604051808273ffffffffffffffffffffffffffffffffffffffff1673ffffffffffffffffffffffffffffffffffffffff16815260200191505060405180910390f35b34801561066e57600080fd5b5061069b6004803603602081101561068557600080fd5b8101908080359060200190929190505050612219565b005b3480156106a957600080fd5b506106e3600480360360408110156106c057600080fd5b8101908080359060200190929190803560ff16906020019092919050505061221c565b005b3480156106f157600080fd5b506107556004803603608081101561070857600080fd5b810190808035906020019092919080359060200190929190803573ffffffffffffffffffffffffffffffffffffffff169060200190929190803560ff169060200190929190505050612458565b005b34801561076357600080fd5b5061076c612698565b6040518082815260200191505060405180910390f35b34801561078e57600080fd5b50610797612726565b604051808273ffffffffffffffffffffffffffffffffffffffff1673ffffffffffffffffffffffffffffffffffffffff16815260200191505060405180910390f35b3480156107e557600080fd5b50610828600480360360208110156107fc57600080fd5b81019080803573ffffffffffffffffffffffffffffffffffffffff1690602001909291905050506127d4565b005b34801561083657600080fd5b506108776004803603606081101561084d57600080fd5b81019080803590602001909291908035906020019092919080359060200190929190505050612a0e565b005b34801561088557600080fd5b506108d26004803603604081101561089c57600080fd5b81019080803573ffffffffffffffffffffffffffffffffffffffff16906020019092919080359060200190929190505050612c4c565b005b3480156108e057600080fd5b50610917600480360360408110156108f757600080fd5b810190808035906020019092919080359060200190929190505050612e88565b005b34801561092557600080fd5b506109526004803603602081101561093c57600080fd5b81019080803590602001909291905050506130c4565b604051808215151515815260200191505060405180910390f35b34801561097857600080fd5b50610a106004803603604081101561098f57600080fd5b81019080803573ffffffffffffffffffffffffffffffffffffffff169060200190929190803590602001906401000000008111156109cc57600080fd5b8201836020820111156109de57600080fd5b80359060200191846020830284011164010000000083111715610a0057600080fd5b9091929391929390505050613172565b005b348015610a1e57600080fd5b50610aa060048036036040811015610a3557600080fd5b8101908080359060200190640100000000811115610a5257600080fd5b820183602082011115610a6457600080fd5b80359060200191846020830284011164010000000083111715610a8657600080fd5b909192939192939080359060200190929190505050613438565b005b348015610aae57600080fd5b50610af160048036036020811015610ac557600080fd5b81019080803573ffffffffffffffffffffffffffffffffffffffff169060200190929190505050613714565b005b348015610aff57600080fd5b50610b2c60048036036020811015610b1657600080fd5b810190808035906020019092919050505061394e565b005b348015610b3a57600080fd5b50610b43613951565b6040518080602001828103825283818151815260200191508051906020019060200280838360005b83811015610b86578082015181840152602081019050610b6b565b505050509050019250505060405180910390f35b348015610ba657600080fd5b50610baf613a63565b6040518080602001828103825283818151815260200191508051906020019060200280838360005b83811015610bf2578082015181840152602081019050610bd7565b505050509050019250505060405180910390f35b348015610c1257600080fd5b50610c5560048036036020811015610c2957600080fd5b81019080803573ffffffffffffffffffffffffffffffffffffffff169060200190929190505050613b75565b005b348015610c6357600080fd5b50610c9060048036036020811015610c7a57600080fd5b8101908080359060200190929190505050613daf565b604051808b81526020018a81526020018981526020018881526020018781526020018681526020018581526020018481526020018381526020018281526020019a505050505050505050505060405180910390f35b348015610cf157600080fd5b50610d3e60048036036040811015610d0857600080fd5b81019080803573ffffffffffffffffffffffffffffffffffffffff16906020019092919080359060200190929190505050614087565b604051808215151515815260200191505060405180910390f35b348015610d6457600080fd5b50610da760048036036020811015610d7b57600080fd5b81019080803573ffffffffffffffffffffffffffffffffffffffff169060200190929190505050614173565b005b348015610db557600080fd5b50610de260048036036020811015610dcc57600080fd5b81019080803590602001909291905050506143ad565b005b610e1a60048036036040811015610dfa57600080fd5b8101908080359060200190929190803590602001909291905050506143b0565b005b348015610e2857600080fd5b50610e5560048036036020811015610e3f57600080fd5b8101908080359060200190929190505050614442565b005b348015610e6357600080fd5b50610e9060048036036020811015610e7a57600080fd5b8101908080359060200190929190505050614445565b604051808673ffffffffffffffffffffffffffffffffffffffff1673ffffffffffffffffffffffffffffffffffffffff168152602001856001811115610ed257fe5b60ff168152602001846002811115610ee657fe5b60ff168152602001836003811115610efa57fe5b60ff168152602001826004811115610f0e57fe5b60ff1681526020019550505050505060405180910390f35b348015610f3257600080fd5b50610f5f60048036036020811015610f4957600080fd5b81019080803590602001909291905050506146f2565b005b348015610f6d57600080fd5b50610fb060048036036020811015610f8457600080fd5b81019080803573ffffffffffffffffffffffffffffffffffffffff1690602001909291905050506146f5565b604051808215151515815260200191505060405180910390f35b348015610fd657600080fd5b5061101960048036036020811015610fed57600080fd5b81019080803573ffffffffffffffffffffffffffffffffffffffff1690602001909291905050506147cf565b005b34801561102757600080fd5b50611089600480360360c081101561103e57600080fd5b810190808035906020019092919080359060200190929190803590602001909291908035906020019092919080359060200190929190803560ff169060200190929190505050614a09565b005b34801561109757600080fd5b506110a0614c4d565b005b3480156110ae57600080fd5b506110f1600480360360208110156110c557600080fd5b81019080803573ffffffffffffffffffffffffffffffffffffffff169060200190929190505050614cdb565b604051808215151515815260200191505060405180910390f35b60006111397ff95f356390113da9949697b1940b741282a41047ee6a524da66bd2bc3991d55f60001b6143ad565b6111657fceed6f495f3fb222935bf7886330fa5b8d40ad62923cf45af2aaab31e6a7a7ee60001b6143ad565b6111917fa5fe6a08e078c68865f2ae79ddf706b1461305921fa9b614fa811291fd1c49ff60001b6143ad565b600960008473ffffffffffffffffffffffffffffffffffffffff1673ffffffffffffffffffffffffffffffffffffffff168152602001908152602001600020600083815260200190815260200160002054905092915050565b60006112187fdb70c184521cd75c9e7417d5596406c08a2d62925fab72db06294988c46def3260001b6146f2565b6112447f2ded3944ae6d10cdbe9520b16f1348f3eec02a59061f39b47f4fe5bdcbdfa12060001b6146f2565b6112707f69169c6cb637ab27b93740d7a170639a2afe7d6eb90e0b21753f38b3fe1efc9560001b6146f2565b61129c7f6139d42d161240198a22d68d4459aa6ec9f81bdf48f1b818c98c44193631008f60001b6146f2565b600260003373ffffffffffffffffffffffffffffffffffffffff1673ffffffffffffffffffffffffffffffffffffffff16815260200190815260200160002060009054906101000a900460ff1661133e576040517f08c379a000000000000000000000000000000000000000000000000000000000815260040180806020018281038252603081526020018061dfeb6030913960400191505060405180910390fd5b61136a7f2a5e6cbadecac53cb81d4bce0865c4b1f3c577b6725487f4ed023f98975f81e160001b6146f2565b6113967f278d357d53ac6aaa2faecb4fabd3478bbfdb8d74970ed8c408a350ad0799d39060001b6146f2565b6113c27f6b9661cfe4145666108c08d49cc095e7899fd2f8d10f710df531efe4c0b8a1c460001b6143ad565b6113ee7f8833b00d2b4a2590902b94be3ecdac6017e64abc6b60f4827d186ff2cd45db3d60001b6143ad565b60046000815480929190600101919050555061142c7f0113759a83325f9f6e2abe5c989dc175e945e80a027cf4446563aae0c19d851d60001b6143ad565b6114587fef395f4334ecf7add11195b1503869c4df8eff95bb6219e5fd66f468388859dd60001b6143ad565b60045490506114897f1ce98346381735d51548def916e3db2c12830bac6a2df4c2e38cdd35030ba5f160001b6143ad565b6114b57f91d3dea52c36d1824b758fe672088b3c90677d94d0406558fc26cf9f639a483e60001b6143ad565b3373ffffffffffffffffffffffffffffffffffffffff167eff2cad8a1c7cc34ae612e3e9ad82f01ce5763fe04571579810203f1083249b826040518082815260200191505060405180910390a261152e7f1372d95eebf4faf6ae9550551603fbe9fb5abcf4a42e8c205c3d2b91f5709aeb60001b6143ad565b61155a7fbe6de7377e6087a49f8f0ceea5ee2d40fcc7c5d3543f7fa9a96d18055dde5abd60001b6143ad565b6115648185614db5565b6115907fd684e9c1acb35d1b8de7b798bb3767c147dc77b5ee2a0db37d9788833679ca9f60001b6143ad565b6115bc7fcc149f0fe2d8389adfcb5b7964821744229b0db7d8425cb1dd0696d9f15db0f960001b6143ad565b6115c881888888614f30565b6115f47f189adf1f8a59761cc16870f8e1b847c421f7009489cdd079b980f939770d9d6b60001b6143ad565b6116207fdfb28cd97c0643bfb263431cb26e73d4e56bfec868e004718fcb7422b86647eb60001b6143ad565b61162a818f615512565b6116567f9543a9ce4649c688e8a082a2f30f77969f0ba852362e57f935a9ae33f5edfdb360001b6143ad565b6116827f7f7c55df46f61ca1d10e36c6360b2ce91fb724c51a6c998099e037fd15f9da2160001b6143ad565b611690818a8a8e8e8761602d565b6116bc7fb6268ebad9bf0b802db63db9ef5a03ef762e7fe2191d28fd6710f18790bd1b2060001b6143ad565b6116e87f4e0f28087d320fc4990c2527c4d02d503913c3677c0ea014f6932bab3a1bfddc60001b6143ad565b6116f4818e8e866165a2565b9d9c50505050505050505050505050565b6117317f6f72468830371c67cedcd2cecd9abb190bc2af3eb41ed3a8dffb95bb8787594860001b6146f2565b61175d7fbbc8bf5d1591aeb0047cba43a8fefb9c072455b9f1c71afae6c466f8542b6a0060001b6146f2565b6117897f78c7cb04337109b56e7e72941ffa444e38771aa16670e467a5cd8bc6d5850b9460001b6146f2565b6117b57f391c6e97177711bca998eefb5c7ece216de192fb4290eb66cc57c5f036927f1b60001b6146f2565b600360003373ffffffffffffffffffffffffffffffffffffffff1673ffffffffffffffffffffffffffffffffffffffff16815260200190815260200160002060009054906101000a900460ff16611857576040517f08c379a000000000000000000000000000000000000000000000000000000000815260040180806020018281038252603381526020018061e01b6033913960400191505060405180910390fd5b6118837f6d624626aa6f991c52632fd51b72eb3faeb29abb636f8cda197d6c12d33bdd1f60001b6146f2565b6118af7f1dcb3180854ce0312b89c3029244d5eb83825ad3d9f5e1b3f76ad5e424dfcd7360001b6146f2565b6118db7f9efa1c4f33094678dc6d5b61854b0266669a8ea26c73edb5e33ab6a625ba39ed60001b6143ad565b6119077f37469080bbed0cfa814adf66d6eb5f4dd5173f2d07e478ed0d78c69c02c6800060001b6143ad565b6119337f9d3f2b442aae3fd690acaf46f5a667e12e3e7c72370dda73873057b875df4ad360001b6143ad565b61195f7f0ed42e055d2ecc5194ea63d758605de3ba4c4655e8beaaed60f15d7278fc134060001b6143ad565b8181905084849050146119bd576040517f08c379a000000000000000000000000000000000000000000000000000000000815260040180806020018281038252603481526020018061e10f6034913960400191505060405180910390fd5b6119e97fe28ba615be5bffa4c8e5d38edcabe6403ec916ceaf7eb84911ed5bf329d2515e60001b6143ad565b611a157fbcd3c4b1719dd0c0c2ae6b918474dc81368ab5ea1a7324041c5d9e55e08cca9160001b6143ad565b611a417f0b859bb4e1959553ef5fdbe7c9b227a5e7b2f362b92cb1e07a028435f3edff7560001b6143ad565b60008090505b84849050811015611afb57611a7e7fefc6b00e5c1efadc711df8957de1b2700bfe81b3275405d12c3658780b93c32a60001b6143ad565b611aaa7ffaf3aeaf9076815c7373c25637920a67cb7d988a20c967f9613e5432235b172560001b6143ad565b611aee858583818110611ab957fe5b9050602002013573ffffffffffffffffffffffffffffffffffffffff16848484818110611ae257fe5b90506020020135616ce5565b8080600101915050611a47565b5050505050565b6000611b307ff250fb4106da45b8066bde94a6a4fa918a58684a978275e7004029740a01ffce60001b6143ad565b611b5c7fddfeb7fb167b56ea073db84579fbafabad5de8c5b537e360aeb5a80ee5c4d2da60001b6143ad565b611b887f065d6cf404fabcb70aabc8a0be82d8cb5ac9dde9f7dd2112e2b8eb58a60e8fbe60001b6143ad565b600560009054906101000a900473ffffffffffffffffffffffffffffffffffffffff16905090565b611bdc7fdb70c184521cd75c9e7417d5596406c08a2d62925fab72db06294988c46def3260001b6146f2565b611c087f2ded3944ae6d10cdbe9520b16f1348f3eec02a59061f39b47f4fe5bdcbdfa12060001b6146f2565b611c347f69169c6cb637ab27b93740d7a170639a2afe7d6eb90e0b21753f38b3fe1efc9560001b6146f2565b611c607f6139d42d161240198a22d68d4459aa6ec9f81bdf48f1b818c98c44193631008f60001b6146f2565b600260003373ffffffffffffffffffffffffffffffffffffffff1673ffffffffffffffffffffffffffffffffffffffff16815260200190815260200160002060009054906101000a900460ff16611d02576040517f08c379a000000000000000000000000000000000000000000000000000000000815260040180806020018281038252603081526020018061dfeb6030913960400191505060405180910390fd5b611d2e7f2a5e6cbadecac53cb81d4bce0865c4b1f3c577b6725487f4ed023f98975f81e160001b6146f2565b611d5a7f278d357d53ac6aaa2faecb4fabd3478bbfdb8d74970ed8c408a350ad0799d39060001b6146f2565b611d867f0149f83e5c09fe41d5baa192d327cce8e8df54e53304215949b8f33cfd90f57460001b6143ad565b611db27ff72e40643ec7ec6eb31930d5a594c46b7d23cc85856fa6b836eea572c08ab7c160001b6143ad565b611dde7f9529e2b00685ea59961613bd638efc3c7baed24e703e76b6055041481231799960001b6143ad565b611dea848484846165a2565b50505050565b6000611e1e7fd761c6f2cac214b7917e00d69a47127c9f92589762dfb407d0d378723fb22a9d60001b6143ad565b611e4a7f4eedb79c36a42e58ee94547fef467a4e6a7c520b3405838e3ffb28cf04a5e4dd60001b6143ad565b611e757e9a29a22ba445229ba2f451327edbc2ee256f686363bbd15278a5219e85118d60001b6143ad565b600b6000838152602001908152602001600020549050919050565b611ebc7fdb70c184521cd75c9e7417d5596406c08a2d62925fab72db06294988c46def3260001b6146f2565b611ee87f2ded3944ae6d10cdbe9520b16f1348f3eec02a59061f39b47f4fe5bdcbdfa12060001b6146f2565b611f147f69169c6cb637ab27b93740d7a170639a2afe7d6eb90e0b21753f38b3fe1efc9560001b6146f2565b611f407f6139d42d161240198a22d68d4459aa6ec9f81bdf48f1b818c98c44193631008f60001b6146f2565b600260003373ffffffffffffffffffffffffffffffffffffffff1673ffffffffffffffffffffffffffffffffffffffff16815260200190815260200160002060009054906101000a900460ff16611fe2576040517f08c379a000000000000000000000000000000000000000000000000000000000815260040180806020018281038252603081526020018061dfeb6030913960400191505060405180910390fd5b61200e7f2a5e6cbadecac53cb81d4bce0865c4b1f3c577b6725487f4ed023f98975f81e160001b6146f2565b61203a7f278d357d53ac6aaa2faecb4fabd3478bbfdb8d74970ed8c408a350ad0799d39060001b6146f2565b6120667f0e44747b587cb0ce7592cff3df77f645755c5f10eeb3a3aa0ddac17f65b5b18b60001b6146f2565b6120927f538d135c9cc4037a61d553c365a022ce1d01b218c9b4e6687864161a8994013b60001b6146f2565b6120be7fad6e2327c3430532e2391fc71d4270553fb8d051f4b664d870acb608d3e0a81260001b6146f2565b6120c781616fc9565b50565b60006120f87f73f8d38ee2d03f10c8338074464e3dc2118ae9334c851ac34fcf7b60b5221bcd60001b6143ad565b6121247ff8b0c898982141b996348d1498840d79c5958f12f9cdd9cb7461dab14668bfc260001b6143ad565b6121507fb731ff315b4591651a849c4d7c291305e26db10765ed4144ca9b9aa64228e82260001b6143ad565b600a6000838152602001908152602001600020549050919050565b60006121997f3ae3ac9b140e1ca340ab44d2f76b19bec7eee3c6788c7d92befd85b5806aa13a60001b6143ad565b6121c57f2d5182a7e367116b083e493062ad4003212e7c0091095fbb8235bc218f2744dc60001b6143ad565b6121f17f23c7ba278f6ca83f66a22789ff962bfb742f06b3724c6e353fdc89063e146a2960001b6143ad565b600660009054906101000a900473ffffffffffffffffffffffffffffffffffffffff16905090565b50565b6122487fdb70c184521cd75c9e7417d5596406c08a2d62925fab72db06294988c46def3260001b6146f2565b6122747f2ded3944ae6d10cdbe9520b16f1348f3eec02a59061f39b47f4fe5bdcbdfa12060001b6146f2565b6122a07f69169c6cb637ab27b93740d7a170639a2afe7d6eb90e0b21753f38b3fe1efc9560001b6146f2565b6122cc7f6139d42d161240198a22d68d4459aa6ec9f81bdf48f1b818c98c44193631008f60001b6146f2565b600260003373ffffffffffffffffffffffffffffffffffffffff1673ffffffffffffffffffffffffffffffffffffffff16815260200190815260200160002060009054906101000a900460ff1661236e576040517f08c379a000000000000000000000000000000000000000000000000000000000815260040180806020018281038252603081526020018061dfeb6030913960400191505060405180910390fd5b61239a7f2a5e6cbadecac53cb81d4bce0865c4b1f3c577b6725487f4ed023f98975f81e160001b6146f2565b6123c67f278d357d53ac6aaa2faecb4fabd3478bbfdb8d74970ed8c408a350ad0799d39060001b6146f2565b6123f27f03874e6ffa5fe98a062d13b8ea744f5aaa681ff2f5197c3bbad57580417b8b7160001b6143ad565b61241e7f5b26afb9ffeb55e6b5522f6aeac1c61e1c7c077a5aeb107b42adfad3ddab58ac60001b6143ad565b61244a7f4bac114fbc8385f334d62bc98815ccecb4a83a66673f028c15b66f0c6cab144260001b6143ad565b6124548282614db5565b5050565b6124847fdb70c184521cd75c9e7417d5596406c08a2d62925fab72db06294988c46def3260001b6146f2565b6124b07f2ded3944ae6d10cdbe9520b16f1348f3eec02a59061f39b47f4fe5bdcbdfa12060001b6146f2565b6124dc7f69169c6cb637ab27b93740d7a170639a2afe7d6eb90e0b21753f38b3fe1efc9560001b6146f2565b6125087f6139d42d161240198a22d68d4459aa6ec9f81bdf48f1b818c98c44193631008f60001b6146f2565b600260003373ffffffffffffffffffffffffffffffffffffffff1673ffffffffffffffffffffffffffffffffffffffff16815260200190815260200160002060009054906101000a900460ff166125aa576040517f08c379a000000000000000000000000000000000000000000000000000000000815260040180806020018281038252603081526020018061dfeb6030913960400191505060405180910390fd5b6125d67f2a5e6cbadecac53cb81d4bce0865c4b1f3c577b6725487f4ed023f98975f81e160001b6146f2565b6126027f278d357d53ac6aaa2faecb4fabd3478bbfdb8d74970ed8c408a350ad0799d39060001b6146f2565b61262e7fe3dfcc5b5189e5abfa73d307ddea55fb7cfef0f15f2679d14e6c6ec352f921fe60001b6143ad565b61265a7f2a5cc306f40e1f0873c0a1e6fef2e52da9500bd790ef95e0125a286f71b3e02c60001b6143ad565b6126867f04e043a0896a57e6c6f1575cb62916ef540a5b4316ae5a062583b03f313935c260001b6143ad565b61269284848484614f30565b50505050565b60006126c67ff84b99b34260ab143ba1a2002db4556e56878320e9645dc009e5d5e51973aba060001b6143ad565b6126f27f62eceebeb156885d0e295ffe9505ba53988ce1eed8b34cb09667f5758a28d7e560001b6143ad565b61271e7ff358e692aa91d2ba30e2ca2c0469f56f94c71e3f2f36d8522a64d93ece77959960001b6143ad565b600454905090565b60006127547f590b35ea19199ac618d9c7feb5571ca76b4217683165bab79135f56ca5bed80360001b6143ad565b6127807f1366e9b6711f13dc255671dd1b4c9f515a3573f0c730f8241c85556c4209486a60001b6143ad565b6127ac7f83abadf0b52662c6e4bc22e41089d19321a5cc14e680cbb978c16f84d5c5fe6c60001b6143ad565b600760009054906101000a900473ffffffffffffffffffffffffffffffffffffffff16905090565b6128007fdb70c184521cd75c9e7417d5596406c08a2d62925fab72db06294988c46def3260001b6146f2565b61282c7f2ded3944ae6d10cdbe9520b16f1348f3eec02a59061f39b47f4fe5bdcbdfa12060001b6146f2565b6128587f69169c6cb637ab27b93740d7a170639a2afe7d6eb90e0b21753f38b3fe1efc9560001b6146f2565b6128847f6139d42d161240198a22d68d4459aa6ec9f81bdf48f1b818c98c44193631008f60001b6146f2565b600260003373ffffffffffffffffffffffffffffffffffffffff1673ffffffffffffffffffffffffffffffffffffffff16815260200190815260200160002060009054906101000a900460ff16612926576040517f08c379a000000000000000000000000000000000000000000000000000000000815260040180806020018281038252603081526020018061dfeb6030913960400191505060405180910390fd5b6129527f2a5e6cbadecac53cb81d4bce0865c4b1f3c577b6725487f4ed023f98975f81e160001b6146f2565b61297e7f278d357d53ac6aaa2faecb4fabd3478bbfdb8d74970ed8c408a350ad0799d39060001b6146f2565b6129aa7fafcb0b4f682c50a9679687cd57fb195565d3b3594cec41e61652d70bb7a9797360001b6146f2565b6129d67f1044e613c1c3d7cc5b42b22374c3d222c8151549a65f809328dc5e6291659a2a60001b6146f2565b612a027ffc4b144d7908223b9fd317ce3643b657d8063803df44b93493003820111a195a60001b6146f2565b612a0b8161766e565b50565b612a3a7fdb70c184521cd75c9e7417d5596406c08a2d62925fab72db06294988c46def3260001b6146f2565b612a667f2ded3944ae6d10cdbe9520b16f1348f3eec02a59061f39b47f4fe5bdcbdfa12060001b6146f2565b612a927f69169c6cb637ab27b93740d7a170639a2afe7d6eb90e0b21753f38b3fe1efc9560001b6146f2565b612abe7f6139d42d161240198a22d68d4459aa6ec9f81bdf48f1b818c98c44193631008f60001b6146f2565b600260003373ffffffffffffffffffffffffffffffffffffffff1673ffffffffffffffffffffffffffffffffffffffff16815260200190815260200160002060009054906101000a900460ff16612b60576040517f08c379a000000000000000000000000000000000000000000000000000000000815260040180806020018281038252603081526020018061dfeb6030913960400191505060405180910390fd5b612b8c7f2a5e6cbadecac53cb81d4bce0865c4b1f3c577b6725487f4ed023f98975f81e160001b6146f2565b612bb87f278d357d53ac6aaa2faecb4fabd3478bbfdb8d74970ed8c408a350ad0799d39060001b6146f2565b612be47f058b7cc1e32d92b658f81d197d0fa3a6315ff52fa3766fc235cdd6184aeaf6bb60001b6143ad565b612c107f4bbc365d77f708c101238713d1389549b9fca1c939a50fbd26688686651536d060001b6143ad565b612c3c7f156c58f60604d237776fdd592b3a5d5106d7264c6b1df17fdc1cafe6fd436e7660001b6143ad565b612c47838383617b83565b505050565b612c787f6f72468830371c67cedcd2cecd9abb190bc2af3eb41ed3a8dffb95bb8787594860001b6146f2565b612ca47fbbc8bf5d1591aeb0047cba43a8fefb9c072455b9f1c71afae6c466f8542b6a0060001b6146f2565b612cd07f78c7cb04337109b56e7e72941ffa444e38771aa16670e467a5cd8bc6d5850b9460001b6146f2565b612cfc7f391c6e97177711bca998eefb5c7ece216de192fb4290eb66cc57c5f036927f1b60001b6146f2565b600360003373ffffffffffffffffffffffffffffffffffffffff1673ffffffffffffffffffffffffffffffffffffffff16815260200190815260200160002060009054906101000a900460ff16612d9e576040517f08c379a000000000000000000000000000000000000000000000000000000000815260040180806020018281038252603381526020018061e01b6033913960400191505060405180910390fd5b612dca7f6d624626aa6f991c52632fd51b72eb3faeb29abb636f8cda197d6c12d33bdd1f60001b6146f2565b612df67f1dcb3180854ce0312b89c3029244d5eb83825ad3d9f5e1b3f76ad5e424dfcd7360001b6146f2565b612e227f365ddb943024ef7fbffec94f1ec31ca43322aaa115f40bff1879e034ae5d399d60001b6143ad565b612e4e7fd5a18db95fb4d6eb8e6f7df8fd781832bf8d93cad15393f48207ca45d27e095e60001b6143ad565b612e7a7fdf3532a1113d5a3b2e6cd389aef8b24c97a5016a6f46ecf36aee0e60017958aa60001b6143ad565b612e848282616ce5565b5050565b612eb47fdb70c184521cd75c9e7417d5596406c08a2d62925fab72db06294988c46def3260001b6146f2565b612ee07f2ded3944ae6d10cdbe9520b16f1348f3eec02a59061f39b47f4fe5bdcbdfa12060001b6146f2565b612f0c7f69169c6cb637ab27b93740d7a170639a2afe7d6eb90e0b21753f38b3fe1efc9560001b6146f2565b612f387f6139d42d161240198a22d68d4459aa6ec9f81bdf48f1b818c98c44193631008f60001b6146f2565b600260003373ffffffffffffffffffffffffffffffffffffffff1673ffffffffffffffffffffffffffffffffffffffff16815260200190815260200160002060009054906101000a900460ff16612fda576040517f08c379a000000000000000000000000000000000000000000000000000000000815260040180806020018281038252603081526020018061dfeb6030913960400191505060405180910390fd5b6130067f2a5e6cbadecac53cb81d4bce0865c4b1f3c577b6725487f4ed023f98975f81e160001b6146f2565b6130327f278d357d53ac6aaa2faecb4fabd3478bbfdb8d74970ed8c408a350ad0799d39060001b6146f2565b61305e7ffa544545449131d5912ef311088e3d688f1f81c5aca54dca7bd178d77c7c736660001b6143ad565b61308a7f6ba150ce46fe01575d927263b4c4bac99de30926f52d71fd618239c7014a6e8860001b6143ad565b6130b67f0424dba2aa9324f4a4b86f4b373bcb5abc521061fe9c7cc37664970751cd0fdc60001b6143ad565b6130c08282615512565b5050565b60006130f27f7603f4cc7eed5aea26c8363aae808228050de4a1df7313c6e816cbdd5cb707be60001b6143ad565b61311e7f581f876caee8a1d16cfb1d2b0eeb4066d220ad66d031ace5d7fb1a6986cc168a60001b6143ad565b61314a7f70ebfddc39a6e980574278522e377c07bf10df50e1dfb83090fd786dfe5be09760001b6143ad565b600c600083815260200190815260200160002060009054906101000a900460ff169050919050565b61319e7f6f72468830371c67cedcd2cecd9abb190bc2af3eb41ed3a8dffb95bb8787594860001b6146f2565b6131ca7fbbc8bf5d1591aeb0047cba43a8fefb9c072455b9f1c71afae6c466f8542b6a0060001b6146f2565b6131f67f78c7cb04337109b56e7e72941ffa444e38771aa16670e467a5cd8bc6d5850b9460001b6146f2565b6132227f391c6e97177711bca998eefb5c7ece216de192fb4290eb66cc57c5f036927f1b60001b6146f2565b600360003373ffffffffffffffffffffffffffffffffffffffff1673ffffffffffffffffffffffffffffffffffffffff16815260200190815260200160002060009054906101000a900460ff166132c4576040517f08c379a000000000000000000000000000000000000000000000000000000000815260040180806020018281038252603381526020018061e01b6033913960400191505060405180910390fd5b6132f07f6d624626aa6f991c52632fd51b72eb3faeb29abb636f8cda197d6c12d33bdd1f60001b6146f2565b61331c7f1dcb3180854ce0312b89c3029244d5eb83825ad3d9f5e1b3f76ad5e424dfcd7360001b6146f2565b6133487ff0165474b2d676fea0b8023064cf7421d1272f4919b87d871eda274681c4ed5c60001b6143ad565b6133747f15b42621139ada08336951eba2f041f2cc3ebcaa539d2a13f87329a8d7d6b45960001b6143ad565b6133a07f0894d12fe48c69e5bd5ecb1dd45590a9e1e97f03743be95a97f9a1a6ac3aaa5160001b6143ad565b60008090505b82829050811015613432576133dd7f86f852a70d408d4a2f186f3c923eaa78cc9d6cbd42657492ed1a9e6edfabb16960001b6143ad565b6134097f664a28c3c931dfc99c22d2ca503fc214685e19f7a6f4eef328f35d06b432ad6260001b6143ad565b6134258484848481811061341957fe5b90506020020135616ce5565b80806001019150506133a6565b50505050565b6134647f6f72468830371c67cedcd2cecd9abb190bc2af3eb41ed3a8dffb95bb8787594860001b6146f2565b6134907fbbc8bf5d1591aeb0047cba43a8fefb9c072455b9f1c71afae6c466f8542b6a0060001b6146f2565b6134bc7f78c7cb04337109b56e7e72941ffa444e38771aa16670e467a5cd8bc6d5850b9460001b6146f2565b6134e87f391c6e97177711bca998eefb5c7ece216de192fb4290eb66cc57c5f036927f1b60001b6146f2565b600360003373ffffffffffffffffffffffffffffffffffffffff1673ffffffffffffffffffffffffffffffffffffffff16815260200190815260200160002060009054906101000a900460ff1661358a576040517f08c379a000000000000000000000000000000000000000000000000000000000815260040180806020018281038252603381526020018061e01b6033913960400191505060405180910390fd5b6135b67f6d624626aa6f991c52632fd51b72eb3faeb29abb636f8cda197d6c12d33bdd1f60001b6146f2565b6135e27f1dcb3180854ce0312b89c3029244d5eb83825ad3d9f5e1b3f76ad5e424dfcd7360001b6146f2565b61360e7ff9afe9483ad45314c1f9334d19579a96e2ced1bfaa29927b11048af7c43f747460001b6143ad565b61363a7f56f19aeb9abc0578ab8355d3bf3c2995ffbc732cf2888b835db28c76406a378960001b6143ad565b6136667f587bf7ffa332928533e0732161cd434483e7c1232a30656d658364c71310c93260001b6143ad565b60008090505b8383905081101561370e576136a37f43404884baef5c6f58bf4186141b647b0f7643199b28bc515a5cf75127f2592660001b6143ad565b6136cf7f8733fd543eed7949dc81ceb8e7f3cc4d9ebef97e59999d0e6181f70672b219de60001b6143ad565b6137018484838181106136de57fe5b9050602002013573ffffffffffffffffffffffffffffffffffffffff1683616ce5565b808060010191505061366c565b50505050565b6137407fdb70c184521cd75c9e7417d5596406c08a2d62925fab72db06294988c46def3260001b6146f2565b61376c7f2ded3944ae6d10cdbe9520b16f1348f3eec02a59061f39b47f4fe5bdcbdfa12060001b6146f2565b6137987f69169c6cb637ab27b93740d7a170639a2afe7d6eb90e0b21753f38b3fe1efc9560001b6146f2565b6137c47f6139d42d161240198a22d68d4459aa6ec9f81bdf48f1b818c98c44193631008f60001b6146f2565b600260003373ffffffffffffffffffffffffffffffffffffffff1673ffffffffffffffffffffffffffffffffffffffff16815260200190815260200160002060009054906101000a900460ff16613866576040517f08c379a000000000000000000000000000000000000000000000000000000000815260040180806020018281038252603081526020018061dfeb6030913960400191505060405180910390fd5b6138927f2a5e6cbadecac53cb81d4bce0865c4b1f3c577b6725487f4ed023f98975f81e160001b6146f2565b6138be7f278d357d53ac6aaa2faecb4fabd3478bbfdb8d74970ed8c408a350ad0799d39060001b6146f2565b6138ea7f5fceccf80f991d1a72d8282836518ae01c2f8c5f7b370385d7f1f56e93e49e6d60001b6146f2565b6139167ffc15d1b5d4b2aa6b36a36f4aa2415983c696e5f2faf3aa4fa7bfd6790e00635f60001b6146f2565b6139427fe1f2ad91109a6da48347f79de13c9e0b5c9146ac5743cf02594a0b249d88013360001b6146f2565b61394b81617e59565b50565b50565b606061397f7fdee10534b67278fca285b5798f07e3aee921e04ea89b6427272f1c6d6bd2f07260001b6146f2565b6139ab7f3322398ce67959ada7f766b6e33744c7138512194c5f473b04cdef087872bd8560001b6146f2565b6139d77ffcf826e84f2f086c38453fef179ab177aeb6adabb1238ea14a8a0037d3a7bef560001b6146f2565b6000805480602002602001604051908101604052809291908181526020018280548015613a5957602002820191906000526020600020905b8160009054906101000a900473ffffffffffffffffffffffffffffffffffffffff1673ffffffffffffffffffffffffffffffffffffffff1681526020019060010190808311613a0f575b5050505050905090565b6060613a917f1968df1ae1af4ccf2947ce153fb93b718eaf164c8d31064c2ab9fe17f7ab787f60001b6146f2565b613abd7ff6485d61a14d2ce81eda90d0faf17bfe09fa1f03b3b9d25da0c56e10d29b358a60001b6146f2565b613ae97fce84cd58e76472fb9aafbae1c6be70596e5c3c548848cff1bcf4ae4c5a8d463060001b6146f2565b6001805480602002602001604051908101604052809291908181526020018280548015613b6b57602002820191906000526020600020905b8160009054906101000a900473ffffffffffffffffffffffffffffffffffffffff1673ffffffffffffffffffffffffffffffffffffffff1681526020019060010190808311613b21575b5050505050905090565b613ba17fdb70c184521cd75c9e7417d5596406c08a2d62925fab72db06294988c46def3260001b6146f2565b613bcd7f2ded3944ae6d10cdbe9520b16f1348f3eec02a59061f39b47f4fe5bdcbdfa12060001b6146f2565b613bf97f69169c6cb637ab27b93740d7a170639a2afe7d6eb90e0b21753f38b3fe1efc9560001b6146f2565b613c257f6139d42d161240198a22d68d4459aa6ec9f81bdf48f1b818c98c44193631008f60001b6146f2565b600260003373ffffffffffffffffffffffffffffffffffffffff1673ffffffffffffffffffffffffffffffffffffffff16815260200190815260200160002060009054906101000a900460ff16613cc7576040517f08c379a000000000000000000000000000000000000000000000000000000000815260040180806020018281038252603081526020018061dfeb6030913960400191505060405180910390fd5b613cf37f2a5e6cbadecac53cb81d4bce0865c4b1f3c577b6725487f4ed023f98975f81e160001b6146f2565b613d1f7f278d357d53ac6aaa2faecb4fabd3478bbfdb8d74970ed8c408a350ad0799d39060001b6146f2565b613d4b7f84e280d8ef73d617ad191175570656211211680af5d3af1916b8c3b74eb87d2660001b6143ad565b613d777fa9fce485d82159126ba460fccbeb5fe1d1bc03805210cc687e57a255b73b2add60001b6143ad565b613da37f6eca83d9083e75e2a3f7b8114af75f8eb6b8bf2d085643556ef15c64f15917fc60001b6143ad565b613dac8161836d565b50565b600080600080600080600080600080613dea7fc01bbac0be84aa1b4c0c25b6337e23c4de47459c73aefa21948938538902b61160001b6143ad565b613e167fb7dba9c95b85da3742679e5a15c844fdcec126e421b9bcc04dd5c3b6b883400b60001b6143ad565b613e427f5c949520df6e4d45be0a34078ee2b75af4f840f65a2bf029394ac650d583964760001b6143ad565b613e4a61df32565b600860008d8152602001908152602001600020604051806101e001604052908160008201548152602001600182015481526020016002820154815260200160038201548152602001600482015481526020016005820154815260200160068201548152602001600782015481526020016008820154815260200160098201548152602001600a820160009054906101000a900473ffffffffffffffffffffffffffffffffffffffff1673ffffffffffffffffffffffffffffffffffffffff1673ffffffffffffffffffffffffffffffffffffffff168152602001600a820160149054906101000a900460ff166001811115613f4157fe5b6001811115613f4c57fe5b8152602001600a820160159054906101000a900460ff166002811115613f6e57fe5b6002811115613f7957fe5b8152602001600a820160169054906101000a900460ff166003811115613f9b57fe5b6003811115613fa657fe5b8152602001600a820160179054906101000a900460ff166004811115613fc857fe5b6004811115613fd357fe5b8152505090506140057f5641371c260632485a2c7951a3426b4c6a09489acdf2b75b5ba946bc273652a460001b6143ad565b6140317f21b357d9716b44f55edbadcf761d797b3ff4ae625af2d0036ebd00efe356313f60001b6143ad565b806000015181602001518260400151836060015184608001518560a001518660c001518760e001518861010001518961012001519a509a509a509a509a509a509a509a509a509a50509193959799509193959799565b60006140b57f2f044751597a5a8448dd0fec10b4a9ecf1cca91ec39a079f3c61189918a3c9f060001b6143ad565b6140e17f4d65a25251c4d8d187eb2dc7e740fba5892d2f0e718119819bc1fea1a96f520760001b6143ad565b61410d7ffd4ec04f3a327bdc8303ec93b58ba2293ee7c5d05d4f7bfa667a037eec01d37a60001b6143ad565b600d60008473ffffffffffffffffffffffffffffffffffffffff1673ffffffffffffffffffffffffffffffffffffffff168152602001908152602001600020600083815260200190815260200160002060009054906101000a900460ff16905092915050565b61419f7fdb70c184521cd75c9e7417d5596406c08a2d62925fab72db06294988c46def3260001b6146f2565b6141cb7f2ded3944ae6d10cdbe9520b16f1348f3eec02a59061f39b47f4fe5bdcbdfa12060001b6146f2565b6141f77f69169c6cb637ab27b93740d7a170639a2afe7d6eb90e0b21753f38b3fe1efc9560001b6146f2565b6142237f6139d42d161240198a22d68d4459aa6ec9f81bdf48f1b818c98c44193631008f60001b6146f2565b600260003373ffffffffffffffffffffffffffffffffffffffff1673ffffffffffffffffffffffffffffffffffffffff16815260200190815260200160002060009054906101000a900460ff166142c5576040517f08c379a000000000000000000000000000000000000000000000000000000000815260040180806020018281038252603081526020018061dfeb6030913960400191505060405180910390fd5b6142f17f2a5e6cbadecac53cb81d4bce0865c4b1f3c577b6725487f4ed023f98975f81e160001b6146f2565b61431d7f278d357d53ac6aaa2faecb4fabd3478bbfdb8d74970ed8c408a350ad0799d39060001b6146f2565b6143497fd72986c3c44c1d5ac88f2d9a620526767054d36ed01780fd7c5bd0abd034856660001b6146f2565b6143757f40f644c9aeac123922ec2c6c0c1e9c9d0674d611148b2dfa40b21d14dc9ef47a60001b6146f2565b6143a17f2af20acfe5b44ee8182e2b6cf4952a0c410c0f34bc2d107cd97898a913719ad360001b6146f2565b6143aa81618656565b50565b50565b6143dc7f9b67cb87edbf1b285a4456858f5ea43f9e90c6789ee561a38eec036e8c96a0e160001b6143ad565b6144087fa6f73ea1122a2d55f48cc65aab356fa301c628597d16685bda7145fdc83c755e60001b6143ad565b6144347fcad0c443ceabd51e9e352e7a9e23a1cb40f79b7e4ebf8ac36451e630661d1bf060001b6143ad565b61443e8282618cfb565b5050565b50565b60008060008060006144797fd80e4b0e704aaee7c2cd219cbaaee88c199983cfe317dd565857686bd95f29e360001b6143ad565b6144a57f6089b93f6e3be32640c6d4a4770dad763dcefc1aafb87a192de84fdd8e58731060001b6143ad565b6144d17f30c7ea5e12414c1160c3fe174172fe7df1c6c09cac2ebdb3b7acf1eac62d522e60001b6143ad565b6144d961df32565b60086000888152602001908152602001600020604051806101e001604052908160008201548152602001600182015481526020016002820154815260200160038201548152602001600482015481526020016005820154815260200160068201548152602001600782015481526020016008820154815260200160098201548152602001600a820160009054906101000a900473ffffffffffffffffffffffffffffffffffffffff1673ffffffffffffffffffffffffffffffffffffffff1673ffffffffffffffffffffffffffffffffffffffff168152602001600a820160149054906101000a900460ff1660018111156145d057fe5b60018111156145db57fe5b8152602001600a820160159054906101000a900460ff1660028111156145fd57fe5b600281111561460857fe5b8152602001600a820160169054906101000a900460ff16600381111561462a57fe5b600381111561463557fe5b8152602001600a820160179054906101000a900460ff16600481111561465757fe5b600481111561466257fe5b8152505090506146947f6742e5a3c901e3f7ef457c846a4d3051aaf0a89b197c4df74ba31329f8e3dd7460001b6143ad565b6146c07f19db536cb0b2f2a9d64756c54dca130ce01b38d4288670ab3a84c4eaa2cb38e460001b6143ad565b806101400151816101600151826101800151836101a00151846101c00151955095509550955095505091939590929450565b50565b60006147237f577effea934a13eb763bd5030eabed77904faf301d881602f42a6ebcbc7a604e60001b6146f2565b61474f7fbb81baaea4c4b28bbc1d13dff27dbf9353fd16a0e3e36f65902214241e42cba160001b6146f2565b61477b7fe9518f1e53d0e620902d55c987d198a69cd18409929e43b6e296336ef0d6cd2b60001b6146f2565b600260008373ffffffffffffffffffffffffffffffffffffffff1673ffffffffffffffffffffffffffffffffffffffff16815260200190815260200160002060009054906101000a900460ff169050919050565b6147fb7fdb70c184521cd75c9e7417d5596406c08a2d62925fab72db06294988c46def3260001b6146f2565b6148277f2ded3944ae6d10cdbe9520b16f1348f3eec02a59061f39b47f4fe5bdcbdfa12060001b6146f2565b6148537f69169c6cb637ab27b93740d7a170639a2afe7d6eb90e0b21753f38b3fe1efc9560001b6146f2565b61487f7f6139d42d161240198a22d68d4459aa6ec9f81bdf48f1b818c98c44193631008f60001b6146f2565b600260003373ffffffffffffffffffffffffffffffffffffffff1673ffffffffffffffffffffffffffffffffffffffff16815260200190815260200160002060009054906101000a900460ff16614921576040517f08c379a000000000000000000000000000000000000000000000000000000000815260040180806020018281038252603081526020018061dfeb6030913960400191505060405180910390fd5b61494d7f2a5e6cbadecac53cb81d4bce0865c4b1f3c577b6725487f4ed023f98975f81e160001b6146f2565b6149797f278d357d53ac6aaa2faecb4fabd3478bbfdb8d74970ed8c408a350ad0799d39060001b6146f2565b6149a57f280f52310c9e33d58dd6e79b5c5912f6ca3c1a6010de72db583c6e062ac6ab1e60001b6143ad565b6149d17fe7d5b593d9ac6c31bc17718c4b09566aa6a5af305ad74a2caabab76be5277c9960001b6143ad565b6149fd7fc188440d869dff5854f9333235a3985cec8135ac8ca9318939e51297ac26cf6d60001b6143ad565b614a068161a604565b50565b614a357fdb70c184521cd75c9e7417d5596406c08a2d62925fab72db06294988c46def3260001b6146f2565b614a617f2ded3944ae6d10cdbe9520b16f1348f3eec02a59061f39b47f4fe5bdcbdfa12060001b6146f2565b614a8d7f69169c6cb637ab27b93740d7a170639a2afe7d6eb90e0b21753f38b3fe1efc9560001b6146f2565b614ab97f6139d42d161240198a22d68d4459aa6ec9f81bdf48f1b818c98c44193631008f60001b6146f2565b600260003373ffffffffffffffffffffffffffffffffffffffff1673ffffffffffffffffffffffffffffffffffffffff16815260200190815260200160002060009054906101000a900460ff16614b5b576040517f08c379a000000000000000000000000000000000000000000000000000000000815260040180806020018281038252603081526020018061dfeb6030913960400191505060405180910390fd5b614b877f2a5e6cbadecac53cb81d4bce0865c4b1f3c577b6725487f4ed023f98975f81e160001b6146f2565b614bb37f278d357d53ac6aaa2faecb4fabd3478bbfdb8d74970ed8c408a350ad0799d39060001b6146f2565b614bdf7fd7f3982298842262d0d3835371f6fcdc4721cf1cd25fca10020262f34be4575f60001b6143ad565b614c0b7fa4e3936f8772243a55f290a79ac7ed71d75f7591187eeb1847d6894e4b4490d660001b6143ad565b614c377f9dcd50b588f14a22d2a0b7c2fff5fa644b92b6aaeecccd0cc5758dc03d7cec3a60001b6143ad565b614c4586868686868661602d565b505050505050565b614c797f644bc30d71a91056913103fb286c5d6e6878e22b12367a33e25983338dcb38c860001b6143ad565b614ca57f2aad60e99f98d7f7f01fc23e07d033d9cc942df38e24a572840b7a0b6106275060001b6143ad565b614cd17f5fdd58e066d9996a13b91c1a64ac7eb4856857717dfd8a7f86dc4f178e25d98460001b6143ad565b614cd961a8ed565b565b6000614d097fa6c21053ff12ef2ea63fc3b7fceffb89314837d2895efacb436d990ee35a401f60001b6146f2565b614d357fdcd08d0c75c64b5d345be711b358e160e369fc901a89d7273809705290673d3b60001b6146f2565b614d617fcaa3ecc68ee1fee4e69069f97e1ae9751fa89bd0701e64f90f31339b236e31bc60001b6146f2565b600360008373ffffffffffffffffffffffffffffffffffffffff1673ffffffffffffffffffffffffffffffffffffffff16815260200190815260200160002060009054906101000a900460ff169050919050565b614de17f122ea7a04be238890d39ee4c39f677a9666b21467340f1e07775d72cb6a07bb060001b6143ad565b614e0d7ff100e2a0ec6c680fb31ea22c3a4d3629e3f3e6aed96113545d1ea6bb3e51ea6960001b6143ad565b614e397fb764663b6d601a47c295bb8a5c3b6b2d1daeccc53154317063356b7ff119d0fa60001b6143ad565b8060086000848152602001908152602001600020600a0160156101000a81548160ff02191690836002811115614e6b57fe5b0217905550614e9c7f38249e063d3fcbe5a090acd69e3a382cc22138be031696cba2ee8c2ba9952c5b60001b6143ad565b614ec87fc28fcabc3e7c13c11dd1172edbd0946cf5e2adf9af6e80a317bed0ecb3244f0260001b6143ad565b3373ffffffffffffffffffffffffffffffffffffffff167f30b04dd4504dbbe9129435f5a8860fb1566ebd3ee87bbb321b2f0b2f66a48237838360405180838152602001826002811115614f1857fe5b60ff1681526020019250505060405180910390a25050565b614f5c7fed825f7b8c3c3e45d4dc2a5e87727343bacea9b0dc423bf3e4933bc55d4c37fd60001b6143ad565b614f887f957384c62aadad73377cc12f84f2ee8c89109c3e3b9a54c1ce0165ec0a6fd8d360001b6143ad565b614fb47f7205092310434b6fa9e4421b4bc973d467cd548a3892d32957db2355a0d1861960001b6143ad565b614fe07f1d48333a6d44118dba2f520bbc90b7e02f5ea59ac1880892ebac8d0bede1950860001b6143ad565b60008311615039576040517f08c379a000000000000000000000000000000000000000000000000000000000815260040180806020018281038252602981526020018061e5376029913960400191505060405180910390fd5b6150657f6965ad8b98a3980648e61404cf417a35be7c22e98813e4ab90bba22d2ea0e88660001b6143ad565b6150917f20626e8269ed4379993d00982ad0c119605bb3fce32dc3d16b7764a05e491c9c60001b6143ad565b6150bd7f9c2a4d1fbc32ce38423e051cd0f7bbe7537e93e14c41ad89bff97eee1ca2d8c260001b6143ad565b6001808111156150c957fe5b8160018111156150d557fe5b1415615242576151077f9d9461bf08bf1860ec22910d1379c0eb90197d02012729d80948f236697023ce60001b6143ad565b6151337febaeaee198eecbc5805ed14a9b78445bce0ccb6a0e6a35531f22485f4fc6789c60001b6143ad565b61515f7f475276f08bca14e4c443497a6ffbfe9173163e863f6243a805a5f647c72ac9a260001b6143ad565b61518b7fdf51ae266c48f787523a341ff3998b7f0b0574e36ef3dd9d8c29a889b31b00fc60001b6143ad565b600073ffffffffffffffffffffffffffffffffffffffff168273ffffffffffffffffffffffffffffffffffffffff161415615211576040517f08c379a000000000000000000000000000000000000000000000000000000000815260040180806020018281038252603281526020018061e3816032913960400191505060405180910390fd5b61523d7f913541607e5e91b55cb4f16c76f9709825a60bf8462d8157441f05c4ca683a7a60001b6143ad565b61526f565b61526e7fda7ec91a637265ac8ad552d49b46c26151ef524b53f3ff6142fa491b021475ea60001b6143ad565b5b61529b7f37ddc9d8edfb9dc8d127301bfaa8f8a7b92a2b2bf7ca3c91b3a2ff98b6f2576b60001b6143ad565b6152c77f5ff071b7ffb5f7b797d0727331ae2ac7fafb2a1d5a825dcefaccff8dbfe3b55760001b6143ad565b82600860008681526020019081526020016000206009018190555061530e7f820749fd9dfc5d609160a592b32465f604d5db316d7563f0fec45bd708ccbd6160001b6143ad565b61533a7fba1497d331880b69f12f955cf4ce7fc0789133a27d38f60a44466b15ae9bd86c60001b6143ad565b8160086000868152602001908152602001600020600a0160006101000a81548173ffffffffffffffffffffffffffffffffffffffff021916908373ffffffffffffffffffffffffffffffffffffffff1602179055506153bb7f314c295ffccf2302820d9eb9445dec802a5236dd4bbb455979e07beaf34b02f260001b6143ad565b6153e77f34b4f7591745b98e34e0e3b956487264be036d70bd839ca7f338348e2304812760001b6143ad565b8060086000868152602001908152602001600020600a0160146101000a81548160ff0219169083600181111561541957fe5b021790555061544a7f671d523b8e46684621413dd52501073b7e8ce6f2d98e834aa3773ab9d09c787d60001b6143ad565b6154767f0da0b1dc0de98497f9b9e2bf8aa3dd60c8f0ed970bc5762ddc6d64bfdafd7e5060001b6143ad565b80600181111561548257fe5b3373ffffffffffffffffffffffffffffffffffffffff167f882910ddbf58df55bfdd81c1aecf9309fc1b7d7ec4129febe054a19bcba2bca7868686604051808481526020018381526020018273ffffffffffffffffffffffffffffffffffffffff1673ffffffffffffffffffffffffffffffffffffffff168152602001935050505060405180910390a350505050565b61553e7fecf230a40b2be638a67a3e016d54ca00407285c0b7f8a3ba088fa1db26cac54860001b6143ad565b61556a7f5418af54dea59d6595ce4cb67334ab548f2d9c5ded7361b9d0d52645a8847f0f60001b6143ad565b6155967f7ae85ccb8188cfddd17704600cb3a6f9b3c16d2ef9147611cbd5a567481aacd660001b6143ad565b6155c27f81d10b8cab60a2eb1a0fbe2e22b59ffacbdac6176edb45ea268f108c1693a5bc60001b6143ad565b6000811161561b576040517f08c379a000000000000000000000000000000000000000000000000000000000815260040180806020018281038252603c81526020018061e143603c913960400191505060405180910390fd5b6156477f09126acdc05e46c873e67eef6d04e822d425716cd48f9c404f42eb1f3d46510060001b6143ad565b6156737f4aeeacf647acd63f3619510bfe4618937a93c9ed97792af8f06ad0b42f6a228060001b6143ad565b61569f7f3e11dbac7f5898421cc76adf88343ef3e8cfe89aefe8947c11abb5a55feffc2560001b6143ad565b6156cb7f011ff70e219f3659e8233d7fd1a43d2aa313097d6bb53f3584df5d74c9bd73cf60001b6143ad565b8061570b6008600085815260200190815260200160002060090154600860008681526020019081526020016000206001015461b2f390919063ffffffff16565b1115615762576040517f08c379a000000000000000000000000000000000000000000000000000000000815260040180806020018281038252604c81526020018061e59a604c913960600191505060405180910390fd5b61578e7f95721c738e1ac2429459c3c29d52119c26359a27b9973efa3ff7930b2a49986f60001b6143ad565b6157ba7f8b90a97ee96e24819c66f2609d987c5644d2aeb79aca2c428846d0b4b3379edf60001b6143ad565b6157e67f4be3435a0df75f0492865b6be1ebceade299cef1c224f3d5ca03b0de4c5338b860001b6143ad565b6000600660009054906101000a900473ffffffffffffffffffffffffffffffffffffffff1673ffffffffffffffffffffffffffffffffffffffff166370a08231306040518263ffffffff1660e01b8152600401808273ffffffffffffffffffffffffffffffffffffffff1673ffffffffffffffffffffffffffffffffffffffff16815260200191505060206040518083038186803b15801561588757600080fd5b505afa15801561589b573d6000803e3d6000fd5b505050506040513d60208110156158b157600080fd5b810190808051906020019092919050505090506158f07f2fdfc0ab65d3e49424cb0ba1e5d7b87c617e2544d18897855394a0352cb0a24a60001b6143ad565b61591c7fa1cc7ddd437aaeb2d9ab7f1526fb9fb6cd85b09030d4027e7604bf44613020b060001b6143ad565b600061596060086000868152602001908152602001600020600201546159528561594461b60d565b61b73790919063ffffffff16565b61b94c90919063ffffffff16565b905061598e7f8d50cbf28544cf39cc844dd688cb3ee8a801da805bdce48122e54d0365bda69260001b6143ad565b6159ba7fbec77acf36c91924b383de6ad43efaa98b5ec2e149d1e7abe452423935f3727c60001b6143ad565b81811115615c80576159ee7f43098ae67737f822e3ff2097838dadbabfc78bf04daa19250c54455f4c80f14760001b6143ad565b615a1a7f5b70d4b1a6e3125d12424a3cd5e793eb5d5bfd589b11bd09103c665fbf1b042d60001b6143ad565b615a467f858832c8c82758b27429eb7c4b26243cf10f9e8bd4b3317916c95d99fecfbaef60001b6143ad565b6000600660009054906101000a900473ffffffffffffffffffffffffffffffffffffffff1673ffffffffffffffffffffffffffffffffffffffff166323b872dd3330615a9b878761b94c90919063ffffffff16565b6040518463ffffffff1660e01b8152600401808473ffffffffffffffffffffffffffffffffffffffff1673ffffffffffffffffffffffffffffffffffffffff1681526020018373ffffffffffffffffffffffffffffffffffffffff1673ffffffffffffffffffffffffffffffffffffffff1681526020018281526020019350505050602060405180830381600087803b158015615b3757600080fd5b505af1158015615b4b573d6000803e3d6000fd5b505050506040513d6020811015615b6157600080fd5b81019080805190602001909291905050509050615ba07f91fc860a964c6213fc4f1a4be3ddbadcf45adac66d00c53077a7e4d6fd6cd64b60001b6143ad565b615bcc7f765c30bf565f66100e936d9e8f622ee2526b54965d482d8781350987129bb54160001b6143ad565b615bf87fc925a81951de4e60ba28c6bc408df4c8e39e48977c8cd4cc7bd8eb96b451f37860001b6143ad565b80615c4e576040517f08c379a000000000000000000000000000000000000000000000000000000000815260040180806020018281038252603e81526020018061e4c3603e913960400191505060405180910390fd5b615c7a7f85399c177e2dfe42fface10a4b9dd887d91200128550500fd48f4973a0ec990e60001b6143ad565b50615f06565b615cac7f81305073e6fbc263fb363c8bcd9e5bd98e23bdca49670c06b371a126471719a360001b6143ad565b615cd87fc37098fe5e0736b102340771d005a9b0ed3e851c0fe6a6f0e39f2a38bbc35b4060001b6143ad565b615d047f3a16f78a716f60e999043b54b2f93aa83330e7bc6b1c890b623421e5a6177f2b60001b6143ad565b6000600660009054906101000a900473ffffffffffffffffffffffffffffffffffffffff1673ffffffffffffffffffffffffffffffffffffffff1663a9059cbb33615d58858761b94c90919063ffffffff16565b6040518363ffffffff1660e01b8152600401808373ffffffffffffffffffffffffffffffffffffffff1673ffffffffffffffffffffffffffffffffffffffff16815260200182815260200192505050602060405180830381600087803b158015615dc157600080fd5b505af1158015615dd5573d6000803e3d6000fd5b505050506040513d6020811015615deb57600080fd5b81019080805190602001909291905050509050615e2a7f5e09912529725adbcb8cfee6ef6b1bdee2a5bf2fc7941874ceb9a0d5bc47671860001b6143ad565b615e567f7f950e57126ffdd0aa5f3d2e56f6c84183444dd734931fd1e68111b3e959a04260001b6143ad565b615e827f877b92785ac8e374663c20b1c57e17ddf013325fb34add1aea55f4af57fa326b60001b6143ad565b80615ed8576040517f08c379a000000000000000000000000000000000000000000000000000000000815260040180806020018281038252603881526020018061e2b86038913960400191505060405180910390fd5b615f047f64c9424e19f736d6ecac4c08e8794f56d05a8a1340d9a35aaa2d07d19426ff0c60001b6143ad565b505b615f327ffa6383d11c7791a723aebf4a83b3bb1b46dc513024fe1d74398efaedac8d1bf960001b6143ad565b615f5e7f6c929d80831ced67a0ead1e6cbbd82997c3a55794d0d5e93673c67435f024cb160001b6143ad565b826008600086815260200190815260200160002060020181905550615fa57f912fa0859998254482042fe8743a62f4eb07370c0ad2419a3eed850e0a9aecfb60001b6143ad565b615fd17f46e8938c5c0f15bf571ed91ad58dc77e96f76aa2c2d796352200428584e711ca60001b6143ad565b3373ffffffffffffffffffffffffffffffffffffffff167fc5a6b5f24219e32b64633d07b7a8c575d1b35cce427f87164c9ddc6cca81ca958585604051808381526020018281526020019250505060405180910390a250505050565b6160597f1b3353359c8de12e2f480c20a042fb6d8937d999189cc7b2f61e0a47bd7d857360001b6143ad565b6160857ff5db568c4ae8844d8e9362b8cc6d5e50a18b8d7a4481f4dcce12267f4be6d9ad60001b6143ad565b6160b17f3a7b5cb256681b80b220f767705e745ce69d13a4e7f0c04cd470ea34a65900ac60001b6143ad565b6160dd7f865ca80e7e548bc580e7ede6adc7ecf72d9a382873ec4a9c9f76dbf6943681b460001b6143ad565b83851115616136576040517f08c379a000000000000000000000000000000000000000000000000000000000815260040180806020018281038252602981526020018061e28f6029913960400191505060405180910390fd5b6161627ff8f80fd3cefa7a7cc203254aee1419486d68368befc721db13b067d7442ff38f60001b6143ad565b61618e7f7f13d3d7a6608bd7ee12c1e71c074310d2bfc1cdbffddab2898d147e6a0a30ef60001b6143ad565b6161ba7fdba95786a11cbd4c989d9125ab10dcfa581cc921f71a064055a738c60f89f59460001b6143ad565b6161e67f1d79365cf401d3df0c1ecfee8eab687a0aa20b5effa0d1585742bbe7cab61c2a60001b6143ad565b612710821115616241576040517f08c379a000000000000000000000000000000000000000000000000000000000815260040180806020018281038252603781526020018061e3116037913960400191505060405180910390fd5b61626d7f1282bf62a8d8b4afb769fab242d328d1202d75f4e4b37b6f7c2fd17ad47ffd5760001b6143ad565b6162997f33a32c6c91c3ac51f1d618d14226b8591b18861ce18bdee41369aa1b993d491560001b6143ad565b6162c57f7fcf6fb208806dc071efd4b33deeb209018fc175bae6797c179b4df934f3a74960001b6143ad565b84600860008881526020019081526020016000206007018190555061630c7f88d64ba1ad776fff48b5ebd0a4f2ad2efc4e4e43c79c49f81e1cfe47a82b0a5260001b6143ad565b6163387f54c14671f268dd2a3f41e308094782072daa25a9ddddd1dcfa4efeef86a9b14960001b6143ad565b83600860008881526020019081526020016000206008018190555061637f7fd568db0eb806b88be822ed5545aa2e0c57ddcbf50dd4f3c869d58de248b52b3a60001b6143ad565b6163ab7f43c7146c7c378a823a47d11f26549eb0ee98ab65168926039be111add8571f0e60001b6143ad565b8260086000888152602001908152602001600020600501819055506163f27f3b5c0ad8a3c0eff656e65aa62e911afb4f7f721979bd0386fb693bc4a75930b460001b6143ad565b61641e7f59edc21c65c13b50ebb7bd66d1efc067cba78144c9c67c772a7d7deb718c85de60001b6143ad565b8160086000888152602001908152602001600020600601819055506164657f077faa548dc765f5f5126d8189236fe72521d790ad6ca430b7631a36f0b02f4560001b6143ad565b6164917f53dc4f5d23e95949364e9f548a82cde38bdc8be788ba4b067df45b0cc8f1980760001b6143ad565b8060086000888152602001908152602001600020600a0160176101000a81548160ff021916908360048111156164c357fe5b02179055506164f47fc80fb2e0558d8bc614a52b814972c1c8d9512a48fe54d245e45147b425b1189660001b6143ad565b6165207f10cb77838e53a0c21258c3537289082b923aa705f94d8c3b32ea4914adb8791b60001b6143ad565b80600481111561652c57fe5b3373ffffffffffffffffffffffffffffffffffffffff167f65ac2502ce0d584ddd0a8a453b2d9b09a95a1d2bc6ca2b2036c7bcf0b11201e38888888888604051808681526020018581526020018481526020018381526020018281526020019550505050505060405180910390a3505050505050565b6165ce7f5d08d12e6dd58531e82f3cd0441090cb975e67ebb0eb9360ec90e791e6955f5b60001b6143ad565b6165fa7fde9869e900a43dd34ea9c86000d6b8a8508fb2bdacdcff9904ab31c3ef4cb77e60001b6143ad565b6166267fd343801d572415df84fcad7e215541b4020f5fec0feacb5af1863171571966b360001b6143ad565b60008314158015616638575060008214155b801561665a57506002600381111561664c57fe5b81600381111561665857fe5b145b156167aa5761668b7f6bae2d03b455a7a9b10328c8b405745d1696c8444fa62695982191f8d16cbeba60001b6143ad565b6166b77f52a7817d5839a5e06041cb14e3cf71048eb6ae71ef01fe8fd74a9d4f72c5cbf360001b6143ad565b6166e37f03c4f103acca8588bba857f891e80364e6aa4a67c8f059dfdfff58fe09611fec60001b6143ad565b61670f7f70568dadfc090b2d0b5acbb650fa2b84f622ae2e374e265fa49fc2845ba09d3f60001b6143ad565b42616723838561b73790919063ffffffff16565b11616779576040517f08c379a000000000000000000000000000000000000000000000000000000000815260040180806020018281038252603a81526020018061e560603a913960400191505060405180910390fd5b6167a57f04a1dfcec1da39984189a74a8273fa1686b02fe776955d9d84e1bd58b701047060001b6143ad565b616aa8565b6167d67fa907e52c8d495c805089afc2a74e419dce3573d269d8f36e859ef273f5754b0160001b6143ad565b6168027f287a8c97a1c083f381274edb5a2da7edbcf5a6bdc676640ec7d3168a74d7cad060001b6143ad565b600083141580616813575060008214155b8015616834575060038081111561682657fe5b81600381111561683257fe5b145b15616a7a576168657f43dbeec0e23e52c489715a7499e1b6da79916f82520979fed4fd7cbca4d8d25a60001b6143ad565b6168917f61d08bd9a2cd49bc78012b5217d080fec17170bb38f5bda30b076ffdd4afcc9960001b6143ad565b6168bd7f45a7dda59938ef4cc0af25d4415c9454ebf8bc4eb5943af56401fd0b74acca6560001b6143ad565b6168e97f19899c754a2f9d2c54d71f8bc9e4c0f283456a24abe06ef0e2a5a0c78248427e60001b6143ad565b818310616941576040517f08c379a000000000000000000000000000000000000000000000000000000000815260040180806020018281038252603b81526020018061e0a8603b913960400191505060405180910390fd5b61696d7f6a9487a8fd087760a80a890f016a406c68ba84fbe545f48ff691b844d7a06fcd60001b6143ad565b6169997ffa51f45e1a79e0271124be98b6b21239c0a493403876f7ba9d7ad07f2b8ec60260001b6143ad565b6169c57fdced9495e1cb7a042ce1b1debb1c80dbdddef2f5dd17f141e31b4088963710fe60001b6143ad565b6169f17f22f89d6a4cb17a8430462ec90917b43c6f1cabe39443e1006f938f40925a13fc60001b6143ad565b428211616a49576040517f08c379a000000000000000000000000000000000000000000000000000000000815260040180806020018281038252603681526020018061e5016036913960400191505060405180910390fd5b616a757f3603a554f5a38eef1c480ae7465e68d7d9d92595dca7ad21a8460f4b7749f77c60001b6143ad565b616aa7565b616aa67f7769d73f20c312808c44bcf4c095bb33de44f37e126a68445ed9e6a9d1e0237760001b6143ad565b5b5b616ad47f181defdc185e813bc1cfee1da797ea7e51e9352b60a59eed6ce6b72ba4604bff60001b6143ad565b616b007ff0ca6a6619605c711367d043591fd86589f3949a7139d19bac086bc66d026bc460001b6143ad565b826008600086815260200190815260200160002060030181905550616b477f33b0a5ec2fe0e48eedd105050f1b54cb262d09a58e7a6dabdeb35f6d791a402060001b6143ad565b616b737f55f9b29385bb9d38f80f9e2743a72e413f4434f7ddc9af3a2f199183504018b460001b6143ad565b816008600086815260200190815260200160002060040181905550616bba7fc5060a6d532bd70c701784212380c5170718749ffb1d51f2548a74d7cdfa588460001b6143ad565b616be67f15698c1b3cb52400e2802364df0351e3d1aa7d292c1d8c62cf2c1f435617b52060001b6143ad565b8060086000868152602001908152602001600020600a0160166101000a81548160ff02191690836003811115616c1857fe5b0217905550616c497faabbc9d9ff60abcfa85df20e2069d7b0a924890b05b56fd1c2d5eb6e38097fbe60001b6143ad565b616c757fefefd74c076ed596d3469a4f07a18c069e3dfdd68c0284e3a902d7fc9829f6a360001b6143ad565b806003811115616c8157fe5b3373ffffffffffffffffffffffffffffffffffffffff167f3f264dd252fb54617abbe8610c74bfdb21fab381bfafb7b8ec10f02b2f58265086868660405180848152602001838152602001828152602001935050505060405180910390a350505050565b616d117fa20e9072ca5bccb0956d7b70673b62df0e8f854aaca548bf2a87333e81ccb22b60001b6143ad565b616d3d7fbaa046c6a8d17aa4b6f1810990f1054514bf088bb5bc1e81d5732bd6f6a235cb60001b6143ad565b616d697f88b63b099711ee3d3e1af10a3bba9f3d9301e0adb99126d0374b159a96921a5d60001b6143ad565b616d957f8320f66fb4260736c088321a124394194d69169e7af5e342b2a20f851eac7cdc60001b6143ad565b600073ffffffffffffffffffffffffffffffffffffffff168273ffffffffffffffffffffffffffffffffffffffff161415616e1b576040517f08c379a000000000000000000000000000000000000000000000000000000000815260040180806020018281038252603381526020018061e17f6033913960400191505060405180910390fd5b616e477f977978066d0e142e1696050762c76390e97fbd2e9b6ba1f423063ee89460851860001b6143ad565b616e737fa80e110af0c2c6fd0bbe09007ca8e400824f910616eebb194fbbc5a0e13af44d60001b6143ad565b616e9f7f387c72f65effbc0ff45f52c28451e2d253ad566da18c81fd819d90fc6a7f076260001b6143ad565b6001600d60008473ffffffffffffffffffffffffffffffffffffffff1673ffffffffffffffffffffffffffffffffffffffff168152602001908152602001600020600083815260200190815260200160002060006101000a81548160ff021916908315150217905550616f347f438a8bbfeffe60243e14fbeda7e4da070c1fb87331572bfc9ff67707b881ab3d60001b6143ad565b616f607f43bf98f8bca5675df904cebf4ff4d8e6c5f93a3dc1a7769ea1e39878b37399f560001b6143ad565b8173ffffffffffffffffffffffffffffffffffffffff163373ffffffffffffffffffffffffffffffffffffffff167fd0341f7bb58d2e2f1e505b4b8cd3883a80a71813da8e912b67c68bb99214d5f4836040518082815260200191505060405180910390a35050565b616ff57f700a658c4da4d353a417b77c970de433d453c8f2699839dae49ad56bc95247a360001b6146f2565b6170217f0442258b08cc70eb8e8ec53ae49bd385424a7b28fb72a01d5f07863cd8ef7bbb60001b6146f2565b61704d7f73beb8663fb3696cb086686c524e4708b28c4ea65f280dff39d4827e7ca4872d60001b6146f2565b6170797fe6766aa48ddfcd976772424bbfb446c43bd564638adb3eae442483ef3d47d2d860001b6146f2565b600260008273ffffffffffffffffffffffffffffffffffffffff1673ffffffffffffffffffffffffffffffffffffffff16815260200190815260200160002060009054906101000a900460ff1661711b576040517f08c379a000000000000000000000000000000000000000000000000000000000815260040180806020018281038252602681526020018061e5e66026913960400191505060405180910390fd5b6171477fe3eeb77f132279c29353bda0a45a6b8069b3d81ae1d35ff6ce332bf4f2f1498c60001b6146f2565b6171737f826c811e8f0f23125d7835fae7fd9617b4c6646b1b180244448e1abc0a49cae760001b6146f2565b61719f7ff604418593dc16a35b826d8368fc2d80c0cbe277b3875ea2501693e6c787629e60001b6146f2565b6000600260008373ffffffffffffffffffffffffffffffffffffffff1673ffffffffffffffffffffffffffffffffffffffff16815260200190815260200160002060006101000a81548160ff0219169083151502179055506172237fdfd972c9e0ed23e7b9b39cc0eb70745f9edf91cea7d1f5ef8cbf934ab71a383360001b6146f2565b61724f7fb812f9acc0ad6954fb47c6f67e2ec9e576031902c70f7d19cf34ebd4c99a83b460001b6146f2565b6000808054905090506172847f4f3d52591d32856fceaa0875b19a1a6971c5907ca132a5d94cb043c091ae335b60001b6146f2565b6172b07f4248074121f47fe89626ab2bd1ddcdd17b3244ad291d57f5f2dc8d7bc0ffe37260001b6146f2565b60008090505b818110156174ff576172ea7fb1dcfab9fb921132d8f94a37743105cde00a71eac40f219501ac2186954f9d4560001b6146f2565b6173167fa7b3c5f14af4838df8ff89a66ce529ae4fe4e2b9b809d49ff43144b6f0b4329b60001b6146f2565b6000818154811061732357fe5b9060005260206000200160009054906101000a900473ffffffffffffffffffffffffffffffffffffffff1673ffffffffffffffffffffffffffffffffffffffff168373ffffffffffffffffffffffffffffffffffffffff1614156174c6576173ad7f5d85e0c498670283c294314ea52bb35d04f5b20382ead62f26a5637ba330e26560001b6146f2565b6173d97f1e61341ff4265c16c11520f2bcaa2c67455ac8a5a44789639a1f3953467185b560001b6146f2565b6174057f69cb5f1d8d86470f85ba42b186f442cf39602df325e0be82fd2638d49b8fcf9c60001b6146f2565b6000600183038154811061741557fe5b9060005260206000200160009054906101000a900473ffffffffffffffffffffffffffffffffffffffff166000828154811061744d57fe5b9060005260206000200160006101000a81548173ffffffffffffffffffffffffffffffffffffffff021916908373ffffffffffffffffffffffffffffffffffffffff1602179055506174c17fba71d897b1e65b8d75cc479d698f33254ca674ae100465305a4d3cd901887edf60001b6146f2565b6174ff565b6174f27f38f3b15268ac0d983bee23492eb7af2d86e2b2ac5f404db8797ba0870dfbb7a260001b6146f2565b80806001019150506172b6565b5061752c7f623fa6edfa9ede1ec69f5c6f0990a64e40c5a746c07a3dee242d3098a062bf6960001b6146f2565b6175587f29c2e5f8e4b3b2b601f7c3f6ad17144c78e76415ff9a7c26b5c5211d3e6528ec60001b6146f2565b600080548061756357fe5b6001900381819060005260206000200160006101000a81549073ffffffffffffffffffffffffffffffffffffffff021916905590556175c47f4c7711e3c15de7bc64756f0ad4342539a47405097c1b755ace49d174dd92c3e260001b6146f2565b6175f07f5ca3edf5634600b786f6eed93e841b0073d00b1d590ad098af78f5186c06fa7660001b6146f2565b3373ffffffffffffffffffffffffffffffffffffffff167fe594d081b4382713733fe631966432c9cea5199afb2db5c3c1931f9f9300367983604051808273ffffffffffffffffffffffffffffffffffffffff1673ffffffffffffffffffffffffffffffffffffffff16815260200191505060405180910390a25050565b61769a7f0fba0ac44bebc1d19c1e2598d2143f4e40b91a1a479424b23cdc51a111f61a6260001b6146f2565b6176c67f5ac0587170cfc2ba6bca9c191a377f7088efdcd9232cc7a7b59fc66f09eed57d60001b6146f2565b6176f27fd54f82f5ebc658384e7f4f6b81e3425d2f6de6e397fc9febc0aab1c766fc2b1160001b6146f2565b61771e7f66b0600d033d88be9320a9667148c885b2d7b11a2276b7b191d0b7989194188660001b6146f2565b600073ffffffffffffffffffffffffffffffffffffffff168173ffffffffffffffffffffffffffffffffffffffff1614156177c1576040517f08c379a000000000000000000000000000000000000000000000000000000000815260040180806020018281038252601e8152602001807f4f726967696e7341646d696e3a20496e76616c696420416464726573732e000081525060200191505060405180910390fd5b6177ed7f458dc0e526126de1c7a7d155bfd97e0e38ce74f4f30e24edbd3e337037df892060001b6146f2565b6178197f0ec391908240ca8cbf3d254c56a7a359eca3012f94f3eecd5cc663259fce8eab60001b6146f2565b6178457f52c66d7b17c6b65853f94500e1a91fd6b9c552cbbde0cfa175c5615cb3ef5ff760001b6146f2565b6178717f09fb6f28ec832827cf8fe8440c8432e239ca50ca47ceadfdea1d94df42d988bf60001b6146f2565b600260008273ffffffffffffffffffffffffffffffffffffffff1673ffffffffffffffffffffffffffffffffffffffff16815260200190815260200160002060009054906101000a900460ff1615617914576040517f08c379a000000000000000000000000000000000000000000000000000000000815260040180806020018281038252602a81526020018061e07e602a913960400191505060405180910390fd5b6179407f75beac7cc6466e3d793f5efc9a7ed5f6c7864caa408c6e40adc7cb53b1f61df160001b6146f2565b61796c7f1bee40b5901ac349124754918e7e26cbe2858df5ecb1e94400402e260b6eacea60001b6146f2565b6179987f410a93128c50bbb38e509b51ade3c351cda1871ea9459114a6e83965661089a760001b6146f2565b6001600260008373ffffffffffffffffffffffffffffffffffffffff1673ffffffffffffffffffffffffffffffffffffffff16815260200190815260200160002060006101000a81548160ff021916908315150217905550617a1c7fbc537b56eb8ce420f84eb8f690214bb5de06021c78fed4ceb0d761a7e511757e60001b6146f2565b617a487f8163b1d3ff7133aebf587ffdcb3605813a526f23621691ead884c8cd67cfd1ad60001b6146f2565b60008190806001815401808255809150509060018203906000526020600020016000909192909190916101000a81548173ffffffffffffffffffffffffffffffffffffffff021916908373ffffffffffffffffffffffffffffffffffffffff16021790555050617ada7f595f5761b1bd17a702d9ab83f65b7b6418be9c4566ab772c2b4058530a29151760001b6146f2565b617b067f329571cfb247df28874d5a0cf2727b30c25d584b478323281c9165c3293ca4ee60001b6146f2565b3373ffffffffffffffffffffffffffffffffffffffff167fc82bdbbf677a2462f2a7e22e4ba9abd209496b69cd7b868b3b1d28f76e09a40a82604051808273ffffffffffffffffffffffffffffffffffffffff1673ffffffffffffffffffffffffffffffffffffffff16815260200191505060405180910390a250565b617baf7f41b1c8dd8d5910327e36a8bb359ff178cb1ded39297acb346e950db929c576dd60001b6143ad565b617bdb7fc23662d16f17d6ecca993f94dd9551e348982183b566a73f7a40d619af6fdf1360001b6143ad565b617c077f879ec18b3d166ffa5960af417819dff7ee0d07413638c758e33ec0dccb3d930260001b6143ad565b617c337f44978c5c4629b2a7ab5043bebc39e8d85967adf244fe0b68b72e7a50635eff7d60001b6143ad565b80821115617c8c576040517f08c379a000000000000000000000000000000000000000000000000000000000815260040180806020018281038252603981526020018061e3486039913960400191505060405180910390fd5b617cb87faa08a2064548d9b97d5846eb088eceb4e1c090b8783ce22baba19f9da920386260001b6143ad565b617ce47f399eac91c298367f416eedc509a56bd2476a549a931edb555a81f8fe60cf557560001b6143ad565b617d107f9c36bf7fbee120301da8f080504949f5fea67c26c08e91aa980acffcec93315360001b6143ad565b816008600085815260200190815260200160002060000181905550617d577f8dc1ec87cb4139cd9cdc5d2b6e4be1d82cc50c63a0d4ef574b7e240e4606412760001b6143ad565b617d837f916d4403cb99a72d9a3762d9de0cdba327dba7a3921902662d86c2ad4130362060001b6143ad565b806008600085815260200190815260200160002060010181905550617dca7f8cd4bbf71b3526b04e357b05fcb732a62bbdcbc8e40448894cdfabf67621f7e060001b6143ad565b617df67f51022f8a36dd964c45e4d3a6492a638f7dfb12f1a0e3441b7cd6c3319f36862760001b6143ad565b3373ffffffffffffffffffffffffffffffffffffffff167fb6038050d95c3845ef9ec3e0b146c25d855715b5a69fa279ddb20f35e926f90c84848460405180848152602001838152602001828152602001935050505060405180910390a2505050565b617e857f0cda559503cba2917545521066a16a465405f3bbd1b9a568831628dd598bf73f60001b6146f2565b617eb17f6b222ddf38757b30ad5587a0535d9026e827452508a0d467684c66d3c1a6e1a760001b6146f2565b617edd7fb3aec005e80804c1f7f09812f4651fa1987bd48659bb0cec15eab29527043ed960001b6146f2565b617f097fe2143ab519096b44a68bcf2dfa76788884d93aba95b22f702333728f6047eb6f60001b6146f2565b600073ffffffffffffffffffffffffffffffffffffffff168173ffffffffffffffffffffffffffffffffffffffff161415617fac576040517f08c379a000000000000000000000000000000000000000000000000000000000815260040180806020018281038252601e8152602001807f4f726967696e7341646d696e3a20496e76616c696420416464726573732e000081525060200191505060405180910390fd5b617fd87f0af5dc5d575f70ea5f62d1f6520cd98e700cf178485f32277cceadbd1e71e57160001b6146f2565b6180047fa295903c4a81047b622dc3979b142baeb453eb062d4af1e70c3b168d54ff4db460001b6146f2565b6180307f057aaa7ce8c5bb2593674b3c4e9a379586088e150b4e9328ea1f7230b5b575c360001b6146f2565b61805c7f19ab008ed7da7f2961714050ce173a4cbb5e258f90574a237eccac673b998b8b60001b6146f2565b600360008273ffffffffffffffffffffffffffffffffffffffff1673ffffffffffffffffffffffffffffffffffffffff16815260200190815260200160002060009054906101000a900460ff16156180ff576040517f08c379a000000000000000000000000000000000000000000000000000000000815260040180806020018281038252602c81526020018061e1b2602c913960400191505060405180910390fd5b61812b7f1eb2f8712484e5abd0a0092e69ce0a0fdbfa077b87ce2bed2e1e2d441795d8be60001b6146f2565b6181577f39376fae5bf4169c93cba7dd7d2db4ff9a588c360bad5ce5f74cb23f8f62d0b660001b6146f2565b6181827efbdfc6de6200e1a108d4723d0ca109493d1be7d9be54dc015b2fb1c3de109460001b6146f2565b6001600360008373ffffffffffffffffffffffffffffffffffffffff1673ffffffffffffffffffffffffffffffffffffffff16815260200190815260200160002060006101000a81548160ff0219169083151502179055506182067f8d877c7bc5a5dbc94317477967e48e0985065b67fab01a1e53c0ded7d800873b60001b6146f2565b6182327f303e14c184af88d06ec969b6d5b59bc876c93916a2567d399297edd11603cdea60001b6146f2565b60018190806001815401808255809150509060018203906000526020600020016000909192909190916101000a81548173ffffffffffffffffffffffffffffffffffffffff021916908373ffffffffffffffffffffffffffffffffffffffff160217905550506182c47fdee67bc05f6f2a2ade56b3cd51a23a19307ba012452f287806627fc0885e7fe660001b6146f2565b6182f07f97391ea682f435686bd9306ab387f34a2948a811c2b43c07d281efbfc35c85ed60001b6146f2565b3373ffffffffffffffffffffffffffffffffffffffff167fcded52b8cbf99afd8d08e8cbbd08132079749ce1735c8ff927d746d8af29782e82604051808273ffffffffffffffffffffffffffffffffffffffff1673ffffffffffffffffffffffffffffffffffffffff16815260200191505060405180910390a250565b6183997f5e14273f5c91e0a425e5ff20d66fac314255425ea45439ee5a8393add92130bc60001b6143ad565b6183c57f48f46a01af4ce3a539166ff52f8d4401b418b4f8775fee2b2ae5c23a23719dd960001b6143ad565b6183f17f4fe4b9e48544e4e272516831ae8ddf0ab27b542463238f44eb8c0d71a0612e2b60001b6143ad565b61841d7f119db01a8b1080f48a3f7378f9ca67e2646897f170396476efa321693d4ff00560001b6143ad565b600073ffffffffffffffffffffffffffffffffffffffff168173ffffffffffffffffffffffffffffffffffffffff1614156184a3576040517f08c379a000000000000000000000000000000000000000000000000000000000815260040180806020018281038252602c81526020018061e0e3602c913960400191505060405180910390fd5b6184cf7f8fa921b0f7a0d3a8574cdeb502e15747d35f8b09998b794d530c052c4576836f60001b6143ad565b6184fb7f3d7f019fdf59c5a7bfb4c68e66b965313f01dad1d486d7ecc93d8ed59ea2462160001b6143ad565b6185277f0df6f2ff2bee7f68bcb81d874d46e0e6195f311deeeaa45c8af0cc1a6e61c00960001b6143ad565b8073ffffffffffffffffffffffffffffffffffffffff16600560009054906101000a900473ffffffffffffffffffffffffffffffffffffffff1673ffffffffffffffffffffffffffffffffffffffff163373ffffffffffffffffffffffffffffffffffffffff167faaa05da162537d6c0a2c5e57caf1cb6bea97efc44ce3cda5d269dd2f3b03bc5060405160405180910390a46185e67f40dbcbc5a1d19ec229f1911b629cd90d135184611e4c9e3bb124567fc12c785760001b6143ad565b6186127fba04dfa1aac058af28bacc3d9d16235f5f6b951a31ed8287aff297eb13883da860001b6143ad565b80600560006101000a81548173ffffffffffffffffffffffffffffffffffffffff021916908373ffffffffffffffffffffffffffffffffffffffff16021790555050565b6186827f2d2b17008c81c729a76e9b31f1d60af1e815996dcf2ed234a6f5817f40d52edf60001b6146f2565b6186ae7ff2935ae4ff1369b36a1c9f8bbbc07d39433b3a0fe3721f87f0fed6c1b1637b6660001b6146f2565b6186da7f1110a884fa927bc46ef946125d7a67d5467c8bad7f7ee2e2ba61a7098176705260001b6146f2565b6187067f8fc70272bce9244fe3660ca50a4662d8732531a39a60c46470dd2c5d9f48323b60001b6146f2565b600360008273ffffffffffffffffffffffffffffffffffffffff1673ffffffffffffffffffffffffffffffffffffffff16815260200190815260200160002060009054906101000a900460ff166187a8576040517f08c379a000000000000000000000000000000000000000000000000000000000815260040180806020018281038252602881526020018061e4706028913960400191505060405180910390fd5b6187d47f7521ea7e11981e10530712e844a34703b2c3b7c8eeeeb0931806d36889a547b660001b6146f2565b6188007f3b1c6f84d325922bb0bc5c0679dc3d0f32d479d5d5566538162a0fcf525e8e8260001b6146f2565b61882c7f7c050e1b8d81590aabc562aae5f958dd9c5687079ec3df0524a2d348ac819cdc60001b6146f2565b6000600360008373ffffffffffffffffffffffffffffffffffffffff1673ffffffffffffffffffffffffffffffffffffffff16815260200190815260200160002060006101000a81548160ff0219169083151502179055506188b07f134639f4262b32365893cb88bac2370c1c291e206b3ece0f4730e376462cfbd460001b6146f2565b6188dc7fa815fd6ced88aac874c0da0fa0b813c59c7aeb91751e67bd0f4423cda199b8d160001b6146f2565b600060018054905090506189127fa6913cd67d5f0d909416aee3f9cf2377e5c612ae34580c3177a5a770e408c22260001b6146f2565b61893e7fe943dc5f4e6a6cefcc2516b51415c1ead670c42e9493440627cd57477b67fb9360001b6146f2565b60008090505b81811015618b8c576189787fa6bc8e73465d3c28d34d39dfaeb150a7220b50bca4cb3d8a8f0d183c7ab8fdc560001b6146f2565b6189a47f47fd655f1c87712d6c2fcde17ba3980d7a61f61d50ebdb03ce8bf91aab23e4af60001b6146f2565b600181815481106189b157fe5b9060005260206000200160009054906101000a900473ffffffffffffffffffffffffffffffffffffffff1673ffffffffffffffffffffffffffffffffffffffff168373ffffffffffffffffffffffffffffffffffffffff161415618b5357618a3b7f402f5cbf01c18812984ffdfdd5c6e7c94e407c478e6eaace4366cdf0c4265d4160001b6146f2565b618a677fd948e5cfc2af9f31c734b9c1c0b843eeff749be6afd8209e3e8438c5f564072660001b6146f2565b618a937f02c3308c524bb2acb655bb78998e62a581922af54056dd9491629eca52ec310e60001b6146f2565b600180830381548110618aa257fe5b9060005260206000200160009054906101000a900473ffffffffffffffffffffffffffffffffffffffff1660018281548110618ada57fe5b9060005260206000200160006101000a81548173ffffffffffffffffffffffffffffffffffffffff021916908373ffffffffffffffffffffffffffffffffffffffff160217905550618b4e7f596f90392997038f3189a37b4d309212bd69538bd8410712475516f2451aebab60001b6146f2565b618b8c565b618b7f7f2673001b1f599afb4c3b709b761aa53d6a8c3b9e764ebdf31bd8c0f85078072460001b6146f2565b8080600101915050618944565b50618bb97f2ee0d065b1399cafa57e27594b8338d1a48e7bf3ccdea71ca9ad58d142ee85a360001b6146f2565b618be57f2f345d77625ed83c6efee45dad4557514fb8be7e15977ed2da588e5c0763744d60001b6146f2565b6001805480618bf057fe5b6001900381819060005260206000200160006101000a81549073ffffffffffffffffffffffffffffffffffffffff02191690559055618c517fecec104046e3f1916b39682fad4322ade6c412b59aaed7c2812d0a74b2115c5660001b6146f2565b618c7d7f1f9cab3bd3f01a3c928ca45ee19f88cc1f6a7aa38a7160be8c2acd2784476a1460001b6146f2565b3373ffffffffffffffffffffffffffffffffffffffff167f490861baee43b8ebd28f134f99c0aa7848888c4bde402256ad4cf455d147aed683604051808273ffffffffffffffffffffffffffffffffffffffff1673ffffffffffffffffffffffffffffffffffffffff16815260200191505060405180910390a25050565b618d277f1258a28ec2752da0da5b922195692f92154f9af007061c0031dfae38f41042d460001b6143ad565b618d537fddeac64170ad0cfab7d37ad18ff38299b858230b1c1d6fcf2f5162165025f8f160001b6143ad565b618d7f7fc779b5ce7d4e7f68b735dbef130f39b7b18140a48b900af4608e8f33cc7fdab760001b6143ad565b618dab7fc401c8ebbf36b2904cf2aa800439e0006d933e6a0c6bc7ca0caa037e25f9e46a60001b6143ad565b618db48261ba1a565b618e26576040517f08c379a000000000000000000000000000000000000000000000000000000000815260040180806020018281038252601e8152602001807f4f726967696e73426173653a2053616c65206e6f7420616c6c6f7765642e000081525060200191505060405180910390fd5b618e527f29f0beb74a22943da13a889c0309ce9b7bcba9e0b859609cb709d3b7f48a612560001b6143ad565b618e7e7f5da3dd6d41bb3fa4553d2275da31ebfb28d2cb93fc8795a40fbc74b933afc4a260001b6143ad565b618eaa7f3b3a5721379bb182ea96103d2c22146d68f7c77ed0b1b39197e69d84a84ad6b160001b6143ad565b618eb261df32565b60086000848152602001908152602001600020604051806101e001604052908160008201548152602001600182015481526020016002820154815260200160038201548152602001600482015481526020016005820154815260200160068201548152602001600782015481526020016008820154815260200160098201548152602001600a820160009054906101000a900473ffffffffffffffffffffffffffffffffffffffff1673ffffffffffffffffffffffffffffffffffffffff1673ffffffffffffffffffffffffffffffffffffffff168152602001600a820160149054906101000a900460ff166001811115618fa957fe5b6001811115618fb457fe5b8152602001600a820160159054906101000a900460ff166002811115618fd657fe5b6002811115618fe157fe5b8152602001600a820160169054906101000a900460ff16600381111561900357fe5b600381111561900e57fe5b8152602001600a820160179054906101000a900460ff16600481111561903057fe5b600481111561903b57fe5b81525050905061906d7f15737ba16ddbdaf5979fcda90e7bd0afd6c3d9e5c31633b1a2c14c7a5aa8ad5d60001b6143ad565b6190997f3f6caf161f7ed8380ad6cbf612075d07de3ec83c9aadfe08d65846fd0c3b303860001b6143ad565b600060028111156190a657fe5b81610180015160028111156190b757fe5b1415619192576190e97fd11f70b7df494c275c522313109d065894a77213e72b4c790ee9662a34b4492060001b6143ad565b6191157f82667fc40443f50677083ec8ea3822102a0855b04b9f4998f4969b76aa12ab8c60001b6143ad565b6191417f52cb36432d95f0bf1f875532fbafa21140eafd816b8fd434b76542d22cfb30f560001b6143ad565b6040517f08c379a000000000000000000000000000000000000000000000000000000000815260040180806020018281038252602881526020018061e6466028913960400191505060405180910390fd5b6191be7fc3840ef3457c4fd7aca311ee3a2af97df56cae48002f1e4ea0092844f370846b60001b6143ad565b6191ea7f2ac1026d2ac6c5f93c27f427ca6d8de1bd5d9fc3be04ba59d23c01380eabd61e60001b6143ad565b6002808111156191f657fe5b816101800151600281111561920757fe5b14156193a1576192397f35ca1646c9d9b334a5bcfb8ffce7bbca02d12e14dbfb5e1cfeb69f06f410879b60001b6143ad565b6192657f3469385da5907e86f9649c10713f56bb94b9f4b51c39bfd0e9e599f3e619f6b460001b6143ad565b6192917f2354e318a94d00cd4efa5780954f2329c444d8d31a97fbc36ccf7c2887150fbd60001b6143ad565b6192bd7fcdf790e12d7bb8faadcfdb21ef2737b02fa9234f5dae5a12b4d1276a35708c6a60001b6143ad565b600d60003373ffffffffffffffffffffffffffffffffffffffff1673ffffffffffffffffffffffffffffffffffffffff168152602001908152602001600020600084815260200190815260200160002060009054906101000a900460ff16619370576040517f08c379a000000000000000000000000000000000000000000000000000000000815260040180806020018281038252602881526020018061e2416028913960400191505060405180910390fd5b61939c7f69cb708d22dcd13a128b9b64bde4c4b5e385ea75ac5f187f931caa425971e77460001b6143ad565b6193ce565b6193cd7ff6ad38514dd03862364ac35fc06de1049dbdd7ac394780bf86732dfeabbe38d560001b6143ad565b5b6193fa7fedd422ab79c33b72062546e74c932928579dee65755eb022c09d3a6c8c736f8060001b6143ad565b6194267f3a179772423b910911a51b8c3244b938316058d70f0198d842876c5faf1a5b0660001b6143ad565b6000600960003373ffffffffffffffffffffffffffffffffffffffff1673ffffffffffffffffffffffffffffffffffffffff16815260200190815260200160002060008581526020019081526020016000205490506194a77fae6d9864bd3217c36f5a35cff1d0dc35b89cec47100dc3104fd6b06d9f4246be60001b6143ad565b6194d37f87259a496a95529266f8ec006291a81718473d8a03fe89348004ad8bdb68fcc260001b6143ad565b6194ff7ffad4e2aac2db0affd87e8b5c6d525efa79c2a40803aab367e5e0b97825813da260001b6143ad565b8160200151811061955b576040517f08c379a000000000000000000000000000000000000000000000000000000000815260040180806020018281038252603181526020018061e1de6031913960400191505060405180910390fd5b6195877fbf320ddede2786d819111ad52aa3356dc915413f4761bee74f5e044b0f2cbb7260001b6143ad565b6195b37f438fb6dc27845e10e217be78aa727ac3708c408bad0eee20cb71242068c5e7dc60001b6143ad565b6195df7f35a879d5c51a4691e775600ee0be7925c36ae8bed698285c680e2b947d695fdd60001b6143ad565b600061960d7f0a7df4e4eac2ffc32eec0d3649039ebd3e16bd42819ea94384a58addc970120060001b6143ad565b6196397fc46b65538395c0a40dcacdea0190842053f78072bf15628ffb7f55c5f833af6160001b6143ad565b6000600181111561964657fe5b836101600151600181111561965757fe5b14156196e9576196897f14332d445b62c44fb5b7bbb9ffd16168952e8000d39bdc6b3b0a719d52d3e59260001b6143ad565b6196b57fd1c788de06a3290f7d716e94e2697a347aae0c15cfc85ccbb0132751df57e6c360001b6143ad565b6196e17f28260e6d36c9d45b949b3e3680dae0db0c059432fb64191d1295c677027f23e560001b6143ad565b349050619c14565b6197157f02f74aa8364872739c5e859f2fe47061d952d965ecdb14b2fdd88cae3a3f8ed060001b6143ad565b6197417f18c9b05cebc9984e5ff788895ceff933a7fcf425b2fc51324686ffa357fdc30e60001b6143ad565b61976d7fe5fe355b75925c098a1a7a2d43219daa7dc998f19244a6b2a66b79959dc135b460001b6143ad565b6197997fbfa3469fd27f859021f4e9801e12b194f32082bd7e555218f3c648f514624b1960001b6143ad565b60008414156197f3576040517f08c379a000000000000000000000000000000000000000000000000000000000815260040180806020018281038252602381526020018061e4216023913960400191505060405180910390fd5b61981f7fb855a542a405cab7b781bfdcef99c439f86be5ffabc0e0f0eab43aeb676c1dbc60001b6143ad565b61984b7fdb6e6cc1b4d84a4d50611137baa461eadc963963cef9491c0f80ad45fe6b218260001b6143ad565b6198777f0eb26e92e7452c913728874ca9e2ee657b30f7cb71d07719586b00a4bdd4353f60001b6143ad565b6198a37fa879878c8ee82050fede45179d4ddb3d4f957a17453e0b13244910d7d21c5c9760001b6143ad565b600073ffffffffffffffffffffffffffffffffffffffff1683610140015173ffffffffffffffffffffffffffffffffffffffff16141561992e576040517f08c379a000000000000000000000000000000000000000000000000000000000815260040180806020018281038252602c81526020018061e444602c913960400191505060405180910390fd5b61995a7f2e3dc7cce37d23feb1ac9722a7ffbb1ba457d0697b2c4409623652b90bd60ae660001b6143ad565b6199867ff7f4250817492223a9e3ae1c9a793b77986b35c6c1d35449bc864b444e6db26c60001b6143ad565b6199b27f5da45ea63a160dd06ba6a43e526b63aa786b1a6ff4800caa416c30a399ffac6c60001b6143ad565b600083610140015173ffffffffffffffffffffffffffffffffffffffff166323b872dd3330886040518463ffffffff1660e01b8152600401808473ffffffffffffffffffffffffffffffffffffffff1673ffffffffffffffffffffffffffffffffffffffff1681526020018373ffffffffffffffffffffffffffffffffffffffff1673ffffffffffffffffffffffffffffffffffffffff1681526020018281526020019350505050602060405180830381600087803b158015619a7457600080fd5b505af1158015619a88573d6000803e3d6000fd5b505050506040513d6020811015619a9e57600080fd5b81019080805190602001909291905050509050619add7fdb3a48f1931805e6b76e814837db0a8060ea54950041474bb48ebcc1acd9a84b60001b6143ad565b619b097f715774f3e46f4846ba248e25cf89b1518fa20c4f8981e4f5bf25445ed7d5746460001b6143ad565b619b357f12b185d84750e06dadc28ca5afa26a01791cb68a10436a62d586a46f7f61087460001b6143ad565b80619b8b576040517f08c379a000000000000000000000000000000000000000000000000000000000815260040180806020018281038252603a81526020018061e60c603a913960400191505060405180910390fd5b619bb77f4dea6bdf1555e9f9ff79432d61c11b733f40a193c889d33ff045614d03186e1360001b6143ad565b619be37f4af8fc6941598eb1ff7882852e49a5a50a8cd9f8b611aca905d859d25185f7cd60001b6143ad565b619c0f7f268d5c820b55f3ee2e01733de4a71d59f977ab9b51666e5cd66786183bc65b3760001b6143ad565b849150505b619c407f22fc79eb8c07045526084769af97e3fd12ce7e530414b7bdb9164cd37dead24660001b6143ad565b619c6c7f41ff2f4f5eb8b953587115ebe393897702323585340ad81482673ecc1646341c60001b6143ad565b6000619c9a7fbdcb60ef26bac120bd2a12589d35f652a81452fff0f088f524188d9e1749217360001b6143ad565b619cc67fe5fdd48b4d65b3d8ecf154886cda5936cde965c0d67aa82902895c315c8b811a60001b6143ad565b619cf27f94118ce43c1caa71cd400b60b4fbf222bab2e4d10a6a0b2bbd406e8527091dc860001b6143ad565b8360000151821015619d4f576040517f08c379a000000000000000000000000000000000000000000000000000000000815260040180806020018281038252603281526020018061e20f6032913960400191505060405180910390fd5b619d7b7f060959094a8435b0731bc6aacf7a2181a403678c56a23af36609844395e1657a60001b6143ad565b619da77fbc5eb22848b26ca8b383487d48b3f875b710d6a3a039676e5f4dc8c5a2e51e9560001b6143ad565b619dd37f245343befc94d5861f352fc505db1a41760bc4d5eeb3fa52c56ef19c5c9f6d7d60001b6143ad565b81619deb84866020015161b94c90919063ffffffff16565b11619f1557619e1c7fcb4835a354754a3aefb7a645b76b3c8bd9de549baead3d813031647c4309a0f760001b6143ad565b619e487fc1cad96269dacc8cc05d8deb9d4757af3d97ee65c4774ce5684a2d2ccd13812060001b6143ad565b619e747f43e12f4fbe464a6989660a3769978a442d6f7401e9bfbf3d027b1f570928d43060001b6143ad565b619e9d8460200151619e8f858561b73790919063ffffffff16565b61b94c90919063ffffffff16565b9050619ecb7fa3a10396e3827dd8312c751f436a7d3b85d92d8efc27da40eed10d541369f67460001b6143ad565b619ef77fa17eeab935b0d2d26f5dc67cd3c51c44ec599998c1fd6b67701a875be0a0b2bd60001b6143ad565b619f0e83856020015161b94c90919063ffffffff16565b9150619f42565b619f417fb14125e75dc7e4bac8c8de914081aa5df53f65d7a89b96d386f4318b0859e7cf60001b6143ad565b5b619f6e7f0213bb603a5d2df16016de8956610f8d8cc84636937297faf34422b5738cbcb860001b6143ad565b619f9a7f8174c7a27ae29d870a99a2ec0392f2118d60c96259df3457c05db358c0c3a88060001b6143ad565b6000619fb48561012001518461b2f390919063ffffffff16565b9050619fe27fb89290c05bbfeb36574611a6d71c190d7aaaef99becb7ad25e43cdb75b2e0a5560001b6143ad565b61a00e7f031b1ac2c2858eb8088e177b84c3acce229050e18f5bda27fb7104282d348b8060001b6143ad565b61a02581866040015161b94c90919063ffffffff16565b85604001818152505061a05a7f91da45c4841333e728e3c00acf7cd3f489ab80dababd72a7e1509d4c6b191ef160001b6143ad565b61a0867f28740585bd2ea60e0382082f2fa7d973034fd70b770cfe93b5162a7a45765d6760001b6143ad565b61a0e981600960003373ffffffffffffffffffffffffffffffffffffffff1673ffffffffffffffffffffffffffffffffffffffff16815260200190815260200160002060008a81526020019081526020016000205461b73790919063ffffffff16565b600960003373ffffffffffffffffffffffffffffffffffffffff1673ffffffffffffffffffffffffffffffffffffffff16815260200190815260200160002060008981526020019081526020016000208190555061a1697fec2f3253ba1e944ec9c28171fade64664209f5748718535925f66cd33fa2e27e60001b6143ad565b61a1957fe4dd45286e94de0fdd22deaca4af48374806881f99c81b9e3b84dd4bf77ba46c60001b6143ad565b61a19f878261c3ed565b61a1cb7f034592d0b9623a55e32c47ee9dfc560a536d0a3a7bce93b8610441f9c31f7ac760001b6143ad565b61a1f77fde423aac9e758f41f80ed74e6ade2674e350c4ea50322763492937bd4ffc044f60001b6143ad565b61a2008761cf52565b61a22c7f8640db2afcaf537ecffa727847ad75bd703d4852d25b1c7af5be0b0c5e31a29660001b6143ad565b61a2587ff8290a9d6a058bc7a6c13f5c147c8b949a58ad770b333aa3a4d79b13d2a6cc3160001b6143ad565b61a2648784868461d72d565b61a2907f143914d68f5fc7c320d157e36b3554cdc8c5e177532eef24eb6e602e69b9dc9c60001b6143ad565b61a2bc7f8143e64078e3a57a9b83fb5a248209688ffb9d0b4ea807fdcd32a2c9ce74c99b60001b6143ad565b600082111561a5205761a2f17f1737d0e182b71646dca77932cb19ba5935c7ab24b49798d9fc2dc561a8a7180c60001b6143ad565b61a31d7f2ff0fa203b13a8a0753e0c4a98955d9e3bfd0d0718d1e76ea2afda3185fb067d60001b6143ad565b61a3497f3a76b33099114723596b34f4808854bf0d31c403c90e9215d73e9af7211281ac60001b6143ad565b600085610140015173ffffffffffffffffffffffffffffffffffffffff1663a9059cbb33856040518363ffffffff1660e01b8152600401808373ffffffffffffffffffffffffffffffffffffffff1673ffffffffffffffffffffffffffffffffffffffff16815260200182815260200192505050602060405180830381600087803b15801561a3d757600080fd5b505af115801561a3eb573d6000803e3d6000fd5b505050506040513d602081101561a40157600080fd5b8101908080519060200190929190505050905061a4407f7a45cece3f1a5b9eb94ed8d55a4ac1032c771c3ed7763440dffd58a07f47e8b460001b6143ad565b61a46c7f84da53a161eb34959bee64ef2d056ada10d1417da934a724d01acd431cfcb3b060001b6143ad565b61a4987f82e77a5fb53cfad710080846366998b48370af6e15b1b0342f28c2278b76ce7260001b6143ad565b8061a4ee576040517f08c379a000000000000000000000000000000000000000000000000000000000815260040180806020018281038252603981526020018061e3e86039913960400191505060405180910390fd5b61a51a7f5a89ad8ab5452a75c918bf5e84f60666d4067aaf8ab5d74028d20672d1e29f1960001b6143ad565b5061a54d565b61a54c7f33d0fd640530abb15087447dc7bced848fe1259c47d0817f8ad1e7506f1b975960001b6143ad565b5b61a5797f43eb29afcdcef52f4105ce66d594152fbf8cf9a345f38166f980511e40b2645b60001b6143ad565b61a5a57fc55b5598b3cddbcb5a546dc90cd117aded4d1bd7a665069ee4f92e8fea63abff60001b6143ad565b3373ffffffffffffffffffffffffffffffffffffffff167f5798ec577126413c34eec76755f7164dc2f21b7d22d79c3c2a20d321dea24ba08883604051808381526020018281526020019250505060405180910390a250505050505050565b61a6307fcd966935353bda444816eec693f810b1bcd54d4d073398cf308bf2fbe3b263e360001b6143ad565b61a65c7f0b74fe531ffaab939a53b7189096ede82dbb739ff99eb19a85bc9e815a4bf99460001b6143ad565b61a6887fa87e72442e527d7532bf613592e6383a135437fed068fc3d9fef77090a63ee9760001b6143ad565b61a6b47f8a8f02a5a4fef27b28cf23e0bd5c5283abcc790a81549bee87f7096940de35b060001b6143ad565b600073ffffffffffffffffffffffffffffffffffffffff168173ffffffffffffffffffffffffffffffffffffffff16141561a73a576040517f08c379a000000000000000000000000000000000000000000000000000000000815260040180806020018281038252603081526020018061e04e6030913960400191505060405180910390fd5b61a7667f4abb75ba6e20ad9a8eaad46ec10eabfbf8b8185420bd7c2ceedecee8764e84b360001b6143ad565b61a7927ff904c5fd956edcd18ded43fadb89d3e5311a88bc1fdc4242774ab45fa666462b60001b6143ad565b61a7be7f63e0f6b55c5a25766a8ee5960e284924cd6cb69f392d660b7c2e69454731fe5f60001b6143ad565b8073ffffffffffffffffffffffffffffffffffffffff16600760009054906101000a900473ffffffffffffffffffffffffffffffffffffffff1673ffffffffffffffffffffffffffffffffffffffff163373ffffffffffffffffffffffffffffffffffffffff167f60452ee74fb08abf5725eba28508ae637c75d7c59c13091cdda93de07ee01ce160405160405180910390a461a87d7fa89b56f9cbff042ddbd40975d849a6c306c28b9c7a9f59679a46cffebfa481c360001b6143ad565b61a8a97f8baa7b1fdb6eb7b3f361bbf4c808c060c7478ebdbeacb7009b0093519eef4e5360001b6143ad565b80600760006101000a81548173ffffffffffffffffffffffffffffffffffffffff021916908373ffffffffffffffffffffffffffffffffffffffff16021790555050565b61a9197f5dba51d03ea8e4fa7fcf50453a95d2d0be10d32a3fb8e98eb04a03a8c924dc0b60001b6143ad565b61a9457f256e203c5516bed84ff857fae390e709522aed56b5cf4fb0b8b1aa605787009c60001b6143ad565b61a9717f9dd2ce83121fc9a27c44702515c7e5bad4f1b0fc189aef59bd8db773f23fcd2660001b6143ad565b61a99d7fcb7235a5ded29d8c765b01592980bc36ab36482f6fb9a6d64ccdbf6154c9515c60001b6143ad565b61a9a6336146f5565b8061a9fe57503373ffffffffffffffffffffffffffffffffffffffff16600560009054906101000a900473ffffffffffffffffffffffffffffffffffffffff1673ffffffffffffffffffffffffffffffffffffffff16145b61aa53576040517f08c379a000000000000000000000000000000000000000000000000000000000815260040180806020018281038252603581526020018061e3b36035913960400191505060405180910390fd5b61aa7f7f9462da58c4b4f9c2fefd8ef2f7c3a4909f4f2533a97706783988aa71bc49918e60001b6143ad565b61aaab7f764d97a34b52dc1cf73063621efe7ec2d1c55ef109c70bbe0a50b56d1b89fcbc60001b6143ad565b61aad77fb37b9345fd1da1ede1d452a366df2b72de7d60ce79d6e6d5991ad6814b5f0c3460001b6143ad565b600033905061ab087f07ff9d09acb29e01f82a65be19be798992a7e4fafb16b900a9bcf9ca77ac3f5a60001b6143ad565b61ab347f988e3c68c7acd53b40e77dd1ea4241338cd10182889550fdd80e29696f860bbf60001b6143ad565b600073ffffffffffffffffffffffffffffffffffffffff16600560009054906101000a900473ffffffffffffffffffffffffffffffffffffffff1673ffffffffffffffffffffffffffffffffffffffff161461ac385761abb67f54780788f9bf8584d54bf4cc4943ba8bc83ac804011e89520b6005be9177230f60001b6143ad565b61abe27fc5ed745f2e70dd07837a392031fde8061823885b1b011e514c52439e76b9af8560001b6143ad565b61ac0e7f5f9a3bd40716d7d9e7574395891f7f0aa323c6e4bd5273dbc66d5ba7879b64e960001b6143ad565b600560009054906101000a900473ffffffffffffffffffffffffffffffffffffffff16905061ac65565b61ac647fa4d6b933fdd56f426de28e539a047494a257eef4f7dbaf320da04f3e054de5a960001b6143ad565b5b61ac917ff04c20c949e6b72c0681623026083ad51672b7d73cdaf61c3802dc3d142b33e460001b6143ad565b61acbd7f6ce14dfe14fe605ba57ca5162006ee712d87bc3428fa047328131ce4c95e237460001b6143ad565b6000600190505b600454811161b2ef5761acf97f53bee2e90458706d235e231a96c5b79963ea992231858c035a0de1541745fc7560001b6143ad565b61ad257fcc9e461887b8ef6bb19351d4694ae99d8113429af1662c5ee29171cf4a9c38c260001b6143ad565b600c600082815260200190815260200160002060009054906101000a900460ff161561b2b55761ad777fa100bfa14d290e8c70ebe5cbdf9ef24dfb02756548d260e9b50d8ecf964f0cb460001b6143ad565b61ada37f1b202c8dae0740c20a2ff89c1968d1637a7ab161c581b7a08e7f0711ba57c66560001b6143ad565b61adcf7f9ed0b892a0766e12e16b26d2363ae060b1b211302a9031481f6b889c68cb2cc760001b6143ad565b600061ae0d6008600084815260200190815260200160002060090154600b60008581526020019081526020016000205461d9c190919063ffffffff16565b905061ae3b7f4bcbecea127467b89a4a8dda4664bc821f8bacbeaa0ab35a76ade67f2ae1eb3c60001b6143ad565b61ae677ffabf93cdb41ad7545395829064c555d40a030b1472b4f3ae285035f2e60bc1df60001b6143ad565b6000600181111561ae7457fe5b60086000848152602001908152602001600020600a0160149054906101000a900460ff16600181111561aea357fe5b141561b0555761aed57f3aff474ad01699d604d96308d7b9d46bc34cfeb1ee9b00283139d53f41f6bf2f60001b6143ad565b61af017fe347bbb2c2c2f2b613338725c02b85846a5984878a308afbcde227470dba130b60001b6143ad565b61af2d7f7bc1d58153fe8fefbe3fb33440a1f638f9314904835fb95b41348628b942c23a60001b6143ad565b8273ffffffffffffffffffffffffffffffffffffffff166108fc829081150290604051600060405180830381858888f1935050505015801561af73573d6000803e3d6000fd5b5061afa07f42bcb0901f7bd1072a3a83ef19776668acd8109066a530bf2a3e38906ae5066360001b6143ad565b61afcc7f33cab331a764e35fc37ff2c2cdf63a57170dfe29a679ae421ba932d29d3fb47460001b6143ad565b8273ffffffffffffffffffffffffffffffffffffffff163373ffffffffffffffffffffffffffffffffffffffff167fe5f003b9660aa49e20ff06aa0013c74df4791fd3489ec2693d3d78db7f47285c846000856040518084815260200183600181111561b03557fe5b60ff168152602001828152602001935050505060405180910390a361b2af565b61b0817fda7bd1ac43e85971a4b38d5c812fd5315e71e18533fcfcbab9b10ea11e84b13260001b6143ad565b61b0ad7f01bcca6890dfae3a0d9483b2efb1e73c2ed75fddb2055013fc255921fcffd0af60001b6143ad565b61b0d97f1a9ddb01a03292ce9c72f562c4d9a2dcba1a7baa5bd2021078a57342416e71a760001b6143ad565b60086000838152602001908152602001600020600a0160009054906101000a900473ffffffffffffffffffffffffffffffffffffffff1673ffffffffffffffffffffffffffffffffffffffff1663a9059cbb84836040518363ffffffff1660e01b8152600401808373ffffffffffffffffffffffffffffffffffffffff1673ffffffffffffffffffffffffffffffffffffffff16815260200182815260200192505050602060405180830381600087803b15801561b19657600080fd5b505af115801561b1aa573d6000803e3d6000fd5b505050506040513d602081101561b1c057600080fd5b81019080805190602001909291905050505061b1fe7fd31bfc3837838ab3e8e5e344901b69827ee0a1b43710efeb2eb6e48bb2bf377360001b6143ad565b61b22a7f0e313dc839520594387bfc146ea64cf13546e043ce6cca7dbf207acc326f335e60001b6143ad565b8273ffffffffffffffffffffffffffffffffffffffff163373ffffffffffffffffffffffffffffffffffffffff167fe5f003b9660aa49e20ff06aa0013c74df4791fd3489ec2693d3d78db7f47285c846001856040518084815260200183600181111561b29357fe5b60ff168152602001828152602001935050505060405180910390a35b5061b2e2565b61b2e17f1044dc8eca2327d29135df74b3a1c5a71ea389acec3722b97c86e029cd3cb01360001b6143ad565b5b808060010191505061acc4565b5050565b600061b3217f44698d1e9a904ed1284ff1ffbc3dd61250c83d2c71afd5df19fbf19c6190a1c260001b61da8f565b61b34d7fa3a4b98cb2a23eda9dbb54b77b676d94ca9d1d4bafcc15caee09e68074b0ef8d60001b61da8f565b61b3797f3c0e96b55c01aeef942723329b7f27779568810ddd00a05282ffd2e3b5d233d760001b61da8f565b600083141561b40f5761b3ae7ff802f4a238c6bfb87737692d90643ed6d1e91071b816804127f57dca78bfaab660001b61da8f565b61b3da7f9c7552f9a426f225c2850fa12a0dc5fb398b1adc4885e41fd5a32fae1dbf05d760001b61da8f565b61b4067f88253dfa1829ebe573c7def7f8d624e362791a1e5da86330776d1836a357555360001b61da8f565b6000905061b607565b61b43a7ec5af928e6c63fb10ff91a6c5a4e910c4f39f595f742d8e52dc11b03ad6250f60001b61da8f565b61b4667f5e551b5129d493f012d238e272eb615eaa6959509de842125d5c3b203db4ec2660001b61da8f565b61b4927f6eeef49995c967235a764d0bfc2ddf3ad4e6890ca3a3e7024c52da8393db1ce160001b61da8f565b6000828402905061b4c57fab80a6313ea3c5926e33d7cfa6c464eb729cc09a2e212bce50dc9d97fae0ed7260001b61da8f565b61b4f17fcf8cc8694fe56eef0897d8bf5580925daf8927e537ada7fb46a3727fe18d423260001b61da8f565b61b51d7ff5b30a17ff5e5b532b98d8059efeb460d05236f98b90e61b8794894cfad8502d60001b61da8f565b8284828161b52757fe5b041461b57e576040517f08c379a000000000000000000000000000000000000000000000000000000000815260040180806020018281038252602181526020018061e2f06021913960400191505060405180910390fd5b61b5aa7f9fdef838f8fa27d2dbdb6cfecf3f275aa85c5ae07d712150d6e17c19c215bfd560001b61da8f565b61b5d67fe9975f5879861c66ca2a2d35617f5a37951b7cf797008080c2db7371f45b3b1460001b61da8f565b61b6027f1040ca89b272f25ce391ff02203288f6f7b9bee30a94da64205ca6d937da6b3460001b61da8f565b809150505b92915050565b600061b63b7fa4b53dcce60c93e2c60fa6b35fc2caf97736f23642ea2c793c86b5d9cefcd35860001b6143ad565b61b6677f44ec31de0477863a6a67fb31990250562be4f59a3de73987c9b17df05712c84760001b6143ad565b61b6937f4ba13b49aac54e2bb0a57da2ad46f0e1c87f0187ebfe5380cfad544e45408a2960001b6143ad565b6000600190505b600454811161b7335761b6cf7f012e5bf791c6ab6bcd46b6def5c735bf330edcd8b5d954d843712c31d88f54a860001b6143ad565b61b6fb7f488aedc98a520bd06ef1e1f00a48c0beaf7cfb84d17cf76a58f0472a0e87535460001b6143ad565b61b72460086000838152602001908152602001600020600201548361b73790919063ffffffff16565b9150808060010191505061b69a565b5090565b600061b7657fbaf9c024e95ded51de10de581f7e9a5f9278d7d44c88913bedce3e2dd10f64ba60001b61da8f565b61b7917fc54665a8398e9a7e108333c05bd60b786b5c6620add6f03718489066cdf4fa8f60001b61da8f565b61b7bd7fbf6db928e163d9f59e0f205ed6023acfccceb125f3a96bdeeea0a0b33746dbd760001b61da8f565b6000828401905061b7f07fda1f611a7ae523006cfa4e37c35a2ad88d939645e316417be5c71c6d1012fee060001b61da8f565b61b81c7fba19c50fb18fc1ea6c6cf800b5518af3902a832de775b543b58d5495a00bf67360001b61da8f565b61b8487fffc23a720492c3b2a8e1cffab47c814debe3e6b6e15d8bdab0719a42758eea0760001b61da8f565b8381101561b8be576040517f08c379a000000000000000000000000000000000000000000000000000000000815260040180806020018281038252601b8152602001807f536166654d6174683a206164646974696f6e206f766572666c6f77000000000081525060200191505060405180910390fd5b61b8ea7f832790f69709d076ed0dfcd48e5589a4d45bfc4f71042ad4dde2bc7eb90e539560001b61da8f565b61b9167f8840e735ebdf3bcd2d42eb9c3081a59867a5d7290d1ac576e7491bc1920b28c660001b61da8f565b61b9427fed0d950aaaaa99bb131a51c630fe967814c6a8eca5750c5f5d395ed7e6fc4df560001b61da8f565b8091505092915050565b600061b97a7f692a0cfdea6cb12cdfcaa599c058fa5662531cebd540556a6d1c27ae01b4cea360001b61da8f565b61b9a67f2cce8d8afd666e4919d1ece0b47a35eda094c843996926984c8b17a0d5cd2f7160001b61da8f565b61b9d27f936781d4063de1913a3eda99a7c2145fe8a9c61ba2abe4fa4e7dd270bf8b933960001b61da8f565b61ba1283836040518060400160405280601e81526020017f536166654d6174683a207375627472616374696f6e206f766572666c6f77000081525061da92565b905092915050565b600061ba487f91e9553b8f91db975c749d5c94abbce1e296644e5342b3f6db822e21c132911d60001b6143ad565b61ba747f2b0e88aaa0157cb7c3170221a6f349f6c3fcc28be6325238a0caeff455bfecc860001b6143ad565b61baa07f1d7d2b6b4d5f5d125a5de72a1a2749ffb2cc381a603a980b27bf0cd3f8942e2f60001b6143ad565b61bacc7f42f0e56580982a6b9555e748d4a68e977f7ca06549add8b930c033de27969dc660001b6143ad565b60006008600084815260200190815260200160002060030154141561bb3c576040517f08c379a000000000000000000000000000000000000000000000000000000000815260040180806020018281038252602681526020018061e2696026913960400191505060405180910390fd5b61bb687f05c1468418341081ac7af113c7504e8a76d43f3f721fffdba85f56bd3a3fd44860001b6143ad565b61bb947fc5666b5dd4c45e66a17e768e0d794b9c8e8301e98fd8b84da8112d5fa58867da60001b6143ad565b61bbc07f81a4305675c0b8c084beeb0305b97d9991983301d80bc035b0011f8f2e379bfb60001b6143ad565b61bbec7fbdce033008dfa407030bb5743bf2d2b929c1bf01137a44eb27b043b471b374cf60001b6143ad565b600c600083815260200190815260200160002060009054906101000a900460ff161561bc80576040517f08c379a00000000000000000000000000000000000000000000000000000000081526004018080602001828103825260188152602001807f4f726967696e73426173653a2053616c6520656e6465642e000000000000000081525060200191505060405180910390fd5b61bcac7f653a3ae263eaf8831f43619f01c20299737aa4d8f81cda08ccf8b9db7440c63460001b6143ad565b61bcd87f60489549f00dabf3d8324064990191794c79718e9053e38ab4b836b51fd5e46260001b6143ad565b61bd047f381a648954f161b51106d4756e1291f86490cea3294456d842807618ef7a6cad60001b6143ad565b6000600381111561bd1157fe5b60086000848152602001908152602001600020600a0160169054906101000a900460ff16600381111561bd4057fe5b141561bdd35761bd727f826ea340f58bb5144a38b450ef6a727af6ac000785087f32e40388aa0d28bc0060001b6143ad565b61bd9e7fe82ce36dc34b7add076f895646759c91899df7907fb34448e5e235136e3aef0f60001b6143ad565b61bdca7ff0c51105c5ae5ed1776e253721e6e6f6e31dbaded74414dea4624c571a6bde0860001b6143ad565b6000905061c3e8565b61bdff7f101852a9113711b402240923b0d1e629ae7d7ca5becbb76d66a05b64cc60980860001b6143ad565b61be2b7fe590d18255fe7891cffc828b79baeb6523a8568fd69b61e086a6f0fcbc243dfc60001b6143ad565b6001600381111561be3857fe5b60086000848152602001908152602001600020600a0160169054906101000a900460ff16600381111561be6757fe5b14801561be8a575060006008600084815260200190815260200160002060020154145b1561bfa05761bebb7fbb458ef8a39e3e067daebcb5d53d3fb5c54e8616f13b9f0ddabd3e74845ff6d760001b6143ad565b61bee77ff4ed907481f89ff0c1bc33110ba6502e011bd9385bbef7dca729ef2e1cdc561a60001b6143ad565b61bf137ffc0bd6854809a04915e21229932f4d6892de984da37d8e1517e037b93ef734fe60001b6143ad565b6001600c600084815260200190815260200160002060006101000a81548160ff02191690831515021790555061bf6b7f254a8656b5fcf06b0083312b35c2328e28b344405392342d659d4602c150e85560001b6143ad565b61bf977faa9b6b98fd178e750fd3baad7d056b4bffc4ef09a87fb998236bbaf1b9fb35cb60001b6143ad565b6000905061c3e8565b61bfcc7fd68bec896d7bd84e20354a179d9a4ddc80288c801366b87ce9f21b6da33f71f560001b6143ad565b61bff87f9652e4144468065a760c5139b65fc3a9a9e73e4dca62146ddc7134b9b8a759d060001b6143ad565b60038081111561c00457fe5b60086000848152602001908152602001600020600a0160169054906101000a900460ff16600381111561c03357fe5b14801561c0555750426008600084815260200190815260200160002060040154105b1561c16b5761c0867f5bd9787c3c7e9cc75eb59e9dffbf4bee43e3821e4d31038dbd7d10c58feb689360001b6143ad565b61c0b27fa37d83cc6b868a73454d58877d9ac7dda9eefbe6334346696914e9232bb1745360001b6143ad565b61c0de7f8158d57ef96ba67047c30800db4577dfe0ca4104153b7eb1d2fc218ff883236460001b6143ad565b6001600c600084815260200190815260200160002060006101000a81548160ff02191690831515021790555061c1367f9c5c553679000555d9cf4875be4fc3479b69a32c9a03bd9c66e8a3341a31089260001b6143ad565b61c1627ff8976ff97af1198bada7dd45ed38eab3545a835a672714f9b76d56ff8b6cd8e360001b6143ad565b6000905061c3e8565b61c1977f0301057208a5a94ac013849972790f73743de9034b62f377fe9f5c237e9d66e960001b6143ad565b61c1c37f9590711820a2098d2a92e95d5f7212b561679efdc9c4db663cb9bdb355249b3560001b6143ad565b6002600381111561c1d057fe5b60086000848152602001908152602001600020600a0160169054906101000a900460ff16600381111561c1ff57fe5b14801561c24957504261c2476008600085815260200190815260200160002060040154600860008681526020019081526020016000206003015461b73790919063ffffffff16565b105b1561c35f5761c27a7feefd72a8f312758bc56ea318d6313df2c3ce2363d6554f604f72a1900b38440d60001b6143ad565b61c2a67f5dd6f7d37fb6b95e7a85674a2788b3aac501bb21ead7dad51bbfe508b19b47bb60001b6143ad565b61c2d27fa9d499257f48a23cb752e3464ba0e74cf95379dacb39e2c44001f700cceb512560001b6143ad565b6001600c600084815260200190815260200160002060006101000a81548160ff02191690831515021790555061c32a7f06e6f52020f1acba7fa1f013fb60c488b63064153300fd0970afa15aa44e12ba60001b6143ad565b61c3567fad082986a549b72bb2ef917d00601e76577fd7381a00a89b3a9c5fc65681f1c660001b6143ad565b6000905061c3e8565b61c38b7f20641234ff965e95be45927e2d84e19418ef9e5028b6410f9913bede8882bbff60001b6143ad565b61c3b77f18fdd12d7afd7d16cb2175687f3cf4e83bf565af96ba931b780cafc804c964b960001b6143ad565b61c3e37f35102aa52645102ead5ee786c00236873bc202acc71a26ad08b7cf01985d5ae560001b6143ad565b600190505b919050565b61c4197ff9fc9ac43adb81975cb7ac1a0522b5a6e3b89bc5266550411e6aa9bc3086e27760001b6143ad565b61c4457ff2b20dcbb930dc8499f5be0056f5d8a86d9471b468b1182d64d7a71c0091c22a60001b6143ad565b61c4717f19e92a1895816eb2ff4889583b6b387302e2956541120ceb6338e149ec62e7f560001b6143ad565b61c47961df32565b60086000848152602001908152602001600020604051806101e001604052908160008201548152602001600182015481526020016002820154815260200160038201548152602001600482015481526020016005820154815260200160068201548152602001600782015481526020016008820154815260200160098201548152602001600a820160009054906101000a900473ffffffffffffffffffffffffffffffffffffffff1673ffffffffffffffffffffffffffffffffffffffff1673ffffffffffffffffffffffffffffffffffffffff168152602001600a820160149054906101000a900460ff16600181111561c57057fe5b600181111561c57b57fe5b8152602001600a820160159054906101000a900460ff16600281111561c59d57fe5b600281111561c5a857fe5b8152602001600a820160169054906101000a900460ff16600381111561c5ca57fe5b600381111561c5d557fe5b8152602001600a820160179054906101000a900460ff16600481111561c5f757fe5b600481111561c60257fe5b81525050905061c6347f3b054abf37860a2714d0a9ad1b783fcd0e6fa94498355b7754c156895bb146ce60001b6143ad565b61c6607fb9926ce079f4125ae597e1f719cab9c393336bf1750e2b071ac199d4debd923760001b6143ad565b61c68c7fcddfccff0f8bf32503b213e9063756621cb8fdd325eda0caccd4d497f74eed8060001b6143ad565b6000600481111561c69957fe5b816101c00151600481111561c6aa57fe5b141561c701576040517f08c379a000000000000000000000000000000000000000000000000000000000815260040180806020018281038252602b81526020018061e498602b913960400191505060405180910390fd5b61c72d7f4416945b53319e4ec9deb47af2e8fd52893733890f4c86c3681566b771f5b9b960001b6143ad565b61c7597fc52ba53c69ee645c69c2585d01f189150442bdb44c254d65df22aa68034332b260001b6143ad565b61c7857f0253630e1c054ff74ded9a339dbd79e70ff306a663f3338ba5f46834a9db5df960001b6143ad565b6001600481111561c79257fe5b816101c00151600481111561c7a357fe5b141561c8fa5761c7d57f3646fd7f09fd85b09a73c6c602668804954450315ab76a6390e37f6c20db361360001b6143ad565b61c8017f8f62bd1130d507a580f5087fce789459ec9fc6521daa2a25afb672feae556e3c60001b6143ad565b61c82d7f11c02fd97e6999549fec07fd06f0149b10f5a46178cdaf5f01568690f7ac7ed960001b6143ad565b80610140015173ffffffffffffffffffffffffffffffffffffffff1663a9059cbb33846040518363ffffffff1660e01b8152600401808373ffffffffffffffffffffffffffffffffffffffff1673ffffffffffffffffffffffffffffffffffffffff16815260200182815260200192505050602060405180830381600087803b15801561c8b957600080fd5b505af115801561c8cd573d6000803e3d6000fd5b505050506040513d602081101561c8e357600080fd5b81019080805190602001909291905050505061cf4d565b61c9267f83fa75b60aa16ae1534b5f2fd98463374e1d6cce3f80626b98e69819250be0f960001b6143ad565b61c9527f536f130e6c202974e8b57bcbfaff295ec0d3a76da482c0116a104957fe491aa460001b6143ad565b6002600481111561c95f57fe5b816101c00151600481111561c97057fe5b141561ca685761c9a27f3f32af1864c7fca16884088dd7358f997f88a1dd36e82b3002006e98d16a4bd860001b6143ad565b61c9ce7f37d067185cf0ed8d38419803410f1716088ceb2af32ec97fdf4e2d331149b92960001b6143ad565b61c9fa7f311e27a538d4f9b27d119434d744ab7ca0157cf414ff70f500cf1c0382b6acb060001b6143ad565b6040517f08c379a00000000000000000000000000000000000000000000000000000000081526004018080602001828103825260148152602001807f4e6f7420696d706c656d656e746564207965742e00000000000000000000000081525060200191505060405180910390fd5b61ca947f831edd8210081558c15f72013015cf79e66f53d988b1b4ce035db416a390af4960001b6143ad565b61cac07f69ab85ec1959dae9399396c29c979dc439babcd144afb503f45f7df1715d8d6560001b6143ad565b6003600481111561cacd57fe5b816101c00151600481111561cade57fe5b141561cdb25761cb107f89e3055aa3d91f79a08f927d0783eaec5f061d5d18142239b36fc869cecce8d160001b6143ad565b61cb3c7f8648e6d12fba90b4a76b0937cd0bd474d9bc3629ffb893cd4dfc16efc6fcf0ca60001b6143ad565b61cb687fc5900c41f695300e3626c31031248b7a646c5771ea4758814d32cd34f76175ee60001b6143ad565b600660009054906101000a900473ffffffffffffffffffffffffffffffffffffffff1673ffffffffffffffffffffffffffffffffffffffff1663095ea7b3600760009054906101000a900473ffffffffffffffffffffffffffffffffffffffff16846040518363ffffffff1660e01b8152600401808373ffffffffffffffffffffffffffffffffffffffff1673ffffffffffffffffffffffffffffffffffffffff16815260200182815260200192505050602060405180830381600087803b15801561cc3357600080fd5b505af115801561cc47573d6000803e3d6000fd5b505050506040513d602081101561cc5d57600080fd5b81019080805190602001909291905050505061cc9b7f5453e20c79af3f5ab1b0bfb522abccf809e6639a18ecfa1ba10d11966d76dce160001b6143ad565b61ccc77f7ad0f6dfc11c66b408b60669b07af67ea76aca820ad0c3b5e055132cbc1ec49a60001b6143ad565b600760009054906101000a900473ffffffffffffffffffffffffffffffffffffffff1673ffffffffffffffffffffffffffffffffffffffff1663849a681733848460e001518561010001518660c001516040518663ffffffff1660e01b8152600401808673ffffffffffffffffffffffffffffffffffffffff1673ffffffffffffffffffffffffffffffffffffffff16815260200185815260200184815260200183815260200182815260200195505050505050600060405180830381600087803b15801561cd9557600080fd5b505af115801561cda9573d6000803e3d6000fd5b5050505061cf4c565b61cdde7ffefa5cec4fa9064e36404a692aad2a4db3f00a8438648b79ac58c8efda8e9a6f60001b6143ad565b61ce0a7fca3dc0d5614ae19551e6f058c959c337c5c22c82754df388da3734d2a0a4ab7f60001b6143ad565b60048081111561ce1657fe5b816101c00151600481111561ce2757fe5b141561cf1f5761ce597f60f55a1f103c9a1119f2497ee621a398ee03b5d78d344f124836bbcf3c1df60860001b6143ad565b61ce857f3e656205ddf82be935d887b89005da8de1b8f0e9fb6eafd4f983417c1b4f3f1160001b6143ad565b61ceb17fcc79ab918c227816062423fa2b69e1d6e910682193d3fad9f566c9765af7345760001b6143ad565b6040517f08c379a00000000000000000000000000000000000000000000000000000000081526004018080602001828103825260148152602001807f4e6f7420696d706c656d656e746564207965742e00000000000000000000000081525060200191505060405180910390fd5b61cf4b7f06dbd710029f7ef5b7e4d709a390227aa1309e1157bd871634c025f139dec06060001b6143ad565b5b5b505050565b61cf7e7faf3334b7c8f6d3571478be0fc8dedeb7d18379480990f62375c3e54d4e07291060001b6143ad565b61cfaa7fbce63d97d8517956c409d8ba2f4af181e55e9272dd33c2559555d7561886a81c60001b6143ad565b61cfd67f5573ca7618e5e970e32cfff13dc92fae4d07074f0a60674bd0323856b82dc4a860001b6143ad565b61cfde61df32565b60086000838152602001908152602001600020604051806101e001604052908160008201548152602001600182015481526020016002820154815260200160038201548152602001600482015481526020016005820154815260200160068201548152602001600782015481526020016008820154815260200160098201548152602001600a820160009054906101000a900473ffffffffffffffffffffffffffffffffffffffff1673ffffffffffffffffffffffffffffffffffffffff1673ffffffffffffffffffffffffffffffffffffffff168152602001600a820160149054906101000a900460ff16600181111561d0d557fe5b600181111561d0e057fe5b8152602001600a820160159054906101000a900460ff16600281111561d10257fe5b600281111561d10d57fe5b8152602001600a820160169054906101000a900460ff16600381111561d12f57fe5b600381111561d13a57fe5b8152602001600a820160179054906101000a900460ff16600481111561d15c57fe5b600481111561d16757fe5b81525050905061d1997f0edbd8684422fb9a817dfb39ad51a6a1e2ed8648c97fc8a7fd0eaa2148d416cd60001b6143ad565b61d1c57f4bbdbd7e92b7036b97cfc18306e32bafa852ed102613433655646047a3ee832060001b6143ad565b80602001518160400151101561d6fc5761d2017f7658ecdfd8d8732b312cb32404eb8d2c51fdf1272693c3e65e4d69eaf05e1b7160001b6143ad565b61d22d7f0bc72c8210072183a51df76e29add60aecd74d1ac04eab9ab49463c9ae8c79fd60001b6143ad565b61d2597f3362701b0fca282af2a6c7370630e708ad0e557aae21b3fe9f3c91bf8f75de5160001b6143ad565b80600001518160400151101561d5a15761d2957fedcb6f6f1db5453ea62f665a6f8190343173138fee00abcc2d3f4807541a1bbf60001b6143ad565b61d2c17f6ac1fab115fffec528b63d7e86dba3e43cc0486724b6bc5e52d26d99168bc32060001b6143ad565b61d2ed7f8c482dd675875ec477f98d4b91ac0d816c7763012a250fab27dae22204553d4e60001b6143ad565b60008160400151141561d4555761d3267f10687479cf4574c2105c199a52cac67e2019daf1c8ef301b5ff4ad14564a221a60001b6143ad565b61d3527f36f3a9227aebacea9bfb503b14bf9c36f8f9aa7f1c073bfdf619f5df0e50914e60001b6143ad565b61d37e7f01460a329248328cb216d4b91efbd57f5db308662bd43304c76d362bf5419c6c60001b6143ad565b6001600c600084815260200190815260200160002060006101000a81548160ff02191690831515021790555061d3d67f9adabe64395d42bffe49041aff12f726a4a0a44a732c5c0f5ed69da48c88809260001b6143ad565b61d4027f20e0bffb0ca556643787e529f37d5a80a10aca3b39b848da077554d802ba120260001b6143ad565b3373ffffffffffffffffffffffffffffffffffffffff167f152ad6cb319c0648f84e894118c3ab080fb489f51dc96fe9c512cdeb187446c4836040518082815260200191505060405180910390a261d482565b61d4817f7694c969c62f9945319c007faa03014817bc8474475e9c963d15f911e6ddf8ce60001b6143ad565b5b61d4ae7f16b4a42193624e455f269dbec524a47b6715975e1d67daa1dc528f28b28c564160001b6143ad565b61d4da7f6a2e55800ed2e29e8b25b0e69ccd2c3842e1f527bcc4f182a81bb709626c4ec260001b6143ad565b6000600860008481526020019081526020016000206000018190555061d5227ffa6894585a102862dae64ff945e57671f07556d1a9b4d6be4e1f4dc80ff1e0e160001b6143ad565b61d54e7f69608a2dcae66b886b77f166bc9161003095e9d8533e0085acb033e467c6035060001b6143ad565b3373ffffffffffffffffffffffffffffffffffffffff167f05be2db72a541e616b902f2776f565a7a5e24042a20a5208727f7b6620a70a78836040518082815260200191505060405180910390a261d5ce565b61d5cd7f56602399bae5070426a7fa62c091b4571e081a365a0572bc6ea7c655c7e707a960001b6143ad565b5b61d5fa7ff8b907cd3ac179fc67d3c7aacc1abaf591c3d2525c2360fdc4560fa55586f1c760001b6143ad565b61d6267f8f6f28520c12dc533734858bf8c6deb833cab0ee52a95989c9b8cd94bcc671d960001b6143ad565b8060400151600860008481526020019081526020016000206001018190555061d6717f4c4d4990333d7eed3525c1319acf2143a7564db66bd55ab8e353d9129ecaadca60001b6143ad565b61d69d7fb9509c3e46ba4d92ae4139a29ec9ef2edcc63696d6d01ad73f000d286a6cdd7e60001b6143ad565b3373ffffffffffffffffffffffffffffffffffffffff167f830333ebfc6ce9e8856601707ff38342751997fafea5cd12bd5fc11076e1a445838360400151604051808381526020018281526020019250505060405180910390a261d729565b61d7287faab15ab76b90c26265bd5f07e0d3d0c779296891961aa0ea3e0803d9416027f660001b6143ad565b5b5050565b61d7597f82a5e4398186d30836ca01d3cd79052da3dfe0fc6e6f5e95d9bd4fd201d9d3a660001b6143ad565b61d7857ffbdb91767839145a3acf8d28f55e70eb505cebf298ad36c4574f8cc847e8957a60001b6143ad565b61d7b17f9cac980eb64a1c6e5488bdf9379084f165f4a5e81de9f309ba6b440cf521f91060001b6143ad565b600083111561d98e5761d7e67f8c875204c918e371346e600056c894e469f9f20bc9547d475c7c67298f54e5bc60001b6143ad565b61d8127f2a2f652ea5aad0bccc9a596ab07c1cedab273df7b97111fbf2ffa761c6a28fc960001b6143ad565b61d83e7fa74c5c3487b6db5f33bf5df8b0e8257d1485f02835ef86bb78c8ed5b9534c9cf60001b6143ad565b600082141561d8c75761d8737ff1ceaf83779cc9c0312cc98b8c4b4e2b2ce710ebb082e56df01af4300f30601060001b6143ad565b61d89f7f87bdef1c9e2c992f5ab8653535516a2f27b1f437def6d03005e86d206d50faaf60001b6143ad565b600a60008581526020019081526020016000206000815480929190600101919050555061d8f4565b61d8f37fd63c5e3214fae63baeab271f67717051a18c05e03c45ceec5535c23419d9569760001b6143ad565b5b61d9207f99fb4d88d545ba183efc65749f0818469151bf1246ce9a8e33ccf072787875b060001b6143ad565b61d94c7f70a5c4b8a4b90ec8fd3d111a6f07737186dcb95fb911e1f48e962ff7dd292de560001b6143ad565b61d97281600b60008781526020019081526020016000205461b73790919063ffffffff16565b600b60008681526020019081526020016000208190555061d9bb565b61d9ba7fcd54273b660ce6cffd80afefdec59b42d4679a3bf27ad2452ca7dd7ebf9064a060001b6143ad565b5b50505050565b600061d9ef7f996468adab2cfba5de081e00c611ca70c15d8fec7d5bf522494a62c1469ffa6a60001b61da8f565b61da1b7f9f1ba2348d57cab76c102a92e631d7e3d939d3a1ce6cb3a01a504d1656b19f5060001b61da8f565b61da477f46d4aa33cd017349564c3524038979baabbfc921b9cf218610f32f2cefa7e6de60001b61da8f565b61da8783836040518060400160405280601a81526020017f536166654d6174683a206469766973696f6e206279207a65726f00000000000081525061dcde565b905092915050565b50565b600061dac07f97bc992a4f710454ab746d4db616a64ea018383de54a85d139640731ed8b5fc560001b61da8f565b61daec7f67e24e464bd90888e5a6d6d7c05830895e792029cec27ec532870f3734c4e9ea60001b61da8f565b61db187f4039b6d8f47f4ca568e409887bf0e53b596c141aaf42f7df7fbed083576f3bfa60001b61da8f565b61db447fd3eabfc731565b9df642e5c91d1b10abe52f04d31e4ba5ae2cc5610aba56017960001b61da8f565b83831115829061dbef576040517f08c379a00000000000000000000000000000000000000000000000000000000081526004018080602001828103825283818151815260200191508051906020019080838360005b8381101561dbb457808201518184015260208101905061db99565b50505050905090810190601f16801561dbe15780820380516001836020036101000a031916815260200191505b509250505060405180910390fd5b5061dc1c7f1be1097c7e714e366e7336e422166ce73c2ec11ee3b5c610e0201606faa1e3c360001b61da8f565b61dc487f62288fe6f0a7956d13aa94e419476e92affec09faeb973818c5a82c870581e6660001b61da8f565b61dc747f2eccc13b0d77f3b98461d150ed7c0bf1e17fbc9b8605d30fcc0d7af3d9c4977e60001b61da8f565b6000838503905061dca77f090094c41ccfe2cce7f6f6a4a1a9aecd44506a466b0045ca8d92810149fede6960001b61da8f565b61dcd37f93915212060404093bbcece6fae9c03e5916d81ccc52020014493ab5283dd97560001b61da8f565b809150509392505050565b600061dd0c7f196dd912071b7ac5c8a10b8a236898e903a5c95f5189a9aeb16dc1191096752060001b61da8f565b61dd387ff25ec16e9c80532b14a66f8cd16ae291eebc856235e409a39c3fbd9dc53e53fb60001b61da8f565b61dd647ffb609f676697fca43f3242dd637f8af44d19e0456d05ec1547a1557478b8a1ea60001b61da8f565b61dd907ffc25a7e532044dc446303b3445457a6ba5f30c2ec2085a7b37e4ae0e05b09ba260001b61da8f565b6000831415829061de3c576040517f08c379a00000000000000000000000000000000000000000000000000000000081526004018080602001828103825283818151815260200191508051906020019080838360005b8381101561de0157808201518184015260208101905061dde6565b50505050905090810190601f16801561de2e5780820380516001836020036101000a031916815260200191505b509250505060405180910390fd5b5061de697f295ce5b61523fe81f08b0e41715a55fb7cc4323fa58af5f536a59e28b507ad6660001b61da8f565b61de957f4460e22500904e71005e8ef95355467cd96d8038ca3b358379ef52915f4cd11a60001b61da8f565b61dec17f898838ee4191c5d93d43aba28d5dace210f5b5fe59d06155be60fc494d99a9f060001b61da8f565b600083858161decc57fe5b04905061defb7f6d2a274d329c86c87e9d63cea7c87a6fd3d3ca9ab129144ff43f4724a38a4a5960001b61da8f565b61df277fbb4fe2c1c37d48811af5ff17eb49f43a22d0b33ae049d66f26c63e5ac81928dc60001b61da8f565b809150509392505050565b604051806101e0016040528060008152602001600081526020016000815260200160008152602001600081526020016000815260200160008152602001600081526020016000815260200160008152602001600073ffffffffffffffffffffffffffffffffffffffff1681526020016000600181111561dfae57fe5b81526020016000600281111561dfc057fe5b81526020016000600381111561dfd257fe5b81526020016000600481111561dfe457fe5b8152509056fe4f726967696e7341646d696e3a204f6e6c79206f776e65722063616e2063616c6c20746869732066756e6374696f6e2e4f726967696e7341646d696e3a204f6e6c792076657269666965722063616e2063616c6c20746869732066756e6374696f6e2e4f726967696e73426173653a204c6f636b65642046756e6420416464726573732063616e6e6f74206265207a65726f2e4f726967696e7341646d696e3a204164647265737320697320616c726561647920616e206f776e65722e4f726967696e73426173653a205468652073616c652073746172742054532063616e6e6f742062652061667465722073616c6520656e642054532e4f726967696e73426173653a204465706f73697420416464726573732063616e6e6f74206265207a65726f2e4f726967696e73426173653a204164647265737320616e642054696572204172726179206c656e677468206d69736d617463682e4f726967696e73426173653a20546f74616c20746f6b656e20746f2073656c6c2073686f756c6420626520686967686572207468616e207a65726f2e4f726967696e73426173653a204164647265737320746f2062652076657269666965642063616e6e6f74206265207a65726f2e4f726967696e7341646d696e3a204164647265737320697320616c726561647920612076657269666965722e4f726967696e73426173653a205573657220616c726561647920626f75676874206d6178696d756d20616c6c6f7765642e4f726967696e73426173653a204465706f736974206973206c657373207468616e206d696e696d756d20616c6c6f7765642e4f726967696e73426173653a2055736572206e6f7420617070726f76656420666f722073616c652e4f726967696e73426173653a2053616c6520686173206e6f742073746172746564207965742e4f726967696e73426173653a20436c6966662068617320746f206265203c3d206475726174696f6e2e4f726967696e73426173653a2041646d696e206469646e27742072656365697665642074686520746f6b656e7320636f72726563746c792e536166654d6174683a206d756c7469706c69636174696f6e206f766572666c6f774f726967696e73426173653a2054686520626173697320706f696e742063616e6e6f7420626520686967686572207468616e2031304b2e4f726967696e73426173653a204d696e20416d6f756e742063616e6e6f7420626520686967686572207468616e204d617820416d6f756e742e4f726967696e73426173653a204465706f73697420546f6b656e20416464726573732063616e6e6f74206265207a65726f2e4f6e6c79206f776e6572206f72206465706f73697420616464726573732063616e2063616c6c20746869732066756e6374696f6e2e4f726967696e73426173653a20546f6b656e20726566756e64206e6f74207265636569766564206279207573657220636f72726563746c792e4f726967696e73426173653a20416d6f756e742063616e6e6f74206265207a65726f2e4f726967696e73426173653a204465706f73697420546f6b656e206e6f7420736574206279206f776e65722e4f726967696e7341646d696e3a2041646472657373206973206e6f7420612076657269666965722e4f726967696e73426173653a205472616e736665722054797065206e6f7420736574206279206f776e65724f726967696e73426173653a204e6f7420656e6f75676820746f6b656e20737570706c69656420666f7220546f6b656e20446973747269627574696f6e2e4f726967696e73426173653a205468652073616c6520656e642074696d652063616e6e6f74206265207061737420616c72656164792e4f726967696e73426173653a204465706f73697420526174652063616e6e6f74206265207a65726f2e4f726967696e73426173653a205468652073616c6520656e64206475726174696f6e2063616e6e6f74206265207061737420616c72656164792e4f726967696e73426173653a204d617820416d6f756e7420746f206275792073686f756c64206e6f7420626520686967686572207468616e20746f6b656e20617661696c6162696c6974792e4f726967696e7341646d696e3a2041646472657373206973206e6f7420616e206f776e65722e4f726967696e73426173653a204e6f7420656e6f75676820746f6b656e20737570706c696564206279207573657220666f7220627579696e672e4f726967696e73426173653a204e6f206f6e6520697320616c6c6f77656420666f722073616c652ea265627a7a723158204455e84ba3cbafc26c52c9ae32267af0c9cfb94d4e062e3afa07cf8e81f0521664736f6c634300051100324f726967696e7341646d696e3a2045616368206f776e65722063616e206265206164646564206f6e6c79206f6e63652e",
  "linkReferences": {},
  "deployedLinkReferences": {}
}