{
  "_format": "hh-sol-artifact-1",
  "contractName": "SafeMath",
  "sourceName": "contracts/Openzeppelin/SafeMath.sol",
  "abi": [
    {
      "constant": true,
      "inputs": [
        {
          "internalType": "bytes32",
          "name": "c__0x4263dba6",
          "type": "bytes32"
        }
      ],
      "name": "c_0x4263dba6",
      "outputs": [],
      "payable": false,
      "stateMutability": "pure",
      "type": "function"
    }
  ],
  "bytecode": "0x609b610024600b82828239805160001a607314601757fe5b30600052607381538281f3fe730000000000000000000000000000000000000000301460806040526004361060335760003560e01c80637e6ddb90146038575b600080fd5b606160048036036020811015604c57600080fd5b81019080803590602001909291905050506063565b005b5056fea265627a7a72315820e3476cdf88e896cec8997a9311dd5b3773beee775ccb18f45d3f85021f8e06b664736f6c63430005110032",
  "linkReferences": {},
  "deployedLinkReferences": {}
}