{
  "_format": "hh-sol-artifact-1",
  "contractName": "IOrigins",
  "sourceName": "contracts/Interfaces/IOrigins.sol",
  "abi": [
    {
      "constant": true,
      "inputs": [
        {
          "internalType": "bytes32",
          "name": "c__0x2b1a913c",
          "type": "bytes32"
        }
      ],
      "name": "c_0x2b1a913c",
      "outputs": [],
      "payable": false,
      "stateMutability": "pure",
      "type": "function"
    }
  ],
  "bytecode": "0x6080604052348015600f57600080fd5b5060908061001e6000396000f3fe6080604052348015600f57600080fd5b506004361060285760003560e01c8063d8c8469514602d575b600080fd5b605660048036036020811015604157600080fd5b81019080803590602001909291905050506058565b005b5056fea265627a7a7231582011070318350c618d0e8bb8a9b7791cbb95e3d0f51124e445ebe7bb07fa742f1a64736f6c63430005110032",
  "linkReferences": {},
  "deployedLinkReferences": {}
}