{
  "_format": "hh-sol-artifact-1",
  "contractName": "LockedFund",
  "sourceName": "contracts/LockedFund.sol",
  "abi": [
    {
      "inputs": [
        {
          "internalType": "uint256",
          "name": "_waitedTS",
          "type": "uint256"
        },
        {
          "internalType": "address",
          "name": "_token",
          "type": "address"
        },
        {
          "internalType": "address",
          "name": "_vestingRegistry",
          "type": "address"
        },
        {
          "internalType": "address[]",
          "name": "_admins",
          "type": "address[]"
        }
      ],
      "payable": false,
      "stateMutability": "nonpayable",
      "type": "constructor"
    },
    {
      "anonymous": false,
      "inputs": [
        {
          "indexed": true,
          "internalType": "address",
          "name": "_initiator",
          "type": "address"
        },
        {
          "indexed": true,
          "internalType": "address",
          "name": "_newAdmin",
          "type": "address"
        }
      ],
      "name": "AdminAdded",
      "type": "event"
    },
    {
      "anonymous": false,
      "inputs": [
        {
          "indexed": true,
          "internalType": "address",
          "name": "_initiator",
          "type": "address"
        },
        {
          "indexed": true,
          "internalType": "address",
          "name": "_removedAdmin",
          "type": "address"
        }
      ],
      "name": "AdminRemoved",
      "type": "event"
    },
    {
      "anonymous": false,
      "inputs": [
        {
          "indexed": true,
          "internalType": "address",
          "name": "_initiator",
          "type": "address"
        },
        {
          "indexed": true,
          "internalType": "address",
          "name": "_vesting",
          "type": "address"
        },
        {
          "indexed": false,
          "internalType": "uint256",
          "name": "_amount",
          "type": "uint256"
        }
      ],
      "name": "TokenStaked",
      "type": "event"
    },
    {
      "anonymous": false,
      "inputs": [
        {
          "indexed": true,
          "internalType": "address",
          "name": "_initiator",
          "type": "address"
        },
        {
          "indexed": true,
          "internalType": "address",
          "name": "_userAddress",
          "type": "address"
        },
        {
          "indexed": false,
          "internalType": "uint256",
          "name": "_amount",
          "type": "uint256"
        },
        {
          "indexed": false,
          "internalType": "uint256",
          "name": "_cliff",
          "type": "uint256"
        },
        {
          "indexed": false,
          "internalType": "uint256",
          "name": "_duration",
          "type": "uint256"
        },
        {
          "indexed": false,
          "internalType": "uint256",
          "name": "_basisPoint",
          "type": "uint256"
        }
      ],
      "name": "VestedDeposited",
      "type": "event"
    },
    {
      "anonymous": false,
      "inputs": [
        {
          "indexed": true,
          "internalType": "address",
          "name": "_initiator",
          "type": "address"
        },
        {
          "indexed": true,
          "internalType": "address",
          "name": "_userAddress",
          "type": "address"
        },
        {
          "indexed": true,
          "internalType": "address",
          "name": "_vesting",
          "type": "address"
        }
      ],
      "name": "VestingCreated",
      "type": "event"
    },
    {
      "anonymous": false,
      "inputs": [
        {
          "indexed": true,
          "internalType": "address",
          "name": "_initiator",
          "type": "address"
        },
        {
          "indexed": true,
          "internalType": "address",
          "name": "_vestingRegistry",
          "type": "address"
        }
      ],
      "name": "VestingRegistryUpdated",
      "type": "event"
    },
    {
      "anonymous": false,
      "inputs": [
        {
          "indexed": true,
          "internalType": "address",
          "name": "_initiator",
          "type": "address"
        },
        {
          "indexed": false,
          "internalType": "uint256",
          "name": "_waitedTS",
          "type": "uint256"
        }
      ],
      "name": "WaitedTSUpdated",
      "type": "event"
    },
    {
      "anonymous": false,
      "inputs": [
        {
          "indexed": true,
          "internalType": "address",
          "name": "_initiator",
          "type": "address"
        },
        {
          "indexed": true,
          "internalType": "address",
          "name": "_userAddress",
          "type": "address"
        },
        {
          "indexed": false,
          "internalType": "uint256",
          "name": "_amount",
          "type": "uint256"
        }
      ],
      "name": "Withdrawn",
      "type": "event"
    },
    {
      "constant": true,
      "inputs": [],
      "name": "INTERVAL",
      "outputs": [
        {
          "internalType": "uint256",
          "name": "",
          "type": "uint256"
        }
      ],
      "payable": false,
      "stateMutability": "view",
      "type": "function"
    },
    {
      "constant": false,
      "inputs": [
        {
          "internalType": "address",
          "name": "_adminToRemove",
          "type": "address"
        }
      ],
      "name": "_removeAdmin",
      "outputs": [],
      "payable": false,
      "stateMutability": "nonpayable",
      "type": "function"
    },
    {
      "constant": false,
      "inputs": [
        {
          "internalType": "address",
          "name": "_newAdmin",
          "type": "address"
        }
      ],
      "name": "addAdmin",
      "outputs": [],
      "payable": false,
      "stateMutability": "nonpayable",
      "type": "function"
    },
    {
      "constant": true,
      "inputs": [
        {
          "internalType": "address",
          "name": "_addr",
          "type": "address"
        }
      ],
      "name": "adminStatus",
      "outputs": [
        {
          "internalType": "bool",
          "name": "_status",
          "type": "bool"
        }
      ],
      "payable": false,
      "stateMutability": "view",
      "type": "function"
    },
    {
      "constant": true,
      "inputs": [
        {
          "internalType": "bytes32",
          "name": "c__0x6defa1ca",
          "type": "bytes32"
        }
      ],
      "name": "c_0x6defa1ca",
      "outputs": [],
      "payable": false,
      "stateMutability": "pure",
      "type": "function"
    },
    {
      "constant": true,
      "inputs": [
        {
          "internalType": "bytes32",
          "name": "c__0x8dbef84a",
          "type": "bytes32"
        }
      ],
      "name": "c_0x8dbef84a",
      "outputs": [],
      "payable": false,
      "stateMutability": "pure",
      "type": "function"
    },
    {
      "constant": false,
      "inputs": [
        {
          "internalType": "address",
          "name": "_vestingRegistry",
          "type": "address"
        }
      ],
      "name": "changeVestingRegistry",
      "outputs": [],
      "payable": false,
      "stateMutability": "nonpayable",
      "type": "function"
    },
    {
      "constant": false,
      "inputs": [
        {
          "internalType": "uint256",
          "name": "_waitedTS",
          "type": "uint256"
        }
      ],
      "name": "changeWaitedTS",
      "outputs": [],
      "payable": false,
      "stateMutability": "nonpayable",
      "type": "function"
    },
    {
      "constant": true,
      "inputs": [
        {
          "internalType": "address",
          "name": "",
          "type": "address"
        }
      ],
      "name": "cliff",
      "outputs": [
        {
          "internalType": "uint256",
          "name": "",
          "type": "uint256"
        }
      ],
      "payable": false,
      "stateMutability": "view",
      "type": "function"
    },
    {
      "constant": false,
      "inputs": [],
      "name": "createVesting",
      "outputs": [
        {
          "internalType": "address",
          "name": "_vestingAddress",
          "type": "address"
        }
      ],
      "payable": false,
      "stateMutability": "nonpayable",
      "type": "function"
    },
    {
      "constant": false,
      "inputs": [],
      "name": "createVestingAndStake",
      "outputs": [],
      "payable": false,
      "stateMutability": "nonpayable",
      "type": "function"
    },
    {
      "constant": false,
      "inputs": [
        {
          "internalType": "address",
          "name": "_userAddress",
          "type": "address"
        },
        {
          "internalType": "uint256",
          "name": "_amount",
          "type": "uint256"
        },
        {
          "internalType": "uint256",
          "name": "_cliff",
          "type": "uint256"
        },
        {
          "internalType": "uint256",
          "name": "_duration",
          "type": "uint256"
        },
        {
          "internalType": "uint256",
          "name": "_basisPoint",
          "type": "uint256"
        }
      ],
      "name": "depositVested",
      "outputs": [],
      "payable": false,
      "stateMutability": "nonpayable",
      "type": "function"
    },
    {
      "constant": true,
      "inputs": [
        {
          "internalType": "address",
          "name": "",
          "type": "address"
        }
      ],
      "name": "duration",
      "outputs": [
        {
          "internalType": "uint256",
          "name": "",
          "type": "uint256"
        }
      ],
      "payable": false,
      "stateMutability": "view",
      "type": "function"
    },
    {
      "constant": true,
      "inputs": [
        {
          "internalType": "address",
          "name": "_addr",
          "type": "address"
        }
      ],
      "name": "getCliffAndDuration",
      "outputs": [
        {
          "internalType": "uint256",
          "name": "",
          "type": "uint256"
        },
        {
          "internalType": "uint256",
          "name": "",
          "type": "uint256"
        }
      ],
      "payable": false,
      "stateMutability": "view",
      "type": "function"
    },
    {
      "constant": true,
      "inputs": [
        {
          "internalType": "address",
          "name": "_addr",
          "type": "address"
        }
      ],
      "name": "getLockedBalance",
      "outputs": [
        {
          "internalType": "uint256",
          "name": "_balance",
          "type": "uint256"
        }
      ],
      "payable": false,
      "stateMutability": "view",
      "type": "function"
    },
    {
      "constant": true,
      "inputs": [],
      "name": "getToken",
      "outputs": [
        {
          "internalType": "address",
          "name": "",
          "type": "address"
        }
      ],
      "payable": false,
      "stateMutability": "view",
      "type": "function"
    },
    {
      "constant": true,
      "inputs": [
        {
          "internalType": "address",
          "name": "_addr",
          "type": "address"
        }
      ],
      "name": "getUnlockedBalance",
      "outputs": [
        {
          "internalType": "uint256",
          "name": "_balance",
          "type": "uint256"
        }
      ],
      "payable": false,
      "stateMutability": "view",
      "type": "function"
    },
    {
      "constant": true,
      "inputs": [],
      "name": "getVestingDetails",
      "outputs": [
        {
          "internalType": "address",
          "name": "",
          "type": "address"
        }
      ],
      "payable": false,
      "stateMutability": "view",
      "type": "function"
    },
    {
      "constant": true,
      "inputs": [],
      "name": "getWaitedTS",
      "outputs": [
        {
          "internalType": "uint256",
          "name": "",
          "type": "uint256"
        }
      ],
      "payable": false,
      "stateMutability": "view",
      "type": "function"
    },
    {
      "constant": true,
      "inputs": [
        {
          "internalType": "address",
          "name": "_addr",
          "type": "address"
        }
      ],
      "name": "getWaitedUnlockedBalance",
      "outputs": [
        {
          "internalType": "uint256",
          "name": "_balance",
          "type": "uint256"
        }
      ],
      "payable": false,
      "stateMutability": "view",
      "type": "function"
    },
    {
      "constant": true,
      "inputs": [
        {
          "internalType": "address",
          "name": "",
          "type": "address"
        }
      ],
      "name": "isAdmin",
      "outputs": [
        {
          "internalType": "bool",
          "name": "",
          "type": "bool"
        }
      ],
      "payable": false,
      "stateMutability": "view",
      "type": "function"
    },
    {
      "constant": true,
      "inputs": [
        {
          "internalType": "address",
          "name": "",
          "type": "address"
        }
      ],
      "name": "lockedBalances",
      "outputs": [
        {
          "internalType": "uint256",
          "name": "",
          "type": "uint256"
        }
      ],
      "payable": false,
      "stateMutability": "view",
      "type": "function"
    },
    {
      "constant": false,
      "inputs": [
        {
          "internalType": "address",
          "name": "_adminToRemove",
          "type": "address"
        }
      ],
      "name": "removeAdmin",
      "outputs": [],
      "payable": false,
      "stateMutability": "nonpayable",
      "type": "function"
    },
    {
      "constant": false,
      "inputs": [],
      "name": "stakeTokens",
      "outputs": [],
      "payable": false,
      "stateMutability": "nonpayable",
      "type": "function"
    },
    {
      "constant": true,
      "inputs": [],
      "name": "token",
      "outputs": [
        {
          "internalType": "contract IERC20",
          "name": "",
          "type": "address"
        }
      ],
      "payable": false,
      "stateMutability": "view",
      "type": "function"
    },
    {
      "constant": true,
      "inputs": [
        {
          "internalType": "address",
          "name": "",
          "type": "address"
        }
      ],
      "name": "unlockedBalances",
      "outputs": [
        {
          "internalType": "uint256",
          "name": "",
          "type": "uint256"
        }
      ],
      "payable": false,
      "stateMutability": "view",
      "type": "function"
    },
    {
      "constant": true,
      "inputs": [
        {
          "internalType": "address",
          "name": "_addr",
          "type": "address"
        }
      ],
      "name": "vestedBalance",
      "outputs": [
        {
          "internalType": "uint256",
          "name": "_balance",
          "type": "uint256"
        }
      ],
      "payable": false,
      "stateMutability": "view",
      "type": "function"
    },
    {
      "constant": true,
      "inputs": [
        {
          "internalType": "address",
          "name": "",
          "type": "address"
        }
      ],
      "name": "vestedBalances",
      "outputs": [
        {
          "internalType": "uint256",
          "name": "",
          "type": "uint256"
        }
      ],
      "payable": false,
      "stateMutability": "view",
      "type": "function"
    },
    {
      "constant": true,
      "inputs": [],
      "name": "vestingRegistry",
      "outputs": [
        {
          "internalType": "contract IVestingRegistry",
          "name": "",
          "type": "address"
        }
      ],
      "payable": false,
      "stateMutability": "view",
      "type": "function"
    },
    {
      "constant": true,
      "inputs": [],
      "name": "waitedTS",
      "outputs": [
        {
          "internalType": "uint256",
          "name": "",
          "type": "uint256"
        }
      ],
      "payable": false,
      "stateMutability": "view",
      "type": "function"
    },
    {
      "constant": true,
      "inputs": [
        {
          "internalType": "address",
          "name": "",
          "type": "address"
        }
      ],
      "name": "waitedUnlockedBalances",
      "outputs": [
        {
          "internalType": "uint256",
          "name": "",
          "type": "uint256"
        }
      ],
      "payable": false,
      "stateMutability": "view",
      "type": "function"
    },
    {
      "constant": false,
      "inputs": [
        {
          "internalType": "address",
          "name": "_receiverAddress",
          "type": "address"
        }
      ],
      "name": "withdrawAndStakeTokens",
      "outputs": [],
      "payable": false,
      "stateMutability": "nonpayable",
      "type": "function"
    },
    {
      "constant": false,
      "inputs": [
        {
          "internalType": "address",
          "name": "_userAddress",
          "type": "address"
        }
      ],
      "name": "withdrawAndStakeTokensFrom",
      "outputs": [],
      "payable": false,
      "stateMutability": "nonpayable",
      "type": "function"
    },
    {
      "constant": false,
      "inputs": [
        {
          "internalType": "address",
          "name": "_receiverAddress",
          "type": "address"
        }
      ],
      "name": "withdrawWaitedUnlockedBalance",
      "outputs": [],
      "payable": false,
      "stateMutability": "nonpayable",
      "type": "function"
    }
  ],
  "bytecode": "0x60806040523480156200001157600080fd5b5060405162006c7c38038062006c7c833981810160405260808110156200003757600080fd5b81019080805190602001909291908051906020019092919080519060200190929190805160405193929190846401000000008211156200007657600080fd5b838201915060208201858111156200008d57600080fd5b8251866020820283011164010000000082111715620000ab57600080fd5b8083526020830192505050908051906020019060200280838360005b83811015620000e4578082015181840152602081019050620000c7565b50505050905001604052505050620001257fbe772ba151ce438198245007931cf4d28657c2c464fc936378d2f1a8eb70187860001b62000a8560201b60201c565b620001597ffa9ddb8c6f2fc34f38088f66ec09a076fe42374c6fd0d801638248d94a6fff1d60001b62000a8560201b60201c565b6200018d7f3db94983fa8d32e75391535d5e24d11560526cc625d75ee04be80d9a7eeaa86660001b62000a8560201b60201c565b620001c17f42a32338e7347349d416312ae30eea4548391a9a62c69730105e7b5e3176729560001b62000a8560201b60201c565b60008414156200021d576040517f08c379a000000000000000000000000000000000000000000000000000000000815260040180806020018281038252602581526020018062006c056025913960400191505060405180910390fd5b620002517f570a927c5bc1ccfb758f2598def9b418c1b3d8b767df6fc015a74a957da6a87560001b62000a8560201b60201c565b620002857f1672c3a374d8e28edf40b592874b60d0a25d3f1566300e2dc01a4879be64463460001b62000a8560201b60201c565b620002b97f54b9b909f7a52f60c44ec32271e419fa638f2829a53698b8c4bd08958512d4b060001b62000a8560201b60201c565b620002ed7f0168e63122b684b1a2e6c79fde56d2f4020c3340a5f4392f611e9a8528e4b3bf60001b62000a8560201b60201c565b600073ffffffffffffffffffffffffffffffffffffffff168373ffffffffffffffffffffffffffffffffffffffff16141562000375576040517f08c379a000000000000000000000000000000000000000000000000000000000815260040180806020018281038252602281526020018062006c2a6022913960400191505060405180910390fd5b620003a97f3f93e922db25b8139270353926d822620dae76baf5cadd08b1d86ea9584618e560001b62000a8560201b60201c565b620003dd7f3c8c82fccd0d33193a6bcbc63f3b3fb13cfb2cd580be6b16fe41a0f4b7fb9e6460001b62000a8560201b60201c565b620004117f8d3381f7f30b8a908a7c63242a423a90c85fe0f906292272255e554206ab236060001b62000a8560201b60201c565b620004457f6f96b8823eefeda86f3bff9e56ff5c53fc9d834cec91686e6a4f517c00b5a4e260001b62000a8560201b60201c565b600073ffffffffffffffffffffffffffffffffffffffff168273ffffffffffffffffffffffffffffffffffffffff161415620004cd576040517f08c379a000000000000000000000000000000000000000000000000000000000815260040180806020018281038252603081526020018062006c4c6030913960400191505060405180910390fd5b620005017f62f66c19fe6aad5f9184067361a08ade25e032b01a59c49aba41480e6fe38ca360001b62000a8560201b60201c565b620005357fff1273a6591d712e3811bf14f9ab817c7656e395f7c58dfb94c3824513df653a60001b62000a8560201b60201c565b620005697f4516ee5e54cc8ccfe63ed24861ccba57428a472ba459aea66e6277e3d5008e3260001b62000a8560201b60201c565b83600081905550620005a47f5c6871dc64c4a5de7266cd04f739cb86ebc6f62630c869574110fa44fd7a91e960001b62000a8560201b60201c565b620005d87f990762a6869ec40e82bc510ff327bbf2a3ecfd19c8661ff4bf128b999308fdd460001b62000a8560201b60201c565b82600160006101000a81548173ffffffffffffffffffffffffffffffffffffffff021916908373ffffffffffffffffffffffffffffffffffffffff1602179055506200064d7f50c29f360d14984614b13b28ba79dc08c74017e7ba8d3dba33de32448f91504160001b62000a8560201b60201c565b620006817fc122633e18d0e7bab07cd9c17556ada0accc14d165465e1047649abae54c882660001b62000a8560201b60201c565b81600260006101000a81548173ffffffffffffffffffffffffffffffffffffffff021916908373ffffffffffffffffffffffffffffffffffffffff160217905550620006f67fed1294aa68efde61362cdd32ed986237ed74378aada8204f2c9ac283f7b5614660001b62000a8560201b60201c565b6200072a7fc2c116e9e9380abb8800fd1c6dfcc9d0250b700ad4a997c183fe23663b5ac7ea60001b62000a8560201b60201c565b60008090505b815181101562000a7a576200076e7f9e443a806c9bdcb98eff4ae38cf4b3b1524e040e9c8b380e45f2493913057cad60001b62000a8560201b60201c565b620007a27f162573dc2f2d428388e216a5a734964f2a92b01fd311546fb530ea28ec84537360001b62000a8560201b60201c565b620007d67f7eb07445bf339cbc889ac348c55e6cc6a1c78debd6311282868818334b4b26f160001b62000a8560201b60201c565b600073ffffffffffffffffffffffffffffffffffffffff16828281518110620007fb57fe5b602002602001015173ffffffffffffffffffffffffffffffffffffffff1614156200088e576040517f08c379a000000000000000000000000000000000000000000000000000000000815260040180806020018281038252601c8152602001807f4c6f636b656446756e643a20496e76616c696420416464726573732e0000000081525060200191505060405180910390fd5b620008c27f3afe0bd2b62b0578a211f4ea0510ab860f2637ff6a44c215eceadd3300125e1160001b62000a8560201b60201c565b620008f67fcb27314f5d405be6db68875424bd4222442cb47939a1a4aeae757b9f17ccd38a60001b62000a8560201b60201c565b6200092a7f0d5665de2ccb079e4ef145950627bf7a84b66c4dad95603a48918839e3a088cf60001b62000a8560201b60201c565b6001600760008484815181106200093d57fe5b602002602001015173ffffffffffffffffffffffffffffffffffffffff1673ffffffffffffffffffffffffffffffffffffffff16815260200190815260200160002060006101000a81548160ff021916908315150217905550620009ca7f6ea79692ea744c82b2072210200e1a97e3499c227e3bb337a93585ddd2feb13060001b62000a8560201b60201c565b620009fe7f6f62ec6f761ae525365464c83cd65fe572e3e0f92c04e5f45f6ba2682f34996360001b62000a8560201b60201c565b81818151811062000a0b57fe5b602002602001015173ffffffffffffffffffffffffffffffffffffffff163373ffffffffffffffffffffffffffffffffffffffff167fbf3f493c772c8c283fd124432c2d0f539ab343faa04258fe88e52912d36b102b60405160405180910390a3808060010191505062000730565b505050505062000a88565b50565b61616d8062000a986000396000f3fe608060405234801561001057600080fd5b50600436106102065760003560e01c806389facb201161011a578063c227cbd8116100ad578063cdce101b1161007c578063cdce101b14610a10578063ce46643b14610a68578063e554586414610a72578063ec3ea7d414610ab6578063fc0c546a14610afa57610206565b8063c227cbd8146108cc578063c408689314610916578063cb3fdb611461096e578063cc6f0333146109c657610206565b80639114557e116100e95780639114557e14610796578063a2dcc234146107ee578063aaba2c0d1461081c578063b36760a31461087457610206565b806389facb20146106a85780638c8ba66d146106c65780638efd94f31461071e578063904c5b8f1461074c57610206565b80633e4a89d11161019d578063594092db1161016c578063594092db1461053757806361ade4261461059657806370480275146105da57806377a69b521461061e578063849a68171461063c57610206565b80633e4a89d11461046f5780634558269f146104cb5780634c2a295c146104d557806355e715cf146104f357610206565b806324276777116101d9578063242767771461034957806324d7806c146103a15780632b6df82a146103fd5780633a2cb6431461044157610206565b80630483a7f61461020b578063129de5bf146102635780631785f53c146102bb57806321df0da7146102ff575b600080fd5b61024d6004803603602081101561022157600080fd5b81019080803573ffffffffffffffffffffffffffffffffffffffff169060200190929190505050610b44565b6040518082815260200191505060405180910390f35b6102a56004803603602081101561027957600080fd5b81019080803573ffffffffffffffffffffffffffffffffffffffff169060200190929190505050610b5c565b6040518082815260200191505060405180910390f35b6102fd600480360360208110156102d157600080fd5b81019080803573ffffffffffffffffffffffffffffffffffffffff169060200190929190505050610c29565b005b610307610e80565b604051808273ffffffffffffffffffffffffffffffffffffffff1673ffffffffffffffffffffffffffffffffffffffff16815260200191505060405180910390f35b61038b6004803603602081101561035f57600080fd5b81019080803573ffffffffffffffffffffffffffffffffffffffff169060200190929190505050610f2e565b6040518082815260200191505060405180910390f35b6103e3600480360360208110156103b757600080fd5b81019080803573ffffffffffffffffffffffffffffffffffffffff169060200190929190505050610f46565b604051808215151515815260200191505060405180910390f35b61043f6004803603602081101561041357600080fd5b81019080803573ffffffffffffffffffffffffffffffffffffffff169060200190929190505050610f66565b005b61046d6004803603602081101561045757600080fd5b8101908080359060200190929190505050611058565b005b6104b16004803603602081101561048557600080fd5b81019080803573ffffffffffffffffffffffffffffffffffffffff16906020019092919050505061105b565b604051808215151515815260200191505060405180910390f35b6104d3611135565b005b6104dd6111c4565b6040518082815260200191505060405180910390f35b6105356004803603602081101561050957600080fd5b81019080803573ffffffffffffffffffffffffffffffffffffffff169060200190929190505050611252565b005b6105796004803603602081101561054d57600080fd5b81019080803573ffffffffffffffffffffffffffffffffffffffff1690602001909291905050506112e3565b604051808381526020018281526020019250505060405180910390f35b6105d8600480360360208110156105ac57600080fd5b81019080803573ffffffffffffffffffffffffffffffffffffffff1690602001909291905050506113f3565b005b61061c600480360360208110156105f057600080fd5b81019080803573ffffffffffffffffffffffffffffffffffffffff16906020019092919050505061189d565b005b610626611af4565b6040518082815260200191505060405180910390f35b6106a6600480360360a081101561065257600080fd5b81019080803573ffffffffffffffffffffffffffffffffffffffff16906020019092919080359060200190929190803590602001909291908035906020019092919080359060200190929190505050611afa565b005b6106b0611d59565b6040518082815260200191505060405180910390f35b610708600480360360208110156106dc57600080fd5b81019080803573ffffffffffffffffffffffffffffffffffffffff169060200190929190505050611d60565b6040518082815260200191505060405180910390f35b61074a6004803603602081101561073457600080fd5b8101908080359060200190929190505050611d78565b005b610754611fcf565b604051808273ffffffffffffffffffffffffffffffffffffffff1673ffffffffffffffffffffffffffffffffffffffff16815260200191505060405180910390f35b6107d8600480360360208110156107ac57600080fd5b81019080803573ffffffffffffffffffffffffffffffffffffffff169060200190929190505050611ff5565b6040518082815260200191505060405180910390f35b61081a6004803603602081101561080457600080fd5b81019080803590602001909291905050506120c2565b005b61085e6004803603602081101561083257600080fd5b81019080803573ffffffffffffffffffffffffffffffffffffffff1690602001909291905050506120c5565b6040518082815260200191505060405180910390f35b6108b66004803603602081101561088a57600080fd5b81019080803573ffffffffffffffffffffffffffffffffffffffff169060200190929190505050612192565b6040518082815260200191505060405180910390f35b6108d46121aa565b604051808273ffffffffffffffffffffffffffffffffffffffff1673ffffffffffffffffffffffffffffffffffffffff16815260200191505060405180910390f35b6109586004803603602081101561092c57600080fd5b81019080803573ffffffffffffffffffffffffffffffffffffffff169060200190929190505050612258565b6040518082815260200191505060405180910390f35b6109b06004803603602081101561098457600080fd5b81019080803573ffffffffffffffffffffffffffffffffffffffff169060200190929190505050612325565b6040518082815260200191505060405180910390f35b6109ce61233d565b604051808273ffffffffffffffffffffffffffffffffffffffff1673ffffffffffffffffffffffffffffffffffffffff16815260200191505060405180910390f35b610a5260048036036020811015610a2657600080fd5b81019080803573ffffffffffffffffffffffffffffffffffffffff1690602001909291905050506123d1565b6040518082815260200191505060405180910390f35b610a706123e9565b005b610ab460048036036020811015610a8857600080fd5b81019080803573ffffffffffffffffffffffffffffffffffffffff169060200190929190505050612770565b005b610af860048036036020811015610acc57600080fd5b81019080803573ffffffffffffffffffffffffffffffffffffffff169060200190929190505050612862565b005b610b02612ab9565b604051808273ffffffffffffffffffffffffffffffffffffffff1673ffffffffffffffffffffffffffffffffffffffff16815260200191505060405180910390f35b60046020528060005260406000206000915090505481565b6000610b8a7f8d30935436f9763ba510dd452958b894e82a2f2df9a715965b97948f5f6554bb60001b6120c2565b610bb67f540ab7eb13a723764abb54f31073978e1a056e582ae6a5a0462b01c9077e85c560001b6120c2565b610be27fe89437c01d8f61ffb579f3817688b3b2fbfaa05125a88b3c67261c31e48cd44b60001b6120c2565b600660008373ffffffffffffffffffffffffffffffffffffffff1673ffffffffffffffffffffffffffffffffffffffff168152602001908152602001600020549050919050565b610c557f4946666976b8b9994c882a2970baef992924a6ceb9f10091be61fe6a3095b56f60001b6120c2565b610c817f73ec956ff383de72f7c143e2a4e60a9b3a07e1ca0c9fd8214f34bec5faa4e42a60001b6120c2565b610cad7fcfbfbaebad920d340fe4c9fb712c6b87ea511be2671adf5bd7fa3abb9fac445b60001b6120c2565b610cd97ffbc3b630cb2e65d530e1d9b9a07f1257a4a1cd22dc25a8496f1491f12f6a651660001b6120c2565b600760003373ffffffffffffffffffffffffffffffffffffffff1673ffffffffffffffffffffffffffffffffffffffff16815260200190815260200160002060009054906101000a900460ff16610d98576040517f08c379a00000000000000000000000000000000000000000000000000000000081526004018080602001828103825260198152602001807f4f6e6c792061646d696e2063616e2063616c6c20746869732e0000000000000081525060200191505060405180910390fd5b610dc47feb76b3d32079e8c0e61231a7caa481c15057ed6fb41264d1b469347b2630d7c560001b6120c2565b610df07f41962bc8f84454d24965bafb3d3ad246b9bc1e9c70fb9a52fffaef19a006e05460001b6120c2565b610e1c7f199ebc860835465e653d5f3529ded97a9d1d9022f6a04982dd25452629221ee460001b6120c2565b610e487f563873a770b8bec6c59dd33118c9e859a94e8aee7dab1c5aaa34a297fc5eaffe60001b6120c2565b610e747fe94c66a7af827134e7fe7641210fb3bc7410bb9ab0820d57284ad6983a9a039560001b6120c2565b610e7d816113f3565b50565b6000610eae7fb8636c7958b2fdcf394fbad77445c90a04f8af4b6ad54b77f1a699e3368d679b60001b6120c2565b610eda7f51780eda96ae13557d50a5b0cc4f15a32d8df830427810f7cb0ee5d4c5138f4360001b6120c2565b610f067fc0ee94f7785a9e0558c697f8caf882ae82cbbd38140f3c8b1e051698035f586e60001b6120c2565b600160009054906101000a900473ffffffffffffffffffffffffffffffffffffffff16905090565b60056020528060005260406000206000915090505481565b60076020528060005260406000206000915054906101000a900460ff1681565b610f927f382d93b023531f50d6d42dbf5fe8f53204083df223b210824a01ef5f7520096660001b6120c2565b610fbe7fadc7fd506dcb3e07a4df382c007ba0ff2b382bb2e6a9753d634c5f84c9a9e5ac60001b6120c2565b610fea7fca342ce8f32afa93a60e822a8b9a4f120c7ddcaff19eed0f11ef7730bde2c32160001b6120c2565b610ff48182612adf565b6110207fcd7c4dd121825dfe35bd543ed991e5b92769ac7c2cb8cc905b68dcfc05e9c89a60001b6120c2565b61104c7f7367f857ab7ad88aa02bf5a6cc895925a742b39c9cbc26299bbfeff7b8a125e060001b6120c2565b61105581613306565b50565b50565b60006110897ff0f9cf48eee00d8f448690e37784a00c3bf23ea568148c965338e354a680222660001b6120c2565b6110b57f4fdf2705d02263a6902b49c2650d9c5eb2f6e6c188bbdf3d669517f00df9d43960001b6120c2565b6110e17f206f4dcaee767055ddbe59219dac22cf00ffc5d83e188ea173839274bba3162360001b6120c2565b600760008373ffffffffffffffffffffffffffffffffffffffff1673ffffffffffffffffffffffffffffffffffffffff16815260200190815260200160002060009054906101000a900460ff169050919050565b6111617fb91b9b727b80d64410258aaaeb2918528367562dcb351fbd1347d559bf6c4da060001b6120c2565b61118d7fdfffe4fc27319050bc90f35199a1ee2f81aae6c04c243a07f47b829a24c24c5a60001b6120c2565b6111b97ffc9a8226693a490df5afc1bc05198b488e62e2bd169913a44814015ae75976fe60001b6120c2565b6111c233613306565b565b60006111f27f51b86fedfcfb91e992427db7b7bb8e4a5c18bd400e42cfb707b09e3f87f01bd960001b6120c2565b61121e7f22c8e3a309c720a2be6d2c9e0a35f67f2e09f39b5eeb08b95383cb975d84a97760001b6120c2565b61124a7fdec4cfd3d5a2b977603d79e7e261c177504206d10b0a7d090b71c1d06b8d5b8160001b6120c2565b600054905090565b61127e7fb582cf390bc69e2bbac202e7146ab40217adff3e1a610636e74e550273a68fe160001b6120c2565b6112aa7fc5c6a2503d880fbafecb6eca6cffd4e7e6ff32d94cfd5f333af4a08dc61b61e960001b6120c2565b6112d67f5945bb6025bd4be7317bf83d7156dfe74eaed755e7761781c9158d875170175660001b6120c2565b6112e03382612adf565b50565b6000806113127f6d21d91f53e64636833842af0b1ff2bc91c7deff6136dd6e5d84ea94b3f5629b60001b6120c2565b61133e7f7801a63eb869b2941daf4dac41de65d2eefb48d8356043ef087d0b91707344a560001b6120c2565b61136a7f1824962066b83997c42ddde0df8506b198d63cf5534af2fa4e98f0da27315a0260001b6120c2565b600860008473ffffffffffffffffffffffffffffffffffffffff1673ffffffffffffffffffffffffffffffffffffffff16815260200190815260200160002054600960008573ffffffffffffffffffffffffffffffffffffffff1673ffffffffffffffffffffffffffffffffffffffff1681526020019081526020016000205491509150915091565b61141f7f4946666976b8b9994c882a2970baef992924a6ceb9f10091be61fe6a3095b56f60001b6120c2565b61144b7f73ec956ff383de72f7c143e2a4e60a9b3a07e1ca0c9fd8214f34bec5faa4e42a60001b6120c2565b6114777fcfbfbaebad920d340fe4c9fb712c6b87ea511be2671adf5bd7fa3abb9fac445b60001b6120c2565b6114a37ffbc3b630cb2e65d530e1d9b9a07f1257a4a1cd22dc25a8496f1491f12f6a651660001b6120c2565b600760003373ffffffffffffffffffffffffffffffffffffffff1673ffffffffffffffffffffffffffffffffffffffff16815260200190815260200160002060009054906101000a900460ff16611562576040517f08c379a00000000000000000000000000000000000000000000000000000000081526004018080602001828103825260198152602001807f4f6e6c792061646d696e2063616e2063616c6c20746869732e0000000000000081525060200191505060405180910390fd5b61158e7feb76b3d32079e8c0e61231a7caa481c15057ed6fb41264d1b469347b2630d7c560001b6120c2565b6115ba7f41962bc8f84454d24965bafb3d3ad246b9bc1e9c70fb9a52fffaef19a006e05460001b6120c2565b6115e67fd44bd0a5a8e1b1cf5c40e8686ea93068735e46e04ea8f7451f1dbe4b5663cb1660001b6120c2565b6116127f413a061529df923ef1df668287e71961f34c644bda5d9e7c50a1b688bc70d0ad60001b6120c2565b61163e7fa0947243ffec2f263e5a42db60281289ab7d30cf30c815dab76aff61fbb4c8d960001b6120c2565b61166a7fae293520888da26834f1f7d0a5e180bd2fd7b38315e3b43eb9880ec9f72d398360001b6120c2565b600760008273ffffffffffffffffffffffffffffffffffffffff1673ffffffffffffffffffffffffffffffffffffffff16815260200190815260200160002060009054906101000a900460ff1661170c576040517f08c379a0000000000000000000000000000000000000000000000000000000008152600401808060200182810382526024815260200180615f6a6024913960400191505060405180910390fd5b6117387fc94e9860303bddde773e258e690fd77fa94f62f34eef08dbeeb3caa6a1084ccb60001b6120c2565b6117647f07236db6fdb4f04851861d5a02b6b19e07aa173215ba87f713c843661572e31260001b6120c2565b6117907ff0a3ed86d5bf70a045cc857c964a0dfe3697009ba02afde0539b93640dac70df60001b6120c2565b6000600760008373ffffffffffffffffffffffffffffffffffffffff1673ffffffffffffffffffffffffffffffffffffffff16815260200190815260200160002060006101000a81548160ff0219169083151502179055506118147fec8cd4d3ba6bf27673f2a51d49743c00e0efad87c40afe43a105b4534b6f900b60001b6120c2565b6118407fbb06e7a5566421d5268a045ca7a8df7c8b9180d63cfdcaf8868c914322ae9a0660001b6120c2565b8073ffffffffffffffffffffffffffffffffffffffff163373ffffffffffffffffffffffffffffffffffffffff167fdb9d5d31320daf5bc7181d565b6da4d12e30f0f4d5aa324a992426c14a1d19ce60405160405180910390a350565b6118c97f4946666976b8b9994c882a2970baef992924a6ceb9f10091be61fe6a3095b56f60001b6120c2565b6118f57f73ec956ff383de72f7c143e2a4e60a9b3a07e1ca0c9fd8214f34bec5faa4e42a60001b6120c2565b6119217fcfbfbaebad920d340fe4c9fb712c6b87ea511be2671adf5bd7fa3abb9fac445b60001b6120c2565b61194d7ffbc3b630cb2e65d530e1d9b9a07f1257a4a1cd22dc25a8496f1491f12f6a651660001b6120c2565b600760003373ffffffffffffffffffffffffffffffffffffffff1673ffffffffffffffffffffffffffffffffffffffff16815260200190815260200160002060009054906101000a900460ff16611a0c576040517f08c379a00000000000000000000000000000000000000000000000000000000081526004018080602001828103825260198152602001807f4f6e6c792061646d696e2063616e2063616c6c20746869732e0000000000000081525060200191505060405180910390fd5b611a387feb76b3d32079e8c0e61231a7caa481c15057ed6fb41264d1b469347b2630d7c560001b6120c2565b611a647f41962bc8f84454d24965bafb3d3ad246b9bc1e9c70fb9a52fffaef19a006e05460001b6120c2565b611a907f185510b26e4533633eb9e81fb4b278833126a4775ec9f935437561596b8fbf8260001b6120c2565b611abc7fc4030fe5ed91aa493625bb81b13feeecb9e75e87930bafb8fac1198a6452865060001b6120c2565b611ae87f51d743be5efbbdc9d2345ad2165a5a694d136119509a608dc84a2dcecdaf9e9960001b6120c2565b611af18161354b565b50565b60005481565b611b267f4946666976b8b9994c882a2970baef992924a6ceb9f10091be61fe6a3095b56f60001b6120c2565b611b527f73ec956ff383de72f7c143e2a4e60a9b3a07e1ca0c9fd8214f34bec5faa4e42a60001b6120c2565b611b7e7fcfbfbaebad920d340fe4c9fb712c6b87ea511be2671adf5bd7fa3abb9fac445b60001b6120c2565b611baa7ffbc3b630cb2e65d530e1d9b9a07f1257a4a1cd22dc25a8496f1491f12f6a651660001b6120c2565b600760003373ffffffffffffffffffffffffffffffffffffffff1673ffffffffffffffffffffffffffffffffffffffff16815260200190815260200160002060009054906101000a900460ff16611c69576040517f08c379a00000000000000000000000000000000000000000000000000000000081526004018080602001828103825260198152602001807f4f6e6c792061646d696e2063616e2063616c6c20746869732e0000000000000081525060200191505060405180910390fd5b611c957feb76b3d32079e8c0e61231a7caa481c15057ed6fb41264d1b469347b2630d7c560001b6120c2565b611cc17f41962bc8f84454d24965bafb3d3ad246b9bc1e9c70fb9a52fffaef19a006e05460001b6120c2565b611ced7f21a9d6adbb1fd2de9a3b4799706cfb5dc3ee5c9af765ce13c20fdb74c70d1c4260001b6120c2565b611d197f7eb8a4b485304918653e2946f4e38710f4a2ad63d00554abb94b7c96d4d87ce060001b6120c2565b611d457fee20a448205dafb1c9c05e9e3994ab8008ffb03d46d12f8b589d8986f15cc00a60001b6120c2565b611d528585858585613982565b5050505050565b6224ea0081565b60066020528060005260406000206000915090505481565b611da47f4946666976b8b9994c882a2970baef992924a6ceb9f10091be61fe6a3095b56f60001b6120c2565b611dd07f73ec956ff383de72f7c143e2a4e60a9b3a07e1ca0c9fd8214f34bec5faa4e42a60001b6120c2565b611dfc7fcfbfbaebad920d340fe4c9fb712c6b87ea511be2671adf5bd7fa3abb9fac445b60001b6120c2565b611e287ffbc3b630cb2e65d530e1d9b9a07f1257a4a1cd22dc25a8496f1491f12f6a651660001b6120c2565b600760003373ffffffffffffffffffffffffffffffffffffffff1673ffffffffffffffffffffffffffffffffffffffff16815260200190815260200160002060009054906101000a900460ff16611ee7576040517f08c379a00000000000000000000000000000000000000000000000000000000081526004018080602001828103825260198152602001807f4f6e6c792061646d696e2063616e2063616c6c20746869732e0000000000000081525060200191505060405180910390fd5b611f137feb76b3d32079e8c0e61231a7caa481c15057ed6fb41264d1b469347b2630d7c560001b6120c2565b611f3f7f41962bc8f84454d24965bafb3d3ad246b9bc1e9c70fb9a52fffaef19a006e05460001b6120c2565b611f6b7f72a0cb4c872172de61485421f90edfb4d8b580103d590c9815615d237091e8b360001b6120c2565b611f977fe884888a461226ffd96fa58e88cac64db1c2a8e894e4fe7ebb766267f7b26b8f60001b6120c2565b611fc37f64794ea099490c3fdef8853b08d1bb0af5a67d5476535117e5aa01a4198ebbc960001b6120c2565b611fcc816143d4565b50565b600260009054906101000a900473ffffffffffffffffffffffffffffffffffffffff1681565b60006120237faa62d4170cca1279af59222ff9a3dd683190db71504fa7808a11f923f3fa446960001b6120c2565b61204f7f8b718ba75c06aeb0de3a5aa438ed8cc94723969ef94d5068fcf00aaeb66d7e9160001b6120c2565b61207b7fbb444eb32e956dd5e2d37c58284e3bdb898d19da6cf88ec9116b6bfd6a4a2a8260001b6120c2565b600360008373ffffffffffffffffffffffffffffffffffffffff1673ffffffffffffffffffffffffffffffffffffffff168152602001908152602001600020549050919050565b50565b60006120f37f6cca1833a7ce056afde293c960b4f2537dd26784f8a782136db017fd40c9096460001b6120c2565b61211f7fa2d8e93e3e54cdb3a4b2be05ad5da16750f117ef63999c06dbf9089b22ecda5460001b6120c2565b61214b7fb8c1c0de814152d59088b12c96fded18e84d6f6fb43281820f77bf6e9b25718660001b6120c2565b600560008373ffffffffffffffffffffffffffffffffffffffff1673ffffffffffffffffffffffffffffffffffffffff168152602001908152602001600020549050919050565b60096020528060005260406000206000915090505481565b60006121d87fd581639942bd57930cb26494ed1b3c78df4df5f646cd5f8b2b5c68f75b924d0d60001b6120c2565b6122047fa92746ef821f9af86a5a2aa242d7c500a7a4f5a6aa936e45e2fc76fc5a5823dd60001b6120c2565b6122307fab2768db8421a0c4a45b361d9891d7febb37d69838636c7e2c8fe90600589de660001b6120c2565b600260009054906101000a900473ffffffffffffffffffffffffffffffffffffffff16905090565b60006122867f73e1231b72914553ce72612130cb14ceb3ea72283d3da549062ea7d875eee8a760001b6120c2565b6122b27fc431eaf4e43e60aadf886c5a1e82e5602b3d7842ed669f7643af99e0efe78a4f60001b6120c2565b6122de7ff4bf8ff9452e138ad4fe4f977582d11086773eb283e291a0184982fde2da3c1560001b6120c2565b600460008373ffffffffffffffffffffffffffffffffffffffff1673ffffffffffffffffffffffffffffffffffffffff168152602001908152602001600020549050919050565b60036020528060005260406000206000915090505481565b600061236b7f410111e00ef9ea45fc8fe867b2dd3eb522b31a8ac610bc223fd87a135907b5dc60001b6120c2565b6123977fe1f47c334c4e9ac1b77463fb4c86c993e198ef2af8158ee26e70a90732f4b3c660001b6120c2565b6123c37f3ed97b31d10d9a32d15072a2b0ad8c3464a76d6b4e835e77b51ebbd9c754f6a460001b6120c2565b6123cc33614612565b905090565b60086020528060005260406000206000915090505481565b6124157fc9b6161bb463010133b07b3749dab52b3b5bae2ffa5b0ff771e4fef924920d2160001b6120c2565b6124417f956b27ac437c4177acf2f585d679a7be824018549fd6a06e59ec7233953fea7960001b6120c2565b61246d7fb0735d6f0b9c25f5f6203d19e16f4b02a736026c69752d5916e6f71e83812c6460001b6120c2565b600061247833614aae565b90506124a67fe696d5a9526c91685a4614699f77b000bcc2cb035a6cfe7328a6aa299314643760001b6120c2565b6124d27fa346e4761b70576222cdc29bd041506125aa6ffb80e99f2513dc0396d2b7d75060001b6120c2565b6124fe7f1e0acd9d879f08925c14ccb1a2be1b6ff30b93bb33efe31099881695c33697d260001b6120c2565b8073ffffffffffffffffffffffffffffffffffffffff166313d033c06040518163ffffffff1660e01b815260040160206040518083038186803b15801561254457600080fd5b505afa158015612558573d6000803e3d6000fd5b505050506040513d602081101561256e57600080fd5b8101908080519060200190929190505050600860003373ffffffffffffffffffffffffffffffffffffffff1673ffffffffffffffffffffffffffffffffffffffff1681526020019081526020016000205414801561268a57508073ffffffffffffffffffffffffffffffffffffffff16630fb5a6b46040518163ffffffff1660e01b815260040160206040518083038186803b15801561260d57600080fd5b505afa158015612621573d6000803e3d6000fd5b505050506040513d602081101561263757600080fd5b8101908080519060200190929190505050600960003373ffffffffffffffffffffffffffffffffffffffff1673ffffffffffffffffffffffffffffffffffffffff16815260200190815260200160002054145b6126df576040517f08c379a00000000000000000000000000000000000000000000000000000000081526004018080602001828103825260238152602001806160e66023913960400191505060405180910390fd5b61270b7fedcc2b993deb24a268a31f29b0aeadd64f14cad64f21629bb4dbe26c763cfc3f60001b6120c2565b6127377f57b0e8fe5ec7cb3130f9a658584b9bd13dbdf7739a8cc97a4bc746c05581c4db60001b6120c2565b6127637fdba9e5889e452afdfe10e6b8afe1c40d17eaa101d67423b51150febcb8f4b7dd60001b6120c2565b61276d3382614c15565b50565b61279c7f8a345477d48d5c4876763e8543ab319c75e4a162841ec51453ff17080145877660001b6120c2565b6127c87f69de36af6f1868ff74eb03f10513d1a7d169a885219eccf3b49a68c322fd7b8760001b6120c2565b6127f47f8236a71187ed4b4f256819879b85f6f3d6fee1044971a09ad0ca9ca78d26a48f60001b6120c2565b6127fe3382612adf565b61282a7f9817baab47b1a224bd209595f3f433f7401137b769c7fbbeef71a519617afdf860001b6120c2565b6128567fa6e9521ce627d0abf4d9eafde16ab9e44241d35719ef6efedac81e8f88994dcc60001b6120c2565b61285f33613306565b50565b61288e7f4946666976b8b9994c882a2970baef992924a6ceb9f10091be61fe6a3095b56f60001b6120c2565b6128ba7f73ec956ff383de72f7c143e2a4e60a9b3a07e1ca0c9fd8214f34bec5faa4e42a60001b6120c2565b6128e67fcfbfbaebad920d340fe4c9fb712c6b87ea511be2671adf5bd7fa3abb9fac445b60001b6120c2565b6129127ffbc3b630cb2e65d530e1d9b9a07f1257a4a1cd22dc25a8496f1491f12f6a651660001b6120c2565b600760003373ffffffffffffffffffffffffffffffffffffffff1673ffffffffffffffffffffffffffffffffffffffff16815260200190815260200160002060009054906101000a900460ff166129d1576040517f08c379a00000000000000000000000000000000000000000000000000000000081526004018080602001828103825260198152602001807f4f6e6c792061646d696e2063616e2063616c6c20746869732e0000000000000081525060200191505060405180910390fd5b6129fd7feb76b3d32079e8c0e61231a7caa481c15057ed6fb41264d1b469347b2630d7c560001b6120c2565b612a297f41962bc8f84454d24965bafb3d3ad246b9bc1e9c70fb9a52fffaef19a006e05460001b6120c2565b612a557fa14fe3830a4c36831d7f5efe9e432a58097763811f509158662eadc5ae5917e560001b6120c2565b612a817f2885d693c641f52d08156618f9f73d171fae6b6660c227fa5c80213a9ef9904960001b6120c2565b612aad7fecca3a7f5f9ce183e3b4c016c435c9f543fcc3d10f0f4fdefb65062049cfcf9a60001b6120c2565b612ab681615105565b50565b600160009054906101000a900473ffffffffffffffffffffffffffffffffffffffff1681565b612b0b7f32d1b74cc50d16562974e82f053f152d08e1bb420e63931fe9b5548a2bd8194160001b6120c2565b612b377f1abcf5dbb19ca541ee32650c8d112828f082170b302d16d5a773d5e7564d837060001b6120c2565b612b637f9758af99550fa21a43fd8f7ff032795ca121478eecb185975b1190737cfd7ab160001b6120c2565b612b8f7f0dc75cfdeeb4f9f45072e6495ac1995aa97020794bb9c8176a2ae13f5f85c1ef60001b6120c2565b600080541415612bea576040517f08c379a00000000000000000000000000000000000000000000000000000000081526004018080602001828103825260228152602001806160756022913960400191505060405180910390fd5b612c167f8b2a4d4c360cc2484c70c9a9bc8c2509849e5aa23fddfd83279a144e2361182260001b6120c2565b612c427f044e09fc509c9773bb976a1b726e44622d5a2657d467b373dd5c5c7ea7db388d60001b6120c2565b612c6e7f28c85247847e3581a4d13260fd45b3d97ab1443e6bca3b40ceedb79f92f4d73e60001b6120c2565b612c9a7fd9484fd18ba5d363b2031df5a9295c2270e5ac91c89ebb88f4c819f3fd24701d60001b6120c2565b4260005410612cf4576040517f08c379a000000000000000000000000000000000000000000000000000000000815260040180806020018281038252602a815260200180615fb2602a913960400191505060405180910390fd5b612d207f59c7059dcc5c3f2b92467ad40a7ea55a33e7840fb0968e42b96a2996966b92fe60001b6120c2565b612d4c7f9a8ed0e72d8e07021da192b401b38d39f235fc59db778d6f7e8d2d46dc13afe060001b6120c2565b612d787fc1c47e132db7835f40e66c902a83846ca56226491c2239bb55744318497afd5f60001b6120c2565b6000819050612da97f12df37e7c609a9266da89a1bc569fa090c6ad938fcc150a2413e4a435fe371ae60001b6120c2565b612dd57f5fa5d1e4013ceb89c9335056ebeb83bb5f8cb76bb4d8e5bb5a9eb7284fc2fb4f60001b6120c2565b600073ffffffffffffffffffffffffffffffffffffffff168273ffffffffffffffffffffffffffffffffffffffff161415612e9657612e367fcb0a00123a753151361074c70cee2b2d91d0304f6588e422759ebe04d4c6490460001b6120c2565b612e627fa6d4da324a5de41fea5db60e4df1902776e66f7f509e95be5aef8de53016bf2760001b6120c2565b612e8e7f6aaef27a6b716a0c22d672c70b57623d539c47ec9aefa2a2e63c61d2ee04452160001b6120c2565b829050612ec3565b612ec27fceca843deb6474bc8a1191d4d0a5ab2aeb7630cc6199606ce51e50c3e81862ac60001b6120c2565b5b612eef7f3b9fa9174dc6a4df4dc32fa9ed7ac7a4ad41138b23992e0e32995f37c9356bd860001b6120c2565b612f1b7fe72fe8b7995975f8e43e041a03b116eb5b7e3ba3825986ca73b041e76677ebd260001b6120c2565b6000600560008573ffffffffffffffffffffffffffffffffffffffff1673ffffffffffffffffffffffffffffffffffffffff168152602001908152602001600020549050612f8b7ffd340739b7a2c38ae28baa65c897a82da8873f8c782f7bb81650c8c8dbd3182c60001b6120c2565b612fb77f298b1cb32cce7c3c3a683636fa7fbcd793e9c765bc02f426fa2cde06a8d8802d60001b6120c2565b6000600560008673ffffffffffffffffffffffffffffffffffffffff1673ffffffffffffffffffffffffffffffffffffffff168152602001908152602001600020819055506130287f9ab63a8a3fe7cc91de6d80ee7b9d58d61d586f2b285fd1c9843a1eb9eacdead260001b6120c2565b6130547fb013a37e78aa2d0477a3339ccc81cc15daab83c6e480f1fee57e12248cd7aba960001b6120c2565b6000600160009054906101000a900473ffffffffffffffffffffffffffffffffffffffff1673ffffffffffffffffffffffffffffffffffffffff1663a9059cbb84846040518363ffffffff1660e01b8152600401808373ffffffffffffffffffffffffffffffffffffffff1673ffffffffffffffffffffffffffffffffffffffff16815260200182815260200192505050602060405180830381600087803b1580156130ff57600080fd5b505af1158015613113573d6000803e3d6000fd5b505050506040513d602081101561312957600080fd5b810190808051906020019092919050505090506131687fb52cf5bec8ea5f7740d5f106b51e9f48043e54aea5d1b44b2b7a031917eb8c0360001b6120c2565b6131947fbfbcf3b75bb4c7a828f089c50140ee2348a61442ba222d6c5db7192a019f90d360001b6120c2565b6131c07fd7dfa52a48ab69979694c9fa26d8ccf10a13b50c29e8799eb48a9e9531da2abf60001b6120c2565b80613216576040517f08c379a0000000000000000000000000000000000000000000000000000000008152600401808060200182810382526046815260200180615f246046913960600191505060405180910390fd5b6132427f9821cdb90d8dbb520d9787cf22665329f055aaaae5a0076c46e8f352cfe129d460001b6120c2565b61326e7fb46cdacb2840ef568a3c58e3e42155b9e9490c6e2380320bffb91c2cfc1f961760001b6120c2565b61329a7fdb12fa92c7609773d48220182794f03c4ce1140c7d56e73be39c86b30306a34e60001b6120c2565b8273ffffffffffffffffffffffffffffffffffffffff168573ffffffffffffffffffffffffffffffffffffffff167fd1c19fbcd4551a5edfb66d43d2e337c04837afda3482b42bdf569a8fccdae5fb846040518082815260200191505060405180910390a35050505050565b6133327ff2f6aa91ba57661874aba566e7c9eb97c0ce0af60a04acd51e253bdc478fa7a160001b6120c2565b61335e7fa52ecb22b17614096a67aa7139209b6836e8905e5f4452bfb14bc03876ee0e2060001b6120c2565b61338a7fb1fd726d0379bd894395ba13777c96880bcc4203fbdcb7f5cf6b7c8d0c0c21e760001b6120c2565b600061339582614aae565b90506133c37fc21ba7f7c1927e8b6d2353cb128b2a0370fa4d5524d9a3f0f1e964630dcc300d60001b6120c2565b6133ef7f1c13d451ad86d5806bca5b1fc6edfd66aca99e858a7d15029fb4017235cd93f560001b6120c2565b600073ffffffffffffffffffffffffffffffffffffffff168173ffffffffffffffffffffffffffffffffffffffff1614156134b8576134507fea0eaed7eef9dfefa8a117d7f8f49b5fac08cfa69d0ffd93681e04a4a9f3f34a60001b6120c2565b61347c7fc73b7c611574449ac1805d22452156c2b6a8b610ecf792c5c492be085a8f4dc360001b6120c2565b6134a87f858b6b1b7b76300c4bc2637e7d0f837152627611e8997eba542112f6a3ec089360001b6120c2565b6134b182614612565b90506134e5565b6134e47f51b6041242fe87c23613c4ca83c0ce6cc782f984daa1175b5282198f4cbae01360001b6120c2565b5b6135117f179004e13c69c281c926ed9a60d5197d533b662af042352a71862de1d486126b60001b6120c2565b61353d7f14b43749593568faccdaf6c0f2da5fec840b3e8fe509e834b96b6fb1ae14d83960001b6120c2565b6135478282614c15565b5050565b6135777ff18828f34a77d25fd2a204d334ae8c7b2b0d98ae51df09f97d54f49563d6834c60001b6120c2565b6135a37f7e1d277935cf039dd06e2f077f2fb3e92eed84a15a655dfb01efe6784dc1802d60001b6120c2565b6135cf7fe69fb858002425942ccd46bf74bcb82d08e11a613d73dad7feaf5fe333df716c60001b6120c2565b6135fb7fbebccc5bfed7845ceddfadd20eaca584f424d9d9c7204e543499cb92efef0fca60001b6120c2565b600073ffffffffffffffffffffffffffffffffffffffff168173ffffffffffffffffffffffffffffffffffffffff16141561369e576040517f08c379a000000000000000000000000000000000000000000000000000000000815260040180806020018281038252601c8152602001807f4c6f636b656446756e643a20496e76616c696420416464726573732e0000000081525060200191505060405180910390fd5b6136ca7f7743e52bcb6872bf1d1a937ebffe9f93c9cf6cfffb1bf3ac5c947c84e799c54b60001b6120c2565b6136f67f9f8622f8282425a9cf50dd7a52322b2ad4c903f8e62cdc6745d32739db7ef8c260001b6120c2565b6137227f3d124cacafc426f63ea78db7a3bd7621a904df790271474212172e5dda5bc24c60001b6120c2565b61374e7f11397a69873ece5b3016d5f0f65eb0f51d418c7b8e6995442a3ee8397d16504560001b6120c2565b600760008273ffffffffffffffffffffffffffffffffffffffff1673ffffffffffffffffffffffffffffffffffffffff16815260200190815260200160002060009054906101000a900460ff16156137f1576040517f08c379a00000000000000000000000000000000000000000000000000000000081526004018080602001828103825260258152602001806160976025913960400191505060405180910390fd5b61381d7f3dc3b3cf7884ec478650b70fd4882a0c18568511fd8ca387834303e35572414960001b6120c2565b6138497f3bd22af39de246e0772e4ff2b3b658497468aca05614d8772890732d3ff0d05e60001b6120c2565b6138757f5d29ca3aa4f9c24c944ebad343879784c0b979dd7bce772475ac26142fd40c7060001b6120c2565b6001600760008373ffffffffffffffffffffffffffffffffffffffff1673ffffffffffffffffffffffffffffffffffffffff16815260200190815260200160002060006101000a81548160ff0219169083151502179055506138f97f1b52293c92f7800ec1b7dd5149bccc729b7e1599fc3610c2808db0974f694a4960001b6120c2565b6139257f3e6b6bee3e1f8cbe9adff4eba70247b9ba8ce5db4391da18ba233600c2dca11e60001b6120c2565b8073ffffffffffffffffffffffffffffffffffffffff163373ffffffffffffffffffffffffffffffffffffffff167fbf3f493c772c8c283fd124432c2d0f539ab343faa04258fe88e52912d36b102b60405160405180910390a350565b6139ae7f5a7a4a8cd4eaed25a4abce89994aed5294195b3b0dce256f325c75c679a333f260001b6120c2565b6139da7f2ea55fa634713a02b5d6764e96fc31afa709e45e72e8b9667a85d9d5af41ab1660001b6120c2565b613a067f157208259828fd14e6db7c4c1fb519aa08d05e8f34094be9c284a326abdf031860001b6120c2565b613a327fb6bf6d447545e6a05b6d1d4e2ad50d22c22889c7f038a18a98e2fec70165337960001b6120c2565b6000821415613a8c576040517f08c379a0000000000000000000000000000000000000000000000000000000008152600401808060200182810382526024815260200180615f8e6024913960400191505060405180910390fd5b613ab87fe6c1959a4bd7642de42aa166d79e92f8c040f7a2a9b9da551d0e7dd266a8031760001b6120c2565b613ae47f72ebec2be4c64905c5190d3476d5fac853390d90e7cb030878356c4884492fea60001b6120c2565b613b107f657b203a0ab3025e05e209a75625e8e0e326abf328416dc5b0543b685cc852d660001b6120c2565b613b3c7f5ed0253e0e090a4bbe09ca14086f8bc78434ae36fa6463c54f1c3f368dec345360001b6120c2565b60258210613b95576040517f08c379a000000000000000000000000000000000000000000000000000000000815260040180806020018281038252602181526020018061602f6021913960400191505060405180910390fd5b613bc17f2eed951e0f6fd85710b5ddacc0c441d570d487ad3d9d6bb3ce74c287c28eae5460001b6120c2565b613bed7f06b0c5e165e6b159b79071367de627eb9406eba71179a88e94c994659997383d60001b6120c2565b613c197fa1eb142fecc059a467791ca6d6d916bc7049adc667f5660a0a95fb84d9ce610660001b6120c2565b613c457fe1c512f481e37ada1c419df8141bc3123fce9186fb456bf10442ca84afb0473960001b6120c2565b6127108110613c9f576040517f08c379a0000000000000000000000000000000000000000000000000000000008152600401808060200182810382526032815260200180615fdc6032913960400191505060405180910390fd5b613ccb7f4253d588a70c7932665c1fef05bdbce22dc7b675a4a5626a90b995294c9c396f60001b6120c2565b613cf77fc242cedfee87f54a801135683992ccbc0d0ae84ceb8ceb85f886488358947aab60001b6120c2565b613d237fea8c76a324989741e1dd0a9d1938853daefd5e77df28f1745d2c8cd622e299a960001b6120c2565b6000600160009054906101000a900473ffffffffffffffffffffffffffffffffffffffff1673ffffffffffffffffffffffffffffffffffffffff166323b872dd3330886040518463ffffffff1660e01b8152600401808473ffffffffffffffffffffffffffffffffffffffff1673ffffffffffffffffffffffffffffffffffffffff1681526020018373ffffffffffffffffffffffffffffffffffffffff1673ffffffffffffffffffffffffffffffffffffffff1681526020018281526020019350505050602060405180830381600087803b158015613e0257600080fd5b505af1158015613e16573d6000803e3d6000fd5b505050506040513d6020811015613e2c57600080fd5b81019080805190602001909291905050509050613e6b7f6f3212c288a091864b826af7cdfc5895d4eecd85115d69cbe24612e4cfc47d3860001b6120c2565b613e977f371fdd23407273151153089a7d8ead8dd2a23b631b156d17c55ec18a7a00ce6e60001b6120c2565b613ec37fb145cd25e93b0c3d1289d4013a60e3a92f05eb2c7ce3bb2508143547524e934760001b6120c2565b80613f19576040517f08c379a0000000000000000000000000000000000000000000000000000000008152600401808060200182810382526046815260200180615f246046913960600191505060405180910390fd5b613f457ffd7f9919678fa90bd5a0197e1d95f21b9fc319f0daf8fa43f83f734a25a0625560001b6120c2565b613f717f8c03b4278000ac923acdf3bb7f44bd699f67061267ac0506f5dce4662d85d22060001b6120c2565b613f9d7f25a8823d3e88d176ff318d07f8a70764545891a2c53df8172b2bbeb6f2986fe660001b6120c2565b6000613fc6612710613fb885896153b590919063ffffffff16565b6156cf90919063ffffffff16565b9050613ff47f785eb8af4bbc16ef7f37647b0a9e6042d83e3c60dbdbf8095919c3405e7a170c60001b6120c2565b6140207f97572340a11e9c9ba0709fa6c0235b126bae0f0b847f77a455566a7d93cdca3060001b6120c2565b61407281600560008a73ffffffffffffffffffffffffffffffffffffffff1673ffffffffffffffffffffffffffffffffffffffff1681526020019081526020016000205461579d90919063ffffffff16565b600560008973ffffffffffffffffffffffffffffffffffffffff1673ffffffffffffffffffffffffffffffffffffffff168152602001908152602001600020819055506140e17fadd1acf0558b4df378e30ee799df9098c787a34db3c977bb6231bfbb47cbbda060001b6120c2565b61410d7f7ff04435c561f5dc27abad6c9b50bbf086c7047a5f114602c32e97730cc3ee5d60001b6120c2565b6141718161416388600360008c73ffffffffffffffffffffffffffffffffffffffff1673ffffffffffffffffffffffffffffffffffffffff1681526020019081526020016000205461579d90919063ffffffff16565b6159b290919063ffffffff16565b600360008973ffffffffffffffffffffffffffffffffffffffff1673ffffffffffffffffffffffffffffffffffffffff168152602001908152602001600020819055506141e07f4e1ba96dc6dff93cd4b0ebdd540fb6b9492977f4c01f6b6a4cc684b63547c35060001b6120c2565b61420c7fe87f7523fe7dab0124360bae8f11fe0103d7d2ed7171cc712ff9f3b7c78124b260001b6120c2565b6224ea008502600860008973ffffffffffffffffffffffffffffffffffffffff1673ffffffffffffffffffffffffffffffffffffffff168152602001908152602001600020819055506142817f8fa49e8ec1acb1c8f61af22aa79df5a600ca9c0589f9607be7a9d2586495405560001b6120c2565b6142ad7f5285cfdf1009da32f49963f221a40b03b4ae76728d108f047aab6e33af37be4c60001b6120c2565b6224ea008402600960008973ffffffffffffffffffffffffffffffffffffffff1673ffffffffffffffffffffffffffffffffffffffff168152602001908152602001600020819055506143227ffddfb9e3c8aa09f940363e40c5592c355be323a85a1d97f0b8d1c12ff534123960001b6120c2565b61434e7f45108368a3cfb977088f1abe4f46f7ddf2b4039728eaa6a8afac558c6a23262960001b6120c2565b8673ffffffffffffffffffffffffffffffffffffffff163373ffffffffffffffffffffffffffffffffffffffff167fdf0604a93cf2c070525999e93d1600fae85830a1b4b10e78f409f356257cbb2a888888886040518085815260200184815260200183815260200182815260200194505050505060405180910390a350505050505050565b6144007ff2de3703434f4415d392044b2002bf19052f7d34e8e414c9211f70bb9efeeea060001b6120c2565b61442c7f8eeb39b944b7e122a8ccf6531dc802ff8b07024e9a755bf85324358d8f2ea7fb60001b6120c2565b6144587fa217a7a5a481254b17960363327bc44da12c57c0446f197c2453aa637a4d6b3060001b6120c2565b6144847fb38b09ea1ce8acd0b415e30a3ae35c65793a4e1cb58ba5a849d09f738416c07660001b6120c2565b60008114156144de576040517f08c379a00000000000000000000000000000000000000000000000000000000081526004018080602001828103825260258152602001806160506025913960400191505060405180910390fd5b61450a7f97d122643e292d81b5791e4c087b9666a84128e1a8190a996b942ddabcfa3d3f60001b6120c2565b6145367fbd7d4313f21bef8a2bd6e6a6a9b6b8363f25128f70b3fc6bf43cf9f919630be660001b6120c2565b6145627f778665f1c1361780f502c9c40634f21e09027025bcdd4b4559aad4fb34890e2660001b6120c2565b806000819055506145957fd281c46a21343f29aba5e462dc693ee3044c3a7196cade580f93f1e332f0a92d60001b6120c2565b6145c17ff841ddb5987747e91d4aec7afbc303ddc406ccf020e4d9447dfb4a6dcef9fcfa60001b6120c2565b3373ffffffffffffffffffffffffffffffffffffffff167f199e9473de2d811b62d765c8ac3703d1369824c61bb67b2453f700615ffd0f94826040518082815260200191505060405180910390a250565b60006146407f099f0f4beeab2d0d5cfc3ed6f138c76f54d9d12d77632ac7804bed5d63ee6a8060001b6120c2565b61466c7f15cd849300d0cff158bd75207e492192e0295f70644b5f4724230661b274b44e60001b6120c2565b6146987f9a67bf8a00c89a911f932c5beb691d0440d62ef939be823ef70d442d123967d760001b6120c2565b6146c47fe63e824a9bc7f2d2070611413f079002396a3d1249045dc306fc13f7f93c755860001b6120c2565b6000600860003373ffffffffffffffffffffffffffffffffffffffff1673ffffffffffffffffffffffffffffffffffffffff168152602001908152602001600020541415801561475457506000600960003373ffffffffffffffffffffffffffffffffffffffff1673ffffffffffffffffffffffffffffffffffffffff1681526020019081526020016000205414155b6147a9576040517f08c379a000000000000000000000000000000000000000000000000000000000815260040180806020018281038252602a8152602001806160bc602a913960400191505060405180910390fd5b6147d57fd36eb2707a929bdb9a82d43f125ed9f218c00f2a6349a2f8ec307708e8d101fa60001b6120c2565b6148017fa13b9cb0ded95be2ef3d610472bacb461d86efd966cc54da338d358b25c5052860001b6120c2565b61482d7fc431137e542fba43a12946ab234f1b3348051f808ecb3e400e548d6f2e5492cd60001b6120c2565b600260009054906101000a900473ffffffffffffffffffffffffffffffffffffffff1673ffffffffffffffffffffffffffffffffffffffff16630665a06f836000600860008773ffffffffffffffffffffffffffffffffffffffff1673ffffffffffffffffffffffffffffffffffffffff16815260200190815260200160002054600960008873ffffffffffffffffffffffffffffffffffffffff1673ffffffffffffffffffffffffffffffffffffffff168152602001908152602001600020546040518563ffffffff1660e01b8152600401808573ffffffffffffffffffffffffffffffffffffffff1673ffffffffffffffffffffffffffffffffffffffff168152602001848152602001838152602001828152602001945050505050600060405180830381600087803b15801561496557600080fd5b505af1158015614979573d6000803e3d6000fd5b505050506149a97feb84e2e98f750099f6a12a17b228af6efd14a45da9e69be26ae85d53c515c55f60001b6120c2565b6149d57fe8839bdbfa2bdbe86ab6787c83e7b71342245fde9588f805178faef4218ff64160001b6120c2565b6149de82614aae565b9050614a0c7f46c4cb90b19235ff6fc55c36f5cab4c48da6b5b8d21f3c76ae7b26c2fc3227db60001b6120c2565b614a387feb82bf1014f20ad76c1c4f125593e206ad75ae708562bc456b6f67551d5c9bce60001b6120c2565b8073ffffffffffffffffffffffffffffffffffffffff168273ffffffffffffffffffffffffffffffffffffffff163373ffffffffffffffffffffffffffffffffffffffff167fbca00eff836738917bc04c3b9c08d4bb6af3f58f9eb021d294e6b17bc6a3b86560405160405180910390a4919050565b6000614adc7f8e56a657ee9eeb3841541aaac5ac2331d9fe55b98ba2604ff388324c3304f94160001b6120c2565b614b087fa56f2526df98a4a70429179464d83e976b8e368014d183fa1d1c1626ddb743f960001b6120c2565b614b347fee62d1035803aaafaa50e3933f0c497ee2a20a70f029681972e31474307e125860001b6120c2565b600260009054906101000a900473ffffffffffffffffffffffffffffffffffffffff1673ffffffffffffffffffffffffffffffffffffffff1663cc49ede7836040518263ffffffff1660e01b8152600401808273ffffffffffffffffffffffffffffffffffffffff1673ffffffffffffffffffffffffffffffffffffffff16815260200191505060206040518083038186803b158015614bd357600080fd5b505afa158015614be7573d6000803e3d6000fd5b505050506040513d6020811015614bfd57600080fd5b81019080805190602001909291905050509050919050565b614c417f67d7a523c6f24336e024fa1df492c977d7c45c6fabbcd04f65f6507c577b462c60001b6120c2565b614c6d7fbb54d59daf6decb198ad8eedf74bdbcd6ad7ab89808f3b18f4368677140ee28f60001b6120c2565b614c997fe1fab23ebdc2c288439ffaeaf42d881626225d35a4821134710cd5801ef61bb960001b6120c2565b6000600460008473ffffffffffffffffffffffffffffffffffffffff1673ffffffffffffffffffffffffffffffffffffffff168152602001908152602001600020549050614d097f6810bbb868a8216ac25357ea1ef57233aad728bd62c242eed32ed9f39b7e111b60001b6120c2565b614d357f63d84521e884c74b1fe88b373f6febb7ba4662bf4024653f0eba75f3815c33a560001b6120c2565b6000600460008573ffffffffffffffffffffffffffffffffffffffff1673ffffffffffffffffffffffffffffffffffffffff16815260200190815260200160002081905550614da67f36b2a7113f91194c9a121ee53ed579159bc757a407eb6587325b8cffef5a668360001b6120c2565b614dd27f83543865e5dc44996ed2a9a837377fa8ed9df96577e25fc05ed06955644d924160001b6120c2565b614dfe7fdfe401b06ceea015e072c2d169acb077d0dc07536c0f8edfe4d2f3b4ef9973c460001b6120c2565b600160009054906101000a900473ffffffffffffffffffffffffffffffffffffffff1673ffffffffffffffffffffffffffffffffffffffff1663095ea7b383836040518363ffffffff1660e01b8152600401808373ffffffffffffffffffffffffffffffffffffffff1673ffffffffffffffffffffffffffffffffffffffff16815260200182815260200192505050602060405180830381600087803b158015614ea757600080fd5b505af1158015614ebb573d6000803e3d6000fd5b505050506040513d6020811015614ed157600080fd5b8101908080519060200190929190505050614f54576040517f08c379a000000000000000000000000000000000000000000000000000000000815260040180806020018281038252601b8152602001807f4c6f636b656446756e643a20417070726f7665206661696c65642e000000000081525060200191505060405180910390fd5b614f807f1e7d28e374b4ad17a701f458bfc23c911dccaeff672d9a612ba9dccd5e5a7b2860001b6120c2565b614fac7f4f755a415ac5cda9cd6382b525ba935b084793a9bfece614cfc557ac15751a9560001b6120c2565b614fd87f9c25cbcd62d96a993bf63d2f683525dc41f4e9afc4974a16356111a70728849560001b6120c2565b8173ffffffffffffffffffffffffffffffffffffffff16637547c7a3826040518263ffffffff1660e01b815260040180828152602001915050600060405180830381600087803b15801561502b57600080fd5b505af115801561503f573d6000803e3d6000fd5b5050505061506f7f85730c4b1ed5602564ee4ca31b9c2186db04dc3c2442acdc60cc7018657b4fb760001b6120c2565b61509b7f158adb9e1c2ba2701a3774d50f2bf0b454ca0149a9017067c1a27d97556bbdc460001b6120c2565b8173ffffffffffffffffffffffffffffffffffffffff168373ffffffffffffffffffffffffffffffffffffffff167f17a90bf25d618e67de9bc66de5762d97787b11707d112164ab54c37111467f2b836040518082815260200191505060405180910390a3505050565b6151317f1c2e0ab2daa50c6af223e5a4a38cda73244e06754019097bac898d3a8d0ad72b60001b6120c2565b61515d7ff709447a43d916016620baffa27e0b612c237dfde458a4cd3158a24f95e59c5660001b6120c2565b6151897f072ca76825e34184e852e51358abb0403ef001ce51650bb3e3270104cece56c860001b6120c2565b6151b57ffbf68d9cba3602380a8dd1ea5133db55631c6cacf3ae6134922c59642f9f233c60001b6120c2565b600073ffffffffffffffffffffffffffffffffffffffff168173ffffffffffffffffffffffffffffffffffffffff16141561523b576040517f08c379a00000000000000000000000000000000000000000000000000000000081526004018080602001828103825260308152602001806161096030913960400191505060405180910390fd5b6152677f632367eae68bc60b4b3ed9477d92656f8d6385849cff8a98fb471c4ab72a6f2960001b6120c2565b6152937fe7dde9282727830d8509f7af4624b918a6f95fe48dcaf6b5360d028443839f3560001b6120c2565b6152bf7f1c6020d90b840db2fedeedf9fd0518b690cce2e8392ebe6f9455a97eb9e875a960001b6120c2565b80600260006101000a81548173ffffffffffffffffffffffffffffffffffffffff021916908373ffffffffffffffffffffffffffffffffffffffff16021790555061532c7f9d988d582446515dd8de8177f2f020288f17d4e406967c6a2f07fa08a5de473b60001b6120c2565b6153587ffcc3a502f003451fda9ba1c6236e289cf035e776d54d9424ad2e2701a513380660001b6120c2565b8073ffffffffffffffffffffffffffffffffffffffff163373ffffffffffffffffffffffffffffffffffffffff167f48c779b869b43e376452fea450ca0bcc7dde32d0c079cb448edb5b3f2ad4b3e760405160405180910390a350565b60006153e37f44698d1e9a904ed1284ff1ffbc3dd61250c83d2c71afd5df19fbf19c6190a1c260001b615a80565b61540f7fa3a4b98cb2a23eda9dbb54b77b676d94ca9d1d4bafcc15caee09e68074b0ef8d60001b615a80565b61543b7f3c0e96b55c01aeef942723329b7f27779568810ddd00a05282ffd2e3b5d233d760001b615a80565b60008314156154d1576154707ff802f4a238c6bfb87737692d90643ed6d1e91071b816804127f57dca78bfaab660001b615a80565b61549c7f9c7552f9a426f225c2850fa12a0dc5fb398b1adc4885e41fd5a32fae1dbf05d760001b615a80565b6154c87f88253dfa1829ebe573c7def7f8d624e362791a1e5da86330776d1836a357555360001b615a80565b600090506156c9565b6154fc7ec5af928e6c63fb10ff91a6c5a4e910c4f39f595f742d8e52dc11b03ad6250f60001b615a80565b6155287f5e551b5129d493f012d238e272eb615eaa6959509de842125d5c3b203db4ec2660001b615a80565b6155547f6eeef49995c967235a764d0bfc2ddf3ad4e6890ca3a3e7024c52da8393db1ce160001b615a80565b600082840290506155877fab80a6313ea3c5926e33d7cfa6c464eb729cc09a2e212bce50dc9d97fae0ed7260001b615a80565b6155b37fcf8cc8694fe56eef0897d8bf5580925daf8927e537ada7fb46a3727fe18d423260001b615a80565b6155df7ff5b30a17ff5e5b532b98d8059efeb460d05236f98b90e61b8794894cfad8502d60001b615a80565b828482816155e957fe5b0414615640576040517f08c379a000000000000000000000000000000000000000000000000000000000815260040180806020018281038252602181526020018061600e6021913960400191505060405180910390fd5b61566c7f9fdef838f8fa27d2dbdb6cfecf3f275aa85c5ae07d712150d6e17c19c215bfd560001b615a80565b6156987fe9975f5879861c66ca2a2d35617f5a37951b7cf797008080c2db7371f45b3b1460001b615a80565b6156c47f1040ca89b272f25ce391ff02203288f6f7b9bee30a94da64205ca6d937da6b3460001b615a80565b809150505b92915050565b60006156fd7f996468adab2cfba5de081e00c611ca70c15d8fec7d5bf522494a62c1469ffa6a60001b615a80565b6157297f9f1ba2348d57cab76c102a92e631d7e3d939d3a1ce6cb3a01a504d1656b19f5060001b615a80565b6157557f46d4aa33cd017349564c3524038979baabbfc921b9cf218610f32f2cefa7e6de60001b615a80565b61579583836040518060400160405280601a81526020017f536166654d6174683a206469766973696f6e206279207a65726f000000000000815250615a83565b905092915050565b60006157cb7fbaf9c024e95ded51de10de581f7e9a5f9278d7d44c88913bedce3e2dd10f64ba60001b615a80565b6157f77fc54665a8398e9a7e108333c05bd60b786b5c6620add6f03718489066cdf4fa8f60001b615a80565b6158237fbf6db928e163d9f59e0f205ed6023acfccceb125f3a96bdeeea0a0b33746dbd760001b615a80565b600082840190506158567fda1f611a7ae523006cfa4e37c35a2ad88d939645e316417be5c71c6d1012fee060001b615a80565b6158827fba19c50fb18fc1ea6c6cf800b5518af3902a832de775b543b58d5495a00bf67360001b615a80565b6158ae7fffc23a720492c3b2a8e1cffab47c814debe3e6b6e15d8bdab0719a42758eea0760001b615a80565b83811015615924576040517f08c379a000000000000000000000000000000000000000000000000000000000815260040180806020018281038252601b8152602001807f536166654d6174683a206164646974696f6e206f766572666c6f77000000000081525060200191505060405180910390fd5b6159507f832790f69709d076ed0dfcd48e5589a4d45bfc4f71042ad4dde2bc7eb90e539560001b615a80565b61597c7f8840e735ebdf3bcd2d42eb9c3081a59867a5d7290d1ac576e7491bc1920b28c660001b615a80565b6159a87fed0d950aaaaa99bb131a51c630fe967814c6a8eca5750c5f5d395ed7e6fc4df560001b615a80565b8091505092915050565b60006159e07f692a0cfdea6cb12cdfcaa599c058fa5662531cebd540556a6d1c27ae01b4cea360001b615a80565b615a0c7f2cce8d8afd666e4919d1ece0b47a35eda094c843996926984c8b17a0d5cd2f7160001b615a80565b615a387f936781d4063de1913a3eda99a7c2145fe8a9c61ba2abe4fa4e7dd270bf8b933960001b615a80565b615a7883836040518060400160405280601e81526020017f536166654d6174683a207375627472616374696f6e206f766572666c6f770000815250615cd7565b905092915050565b50565b6000615ab17f196dd912071b7ac5c8a10b8a236898e903a5c95f5189a9aeb16dc1191096752060001b615a80565b615add7ff25ec16e9c80532b14a66f8cd16ae291eebc856235e409a39c3fbd9dc53e53fb60001b615a80565b615b097ffb609f676697fca43f3242dd637f8af44d19e0456d05ec1547a1557478b8a1ea60001b615a80565b615b357ffc25a7e532044dc446303b3445457a6ba5f30c2ec2085a7b37e4ae0e05b09ba260001b615a80565b60008314158290615be1576040517f08c379a00000000000000000000000000000000000000000000000000000000081526004018080602001828103825283818151815260200191508051906020019080838360005b83811015615ba6578082015181840152602081019050615b8b565b50505050905090810190601f168015615bd35780820380516001836020036101000a031916815260200191505b509250505060405180910390fd5b50615c0e7f295ce5b61523fe81f08b0e41715a55fb7cc4323fa58af5f536a59e28b507ad6660001b615a80565b615c3a7f4460e22500904e71005e8ef95355467cd96d8038ca3b358379ef52915f4cd11a60001b615a80565b615c667f898838ee4191c5d93d43aba28d5dace210f5b5fe59d06155be60fc494d99a9f060001b615a80565b6000838581615c7157fe5b049050615ca07f6d2a274d329c86c87e9d63cea7c87a6fd3d3ca9ab129144ff43f4724a38a4a5960001b615a80565b615ccc7fbb4fe2c1c37d48811af5ff17eb49f43a22d0b33ae049d66f26c63e5ac81928dc60001b615a80565b809150509392505050565b6000615d057f97bc992a4f710454ab746d4db616a64ea018383de54a85d139640731ed8b5fc560001b615a80565b615d317f67e24e464bd90888e5a6d6d7c05830895e792029cec27ec532870f3734c4e9ea60001b615a80565b615d5d7f4039b6d8f47f4ca568e409887bf0e53b596c141aaf42f7df7fbed083576f3bfa60001b615a80565b615d897fd3eabfc731565b9df642e5c91d1b10abe52f04d31e4ba5ae2cc5610aba56017960001b615a80565b838311158290615e34576040517f08c379a00000000000000000000000000000000000000000000000000000000081526004018080602001828103825283818151815260200191508051906020019080838360005b83811015615df9578082015181840152602081019050615dde565b50505050905090810190601f168015615e265780820380516001836020036101000a031916815260200191505b509250505060405180910390fd5b50615e617f1be1097c7e714e366e7336e422166ce73c2ec11ee3b5c610e0201606faa1e3c360001b615a80565b615e8d7f62288fe6f0a7956d13aa94e419476e92affec09faeb973818c5a82c870581e6660001b615a80565b615eb97f2eccc13b0d77f3b98461d150ed7c0bf1e17fbc9b8605d30fcc0d7af3d9c4977e60001b615a80565b60008385039050615eec7f090094c41ccfe2cce7f6f6a4a1a9aecd44506a466b0045ca8d92810149fede6960001b615a80565b615f187f93915212060404093bbcece6fae9c03e5916d81ccc52020014493ab5283dd97560001b615a80565b80915050939250505056fe4c6f636b656446756e643a20546f6b656e207472616e7366657220776173206e6f74207375636365737366756c2e20436865636b20726563656976657220616464726573732e4c6f636b656446756e643a2041646472657373206973206e6f7420616e2061646d696e2e4c6f636b656446756e643a204475726174696f6e2063616e6e6f74206265207a65726f2e4c6f636b656446756e643a20576169742054696d657374616d70206e6f7420796574207061737365642e4c6f636b656446756e643a20426173697320506f696e742068617320746f206265206c657373207468616e2031303030302e536166654d6174683a206d756c7469706c69636174696f6e206f766572666c6f774c6f636b656446756e643a204475726174696f6e20697320746f6f206c6f6e672e4c6f636b656446756e643a205761697465642054532063616e6e6f74206265207a65726f2e4c6f636b656446756e643a20576169746564205453206e6f7420736574207965742e4c6f636b656446756e643a204164647265737320697320616c72656164792061646d696e2e4c6f636b656446756e643a20436c69666620616e642f6f72204475726174696f6e206e6f74207365742e4c6f636b656446756e643a2057726f6e672056657374696e67205363686564756c652e4c6f636b656446756e643a2056657374696e67207265676973747279206164647265737320697320696e76616c69642ea265627a7a723158207f62dae5e609d06a020f3af63364576272b32cd2f9bfd3c84e0615da999df87764736f6c634300051100324c6f636b656446756e643a205761697465642054532063616e6e6f74206265207a65726f2e4c6f636b656446756e643a20496e76616c696420546f6b656e20416464726573732e4c6f636b656446756e643a2056657374696e67207265676973747279206164647265737320697320696e76616c69642e",
  "linkReferences": {},
  "deployedLinkReferences": {}
}