{
  "_format": "hh-sol-artifact-1",
  "contractName": "LockedFund",
  "sourceName": "contracts/LockedFund.sol",
  "abi": [
    {
      "inputs": [
        {
          "internalType": "uint256",
          "name": "_waitedTS",
          "type": "uint256"
        },
        {
          "internalType": "address",
          "name": "_token",
          "type": "address"
        },
        {
          "internalType": "address",
          "name": "_vestingRegistry",
          "type": "address"
        },
        {
          "internalType": "address[]",
          "name": "_admins",
          "type": "address[]"
        }
      ],
      "payable": false,
      "stateMutability": "nonpayable",
      "type": "constructor"
    },
    {
      "anonymous": false,
      "inputs": [
        {
          "indexed": true,
          "internalType": "address",
          "name": "_initiator",
          "type": "address"
        },
        {
          "indexed": true,
          "internalType": "address",
          "name": "_newAdmin",
          "type": "address"
        }
      ],
      "name": "AdminAdded",
      "type": "event"
    },
    {
      "anonymous": false,
      "inputs": [
        {
          "indexed": true,
          "internalType": "address",
          "name": "_initiator",
          "type": "address"
        },
        {
          "indexed": true,
          "internalType": "address",
          "name": "_removedAdmin",
          "type": "address"
        }
      ],
      "name": "AdminRemoved",
      "type": "event"
    },
    {
      "anonymous": false,
      "inputs": [
        {
          "indexed": true,
          "internalType": "address",
          "name": "_initiator",
          "type": "address"
        },
        {
          "indexed": true,
          "internalType": "address",
          "name": "_vesting",
          "type": "address"
        },
        {
          "indexed": false,
          "internalType": "uint256",
          "name": "_amount",
          "type": "uint256"
        }
      ],
      "name": "TokenStaked",
      "type": "event"
    },
    {
      "anonymous": false,
      "inputs": [
        {
          "indexed": true,
          "internalType": "address",
          "name": "_initiator",
          "type": "address"
        },
        {
          "indexed": true,
          "internalType": "address",
          "name": "_userAddress",
          "type": "address"
        },
        {
          "indexed": false,
          "internalType": "uint256",
          "name": "_amount",
          "type": "uint256"
        },
        {
          "indexed": false,
          "internalType": "uint256",
          "name": "_cliff",
          "type": "uint256"
        },
        {
          "indexed": false,
          "internalType": "uint256",
          "name": "_duration",
          "type": "uint256"
        },
        {
          "indexed": false,
          "internalType": "uint256",
          "name": "_basisPoint",
          "type": "uint256"
        }
      ],
      "name": "VestedDeposited",
      "type": "event"
    },
    {
      "anonymous": false,
      "inputs": [
        {
          "indexed": true,
          "internalType": "address",
          "name": "_initiator",
          "type": "address"
        },
        {
          "indexed": true,
          "internalType": "address",
          "name": "_userAddress",
          "type": "address"
        },
        {
          "indexed": true,
          "internalType": "address",
          "name": "_vesting",
          "type": "address"
        }
      ],
      "name": "VestingCreated",
      "type": "event"
    },
    {
      "anonymous": false,
      "inputs": [
        {
          "indexed": true,
          "internalType": "address",
          "name": "_initiator",
          "type": "address"
        },
        {
          "indexed": true,
          "internalType": "address",
          "name": "_vestingRegistry",
          "type": "address"
        }
      ],
      "name": "VestingRegistryUpdated",
      "type": "event"
    },
    {
      "anonymous": false,
      "inputs": [
        {
          "indexed": true,
          "internalType": "address",
          "name": "_initiator",
          "type": "address"
        },
        {
          "indexed": false,
          "internalType": "uint256",
          "name": "_waitedTS",
          "type": "uint256"
        }
      ],
      "name": "WaitedTSUpdated",
      "type": "event"
    },
    {
      "anonymous": false,
      "inputs": [
        {
          "indexed": true,
          "internalType": "address",
          "name": "_initiator",
          "type": "address"
        },
        {
          "indexed": true,
          "internalType": "address",
          "name": "_userAddress",
          "type": "address"
        },
        {
          "indexed": false,
          "internalType": "uint256",
          "name": "_amount",
          "type": "uint256"
        }
      ],
      "name": "Withdrawn",
      "type": "event"
    },
    {
      "constant": true,
      "inputs": [],
      "name": "INTERVAL",
      "outputs": [
        {
          "internalType": "uint256",
          "name": "",
          "type": "uint256"
        }
      ],
      "payable": false,
      "stateMutability": "view",
      "type": "function"
    },
    {
      "constant": false,
      "inputs": [
        {
          "internalType": "address",
          "name": "_adminToRemove",
          "type": "address"
        }
      ],
      "name": "_removeAdmin",
      "outputs": [],
      "payable": false,
      "stateMutability": "nonpayable",
      "type": "function"
    },
    {
      "constant": false,
      "inputs": [
        {
          "internalType": "address",
          "name": "_newAdmin",
          "type": "address"
        }
      ],
      "name": "addAdmin",
      "outputs": [],
      "payable": false,
      "stateMutability": "nonpayable",
      "type": "function"
    },
    {
      "constant": true,
      "inputs": [
        {
          "internalType": "address",
          "name": "_addr",
          "type": "address"
        }
      ],
      "name": "adminStatus",
      "outputs": [
        {
          "internalType": "bool",
          "name": "_status",
          "type": "bool"
        }
      ],
      "payable": false,
      "stateMutability": "view",
      "type": "function"
    },
    {
      "constant": false,
      "inputs": [
        {
          "internalType": "address",
          "name": "_vestingRegistry",
          "type": "address"
        }
      ],
      "name": "changeVestingRegistry",
      "outputs": [],
      "payable": false,
      "stateMutability": "nonpayable",
      "type": "function"
    },
    {
      "constant": false,
      "inputs": [
        {
          "internalType": "uint256",
          "name": "_waitedTS",
          "type": "uint256"
        }
      ],
      "name": "changeWaitedTS",
      "outputs": [],
      "payable": false,
      "stateMutability": "nonpayable",
      "type": "function"
    },
    {
      "constant": true,
      "inputs": [
        {
          "internalType": "address",
          "name": "",
          "type": "address"
        }
      ],
      "name": "cliff",
      "outputs": [
        {
          "internalType": "uint256",
          "name": "",
          "type": "uint256"
        }
      ],
      "payable": false,
      "stateMutability": "view",
      "type": "function"
    },
    {
      "constant": false,
      "inputs": [],
      "name": "createVesting",
      "outputs": [
        {
          "internalType": "address",
          "name": "_vestingAddress",
          "type": "address"
        }
      ],
      "payable": false,
      "stateMutability": "nonpayable",
      "type": "function"
    },
    {
      "constant": false,
      "inputs": [],
      "name": "createVestingAndStake",
      "outputs": [],
      "payable": false,
      "stateMutability": "nonpayable",
      "type": "function"
    },
    {
      "constant": false,
      "inputs": [
        {
          "internalType": "address",
          "name": "_userAddress",
          "type": "address"
        },
        {
          "internalType": "uint256",
          "name": "_amount",
          "type": "uint256"
        },
        {
          "internalType": "uint256",
          "name": "_cliff",
          "type": "uint256"
        },
        {
          "internalType": "uint256",
          "name": "_duration",
          "type": "uint256"
        },
        {
          "internalType": "uint256",
          "name": "_basisPoint",
          "type": "uint256"
        }
      ],
      "name": "depositVested",
      "outputs": [],
      "payable": false,
      "stateMutability": "nonpayable",
      "type": "function"
    },
    {
      "constant": true,
      "inputs": [
        {
          "internalType": "address",
          "name": "",
          "type": "address"
        }
      ],
      "name": "duration",
      "outputs": [
        {
          "internalType": "uint256",
          "name": "",
          "type": "uint256"
        }
      ],
      "payable": false,
      "stateMutability": "view",
      "type": "function"
    },
    {
      "constant": true,
      "inputs": [
        {
          "internalType": "address",
          "name": "_addr",
          "type": "address"
        }
      ],
      "name": "getCliffAndDuration",
      "outputs": [
        {
          "internalType": "uint256",
          "name": "",
          "type": "uint256"
        },
        {
          "internalType": "uint256",
          "name": "",
          "type": "uint256"
        }
      ],
      "payable": false,
      "stateMutability": "view",
      "type": "function"
    },
    {
      "constant": true,
      "inputs": [
        {
          "internalType": "address",
          "name": "_addr",
          "type": "address"
        }
      ],
      "name": "getLockedBalance",
      "outputs": [
        {
          "internalType": "uint256",
          "name": "_balance",
          "type": "uint256"
        }
      ],
      "payable": false,
      "stateMutability": "view",
      "type": "function"
    },
    {
      "constant": true,
      "inputs": [],
      "name": "getToken",
      "outputs": [
        {
          "internalType": "address",
          "name": "",
          "type": "address"
        }
      ],
      "payable": false,
      "stateMutability": "view",
      "type": "function"
    },
    {
      "constant": true,
      "inputs": [
        {
          "internalType": "address",
          "name": "_addr",
          "type": "address"
        }
      ],
      "name": "getUnlockedBalance",
      "outputs": [
        {
          "internalType": "uint256",
          "name": "_balance",
          "type": "uint256"
        }
      ],
      "payable": false,
      "stateMutability": "view",
      "type": "function"
    },
    {
      "constant": true,
      "inputs": [],
      "name": "getVestingDetails",
      "outputs": [
        {
          "internalType": "address",
          "name": "",
          "type": "address"
        }
      ],
      "payable": false,
      "stateMutability": "view",
      "type": "function"
    },
    {
      "constant": true,
      "inputs": [],
      "name": "getWaitedTS",
      "outputs": [
        {
          "internalType": "uint256",
          "name": "",
          "type": "uint256"
        }
      ],
      "payable": false,
      "stateMutability": "view",
      "type": "function"
    },
    {
      "constant": true,
      "inputs": [
        {
          "internalType": "address",
          "name": "_addr",
          "type": "address"
        }
      ],
      "name": "getWaitedUnlockedBalance",
      "outputs": [
        {
          "internalType": "uint256",
          "name": "_balance",
          "type": "uint256"
        }
      ],
      "payable": false,
      "stateMutability": "view",
      "type": "function"
    },
    {
      "constant": true,
      "inputs": [
        {
          "internalType": "address",
          "name": "",
          "type": "address"
        }
      ],
      "name": "isAdmin",
      "outputs": [
        {
          "internalType": "bool",
          "name": "",
          "type": "bool"
        }
      ],
      "payable": false,
      "stateMutability": "view",
      "type": "function"
    },
    {
      "constant": true,
      "inputs": [
        {
          "internalType": "address",
          "name": "",
          "type": "address"
        }
      ],
      "name": "lockedBalances",
      "outputs": [
        {
          "internalType": "uint256",
          "name": "",
          "type": "uint256"
        }
      ],
      "payable": false,
      "stateMutability": "view",
      "type": "function"
    },
    {
      "constant": false,
      "inputs": [
        {
          "internalType": "address",
          "name": "_adminToRemove",
          "type": "address"
        }
      ],
      "name": "removeAdmin",
      "outputs": [],
      "payable": false,
      "stateMutability": "nonpayable",
      "type": "function"
    },
    {
      "constant": false,
      "inputs": [],
      "name": "stakeTokens",
      "outputs": [],
      "payable": false,
      "stateMutability": "nonpayable",
      "type": "function"
    },
    {
      "constant": true,
      "inputs": [],
      "name": "token",
      "outputs": [
        {
          "internalType": "contract IERC20",
          "name": "",
          "type": "address"
        }
      ],
      "payable": false,
      "stateMutability": "view",
      "type": "function"
    },
    {
      "constant": true,
      "inputs": [
        {
          "internalType": "address",
          "name": "",
          "type": "address"
        }
      ],
      "name": "unlockedBalances",
      "outputs": [
        {
          "internalType": "uint256",
          "name": "",
          "type": "uint256"
        }
      ],
      "payable": false,
      "stateMutability": "view",
      "type": "function"
    },
    {
      "constant": true,
      "inputs": [
        {
          "internalType": "address",
          "name": "_addr",
          "type": "address"
        }
      ],
      "name": "vestedBalance",
      "outputs": [
        {
          "internalType": "uint256",
          "name": "_balance",
          "type": "uint256"
        }
      ],
      "payable": false,
      "stateMutability": "view",
      "type": "function"
    },
    {
      "constant": true,
      "inputs": [
        {
          "internalType": "address",
          "name": "",
          "type": "address"
        }
      ],
      "name": "vestedBalances",
      "outputs": [
        {
          "internalType": "uint256",
          "name": "",
          "type": "uint256"
        }
      ],
      "payable": false,
      "stateMutability": "view",
      "type": "function"
    },
    {
      "constant": true,
      "inputs": [],
      "name": "vestingRegistry",
      "outputs": [
        {
          "internalType": "contract IVestingRegistry",
          "name": "",
          "type": "address"
        }
      ],
      "payable": false,
      "stateMutability": "view",
      "type": "function"
    },
    {
      "constant": true,
      "inputs": [],
      "name": "waitedTS",
      "outputs": [
        {
          "internalType": "uint256",
          "name": "",
          "type": "uint256"
        }
      ],
      "payable": false,
      "stateMutability": "view",
      "type": "function"
    },
    {
      "constant": true,
      "inputs": [
        {
          "internalType": "address",
          "name": "",
          "type": "address"
        }
      ],
      "name": "waitedUnlockedBalances",
      "outputs": [
        {
          "internalType": "uint256",
          "name": "",
          "type": "uint256"
        }
      ],
      "payable": false,
      "stateMutability": "view",
      "type": "function"
    },
    {
      "constant": false,
      "inputs": [
        {
          "internalType": "address",
          "name": "_receiverAddress",
          "type": "address"
        }
      ],
      "name": "withdrawAndStakeTokens",
      "outputs": [],
      "payable": false,
      "stateMutability": "nonpayable",
      "type": "function"
    },
    {
      "constant": false,
      "inputs": [
        {
          "internalType": "address",
          "name": "_userAddress",
          "type": "address"
        }
      ],
      "name": "withdrawAndStakeTokensFrom",
      "outputs": [],
      "payable": false,
      "stateMutability": "nonpayable",
      "type": "function"
    },
    {
      "constant": false,
      "inputs": [
        {
          "internalType": "address",
          "name": "_receiverAddress",
          "type": "address"
        }
      ],
      "name": "withdrawWaitedUnlockedBalance",
      "outputs": [],
      "payable": false,
      "stateMutability": "nonpayable",
      "type": "function"
    }
  ],
  "bytecode": "0x60806040523480156200001157600080fd5b5060405162001e1a38038062001e1a833981810160405260808110156200003757600080fd5b8151602083015160408085015160608601805192519496939591949391820192846401000000008211156200006b57600080fd5b9083019060208201858111156200008157600080fd5b82518660208202830111640100000000821117156200009f57600080fd5b82525081516020918201928201910280838360005b83811015620000ce578181015183820152602001620000b4565b5050505090500160405250505083600014156200011d5760405162461bcd60e51b815260040180806020018281038252602581526020018062001da36025913960400191505060405180910390fd5b6001600160a01b038316620001645760405162461bcd60e51b815260040180806020018281038252602281526020018062001dc86022913960400191505060405180910390fd5b6001600160a01b038216620001ab5760405162461bcd60e51b815260040180806020018281038252603081526020018062001dea6030913960400191505060405180910390fd5b6000848155600180546001600160a01b038087166001600160a01b03199283161790925560028054928616929091169190911790555b8151811015620003175760006001600160a01b03168282815181106200020357fe5b60200260200101516001600160a01b0316141562000268576040805162461bcd60e51b815260206004820152601c60248201527f4c6f636b656446756e643a20496e76616c696420416464726573732e00000000604482015290519081900360640190fd5b6001600760008484815181106200027b57fe5b60200260200101516001600160a01b03166001600160a01b0316815260200190815260200160002060006101000a81548160ff021916908315150217905550818181518110620002c757fe5b60200260200101516001600160a01b0316336001600160a01b03167fbf3f493c772c8c283fd124432c2d0f539ab343faa04258fe88e52912d36b102b60405160405180910390a3600101620001e1565b5050505050611a77806200032c6000396000f3fe608060405234801561001057600080fd5b50600436106101f05760003560e01c806389facb201161010f578063c4086893116100a2578063ce46643b11610071578063ce46643b14610599578063e5545864146105a1578063ec3ea7d4146105c7578063fc0c546a146105ed576101f0565b8063c40868931461051f578063cb3fdb6114610545578063cc6f03331461056b578063cdce101b14610573576101f0565b80639114557e116100de5780639114557e146104a5578063aaba2c0d146104cb578063b36760a3146104f1578063c227cbd814610517576101f0565b806389facb20146104525780638c8ba66d1461045a5780638efd94f314610480578063904c5b8f1461049d576101f0565b80634558269f1161018757806361ade4261161015657806361ade426146103c057806370480275146103e657806377a69b521461040c578063849a681714610414576101f0565b80634558269f1461034b5780634c2a295c1461035357806355e715cf1461035b578063594092db14610381576101f0565b806324276777116101c3578063242767771461029f57806324d7806c146102c55780632b6df82a146102ff5780633e4a89d114610325576101f0565b80630483a7f6146101f5578063129de5bf1461022d5780631785f53c1461025357806321df0da71461027b575b600080fd5b61021b6004803603602081101561020b57600080fd5b50356001600160a01b03166105f5565b60408051918252519081900360200190f35b61021b6004803603602081101561024357600080fd5b50356001600160a01b0316610607565b6102796004803603602081101561026957600080fd5b50356001600160a01b0316610622565b005b610283610680565b604080516001600160a01b039092168252519081900360200190f35b61021b600480360360208110156102b557600080fd5b50356001600160a01b031661068f565b6102eb600480360360208110156102db57600080fd5b50356001600160a01b03166106a1565b604080519115158252519081900360200190f35b6102796004803603602081101561031557600080fd5b50356001600160a01b03166106b6565b6102eb6004803603602081101561033b57600080fd5b50356001600160a01b03166106c9565b6102796106e7565b61021b6106f2565b6102796004803603602081101561037157600080fd5b50356001600160a01b03166106f8565b6103a76004803603602081101561039757600080fd5b50356001600160a01b0316610702565b6040805192835260208301919091528051918290030190f35b610279600480360360208110156103d657600080fd5b50356001600160a01b031661072a565b610279600480360360208110156103fc57600080fd5b50356001600160a01b031661081d565b61021b610878565b610279600480360360a081101561042a57600080fd5b506001600160a01b03813516906020810135906040810135906060810135906080013561087e565b61021b6108e4565b61021b6004803603602081101561047057600080fd5b50356001600160a01b03166108eb565b6102796004803603602081101561049657600080fd5b50356108fd565b610283610958565b61021b600480360360208110156104bb57600080fd5b50356001600160a01b0316610967565b61021b600480360360208110156104e157600080fd5b50356001600160a01b0316610982565b61021b6004803603602081101561050757600080fd5b50356001600160a01b031661099d565b6102836109af565b61021b6004803603602081101561053557600080fd5b50356001600160a01b03166109be565b61021b6004803603602081101561055b57600080fd5b50356001600160a01b03166109d9565b6102836109eb565b61021b6004803603602081101561058957600080fd5b50356001600160a01b03166109fb565b610279610a0d565b610279600480360360208110156105b757600080fd5b50356001600160a01b0316610b53565b610279600480360360208110156105dd57600080fd5b50356001600160a01b0316610b66565b610283610bc1565b60046020526000908152604090205481565b6001600160a01b031660009081526006602052604090205490565b3360009081526007602052604090205460ff16610674576040805162461bcd60e51b81526020600482015260196024820152600080516020611854833981519152604482015290519081900360640190fd5b61067d8161072a565b50565b6001546001600160a01b031690565b60056020526000908152604090205481565b60076020526000908152604090205460ff1681565b6106c08182610bd0565b61067d81610d84565b6001600160a01b031660009081526007602052604090205460ff1690565b6106f033610d84565b565b60005490565b61067d3382610bd0565b6001600160a01b03166000908152600860209081526040808320546009909252909120549091565b3360009081526007602052604090205460ff1661077c576040805162461bcd60e51b81526020600482015260196024820152600080516020611854833981519152604482015290519081900360640190fd5b6001600160a01b03811660009081526007602052604090205460ff166107d35760405162461bcd60e51b81526004018080602001828103825260248152602001806118746024913960400191505060405180910390fd5b6001600160a01b038116600081815260076020526040808220805460ff191690555133917fdb9d5d31320daf5bc7181d565b6da4d12e30f0f4d5aa324a992426c14a1d19ce91a350565b3360009081526007602052604090205460ff1661086f576040805162461bcd60e51b81526020600482015260196024820152600080516020611854833981519152604482015290519081900360640190fd5b61067d81610db9565b60005481565b3360009081526007602052604090205460ff166108d0576040805162461bcd60e51b81526020600482015260196024820152600080516020611854833981519152604482015290519081900360640190fd5b6108dd8585858585610eb9565b5050505050565b6224ea0081565b60066020526000908152604090205481565b3360009081526007602052604090205460ff1661094f576040805162461bcd60e51b81526020600482015260196024820152600080516020611854833981519152604482015290519081900360640190fd5b61067d8161115d565b6002546001600160a01b031681565b6001600160a01b031660009081526003602052604090205490565b6001600160a01b031660009081526005602052604090205490565b60096020526000908152604090205481565b6002546001600160a01b031690565b6001600160a01b031660009081526004602052604090205490565b60036020526000908152604090205481565b60006109f6336111d7565b905090565b60086020526000908152604090205481565b6000610a183361132b565b9050806001600160a01b03166313d033c06040518163ffffffff1660e01b815260040160206040518083038186803b158015610a5357600080fd5b505afa158015610a67573d6000803e3d6000fd5b505050506040513d6020811015610a7d57600080fd5b505133600090815260086020526040902054148015610b0e5750806001600160a01b0316630fb5a6b46040518163ffffffff1660e01b815260040160206040518083038186803b158015610ad057600080fd5b505afa158015610ae4573d6000803e3d6000fd5b505050506040513d6020811015610afa57600080fd5b505133600090815260096020526040902054145b610b495760405162461bcd60e51b81526004018080602001828103825260238152602001806119f06023913960400191505060405180910390fd5b61067d33826113ae565b610b5d3382610bd0565b61067d33610d84565b3360009081526007602052604090205460ff16610bb8576040805162461bcd60e51b81526020600482015260196024820152600080516020611854833981519152604482015290519081900360640190fd5b61067d81611540565b6001546001600160a01b031681565b600054610c0e5760405162461bcd60e51b815260040180806020018281038252602281526020018061197f6022913960400191505060405180910390fd5b4260005410610c4e5760405162461bcd60e51b815260040180806020018281038252602a8152602001806118bc602a913960400191505060405180910390fd5b806001600160a01b038116610c605750815b6001600160a01b038084166000908152600560209081526040808320805490849055600154825163a9059cbb60e01b815287871660048201526024810183905292519195169263a9059cbb926044808201939182900301818787803b158015610cc857600080fd5b505af1158015610cdc573d6000803e3d6000fd5b505050506040513d6020811015610cf257600080fd5b5051905080610d325760405162461bcd60e51b815260040180806020018281038252604681526020018061180e6046913960600191505060405180910390fd5b826001600160a01b0316856001600160a01b03167fd1c19fbcd4551a5edfb66d43d2e337c04837afda3482b42bdf569a8fccdae5fb846040518082815260200191505060405180910390a35050505050565b6000610d8f8261132b565b90506001600160a01b038116610dab57610da8826111d7565b90505b610db582826113ae565b5050565b6001600160a01b038116610e14576040805162461bcd60e51b815260206004820152601c60248201527f4c6f636b656446756e643a20496e76616c696420416464726573732e00000000604482015290519081900360640190fd5b6001600160a01b03811660009081526007602052604090205460ff1615610e6c5760405162461bcd60e51b81526004018080602001828103825260258152602001806119a16025913960400191505060405180910390fd5b6001600160a01b038116600081815260076020526040808220805460ff191660011790555133917fbf3f493c772c8c283fd124432c2d0f539ab343faa04258fe88e52912d36b102b91a350565b81610ef55760405162461bcd60e51b81526004018080602001828103825260248152602001806118986024913960400191505060405180910390fd5b60258210610f345760405162461bcd60e51b81526004018080602001828103825260218152602001806119396021913960400191505060405180910390fd5b6127108110610f745760405162461bcd60e51b81526004018080602001828103825260328152602001806118e66032913960400191505060405180910390fd5b600154604080516323b872dd60e01b81523360048201523060248201526044810187905290516000926001600160a01b0316916323b872dd91606480830192602092919082900301818787803b158015610fcd57600080fd5b505af1158015610fe1573d6000803e3d6000fd5b505050506040513d6020811015610ff757600080fd5b50519050806110375760405162461bcd60e51b815260040180806020018281038252604681526020018061180e6046913960600191505060405180910390fd5b600061105b61271061104f888663ffffffff6115d116565b9063ffffffff61163316565b6001600160a01b038816600090815260056020526040902054909150611087908263ffffffff61167516565b6001600160a01b0388166000908152600560209081526040808320939093556003905220546110ce9082906110c2908963ffffffff61167516565b9063ffffffff6116cf16565b6001600160a01b038816600081815260036020908152604080832094909455600881528382206224ea008a810290915560098252918490209188029091558251898152908101889052808301879052606081018690529151909133917fdf0604a93cf2c070525999e93d1600fae85830a1b4b10e78f409f356257cbb2a9181900360800190a350505050505050565b806111995760405162461bcd60e51b815260040180806020018281038252602581526020018061195a6025913960400191505060405180910390fd5b600081905560408051828152905133917f199e9473de2d811b62d765c8ac3703d1369824c61bb67b2453f700615ffd0f94919081900360200190a250565b336000908152600860205260408120541580159061120357503360009081526009602052604090205415155b61123e5760405162461bcd60e51b815260040180806020018281038252602a8152602001806119c6602a913960400191505060405180910390fd5b6002546001600160a01b038381166000818152600860209081526040808320546009909252808320548151630665a06f60e01b815260048101959095526024850184905260448501929092526064840191909152519290931692630665a06f9260848084019382900301818387803b1580156112b957600080fd5b505af11580156112cd573d6000803e3d6000fd5b505050506112da8261132b565b9050806001600160a01b0316826001600160a01b0316336001600160a01b03167fbca00eff836738917bc04c3b9c08d4bb6af3f58f9eb021d294e6b17bc6a3b86560405160405180910390a4919050565b6002546040805163cc49ede760e01b81526001600160a01b0384811660048301529151600093929092169163cc49ede791602480820192602092909190829003018186803b15801561137c57600080fd5b505afa158015611390573d6000803e3d6000fd5b505050506040513d60208110156113a657600080fd5b505192915050565b6001600160a01b038083166000908152600460208181526040808420805490859055600154825163095ea7b360e01b8152888816958101959095526024850182905291519095919091169363095ea7b3936044808201949392918390030190829087803b15801561141e57600080fd5b505af1158015611432573d6000803e3d6000fd5b505050506040513d602081101561144857600080fd5b505161149b576040805162461bcd60e51b815260206004820152601b60248201527f4c6f636b656446756e643a20417070726f7665206661696c65642e0000000000604482015290519081900360640190fd5b816001600160a01b0316637547c7a3826040518263ffffffff1660e01b815260040180828152602001915050600060405180830381600087803b1580156114e157600080fd5b505af11580156114f5573d6000803e3d6000fd5b50506040805184815290516001600160a01b038087169450871692507f17a90bf25d618e67de9bc66de5762d97787b11707d112164ab54c37111467f2b9181900360200190a3505050565b6001600160a01b0381166115855760405162461bcd60e51b8152600401808060200182810382526030815260200180611a136030913960400191505060405180910390fd5b600280546001600160a01b0319166001600160a01b03831690811790915560405133907f48c779b869b43e376452fea450ca0bcc7dde32d0c079cb448edb5b3f2ad4b3e790600090a350565b6000826115e05750600061162d565b828202828482816115ed57fe5b041461162a5760405162461bcd60e51b81526004018080602001828103825260218152602001806119186021913960400191505060405180910390fd5b90505b92915050565b600061162a83836040518060400160405280601a81526020017f536166654d6174683a206469766973696f6e206279207a65726f000000000000815250611711565b60008282018381101561162a576040805162461bcd60e51b815260206004820152601b60248201527f536166654d6174683a206164646974696f6e206f766572666c6f770000000000604482015290519081900360640190fd5b600061162a83836040518060400160405280601e81526020017f536166654d6174683a207375627472616374696f6e206f766572666c6f7700008152506117b3565b6000818361179d5760405162461bcd60e51b81526004018080602001828103825283818151815260200191508051906020019080838360005b8381101561176257818101518382015260200161174a565b50505050905090810190601f16801561178f5780820380516001836020036101000a031916815260200191505b509250505060405180910390fd5b5060008385816117a957fe5b0495945050505050565b600081848411156118055760405162461bcd60e51b815260206004820181815283516024840152835190928392604490910191908501908083836000831561176257818101518382015260200161174a565b50505090039056fe4c6f636b656446756e643a20546f6b656e207472616e7366657220776173206e6f74207375636365737366756c2e20436865636b20726563656976657220616464726573732e4f6e6c792061646d696e2063616e2063616c6c20746869732e000000000000004c6f636b656446756e643a2041646472657373206973206e6f7420616e2061646d696e2e4c6f636b656446756e643a204475726174696f6e2063616e6e6f74206265207a65726f2e4c6f636b656446756e643a20576169742054696d657374616d70206e6f7420796574207061737365642e4c6f636b656446756e643a20426173697320506f696e742068617320746f206265206c657373207468616e2031303030302e536166654d6174683a206d756c7469706c69636174696f6e206f766572666c6f774c6f636b656446756e643a204475726174696f6e20697320746f6f206c6f6e672e4c6f636b656446756e643a205761697465642054532063616e6e6f74206265207a65726f2e4c6f636b656446756e643a20576169746564205453206e6f7420736574207965742e4c6f636b656446756e643a204164647265737320697320616c72656164792061646d696e2e4c6f636b656446756e643a20436c69666620616e642f6f72204475726174696f6e206e6f74207365742e4c6f636b656446756e643a2057726f6e672056657374696e67205363686564756c652e4c6f636b656446756e643a2056657374696e67207265676973747279206164647265737320697320696e76616c69642ea265627a7a72315820458668e8d6ee8e9ea39ff268a3f1ba842cc9003ee32e59dba2d1ba7b352c0ac664736f6c634300051100324c6f636b656446756e643a205761697465642054532063616e6e6f74206265207a65726f2e4c6f636b656446756e643a20496e76616c696420546f6b656e20416464726573732e4c6f636b656446756e643a2056657374696e67207265676973747279206164647265737320697320696e76616c69642e",
  "linkReferences": {},
  "deployedLinkReferences": {}
}