{
  "_format": "hh-sol-artifact-1",
  "contractName": "ReentrancyGuard",
  "sourceName": "contracts/Openzeppelin/ReentrancyGuard.sol",
  "abi": [
    {
      "constant": true,
      "inputs": [
        {
          "internalType": "bytes32",
          "name": "c__0x43034809",
          "type": "bytes32"
        }
      ],
      "name": "c_0x43034809",
      "outputs": [],
      "payable": false,
      "stateMutability": "pure",
      "type": "function"
    }
  ],
  "bytecode": "0x60806040526001600055348015601457600080fd5b506090806100236000396000f3fe6080604052348015600f57600080fd5b506004361060285760003560e01c80638101299c14602d575b600080fd5b605660048036036020811015604157600080fd5b81019080803590602001909291905050506058565b005b5056fea265627a7a72315820de575c51a031385798978fe01d10462c4f0c8b6c620c7b85dfc5d4d4d6af7d4264736f6c63430005110032",
  "linkReferences": {},
  "deployedLinkReferences": {}
}