{
  "_format": "hh-sol-artifact-1",
  "contractName": "VestingStorage",
  "sourceName": "contracts/Interfaces/IVestingLogic.sol",
  "abi": [
    {
      "constant": true,
      "inputs": [],
      "name": "cliff",
      "outputs": [
        {
          "internalType": "uint256",
          "name": "",
          "type": "uint256"
        }
      ],
      "payable": false,
      "stateMutability": "view",
      "type": "function"
    },
    {
      "constant": true,
      "inputs": [],
      "name": "duration",
      "outputs": [
        {
          "internalType": "uint256",
          "name": "",
          "type": "uint256"
        }
      ],
      "payable": false,
      "stateMutability": "view",
      "type": "function"
    }
  ],
  "bytecode": "0x6080604052348015600f57600080fd5b5060968061001e6000396000f3fe6080604052348015600f57600080fd5b506004361060325760003560e01c80630fb5a6b414603757806313d033c014604f575b600080fd5b603d6055565b60408051918252519081900360200190f35b603d605b565b60015481565b6000548156fea265627a7a72315820bf3475cae20a692d605e5ffe2e2427ac41aec3ad12ae46d0d23af985351d2a8064736f6c63430005110032",
  "linkReferences": {},
  "deployedLinkReferences": {}
}