{
  "_format": "hh-sol-artifact-1",
  "contractName": "VestingStorage",
  "sourceName": "contracts/Interfaces/IVestingLogic.sol",
  "abi": [
    {
      "constant": true,
      "inputs": [
        {
          "internalType": "bytes32",
          "name": "c__0xa1e8758b",
          "type": "bytes32"
        }
      ],
      "name": "c_0xa1e8758b",
      "outputs": [],
      "payable": false,
      "stateMutability": "pure",
      "type": "function"
    },
    {
      "constant": true,
      "inputs": [],
      "name": "cliff",
      "outputs": [
        {
          "internalType": "uint256",
          "name": "",
          "type": "uint256"
        }
      ],
      "payable": false,
      "stateMutability": "view",
      "type": "function"
    },
    {
      "constant": true,
      "inputs": [],
      "name": "duration",
      "outputs": [
        {
          "internalType": "uint256",
          "name": "",
          "type": "uint256"
        }
      ],
      "payable": false,
      "stateMutability": "view",
      "type": "function"
    }
  ],
  "bytecode": "0x608060405234801561001057600080fd5b5060e88061001f6000396000f3fe6080604052348015600f57600080fd5b5060043610603c5760003560e01c80630fb5a6b414604157806313d033c014605d578063cf31b46e146079575b600080fd5b604760a4565b6040518082815260200191505060405180910390f35b606360aa565b6040518082815260200191505060405180910390f35b60a260048036036020811015608d57600080fd5b810190808035906020019092919050505060b0565b005b60015481565b60005481565b5056fea265627a7a723158203012d68fe12002eb91edfeeb6dd579167417b4e35fb7fde2fcd89bb21b4f2f8d64736f6c63430005110032",
  "linkReferences": {},
  "deployedLinkReferences": {}
}